LX51 LINKER/LOCATER V4.66.97.0                                                          04/28/2025  14:43:25  PAGE 1


LX51 LINKER/LOCATER V4.66.97.0, INVOKED BY:
C:\KEIL_V5\C51\BIN\LX51.EXE .\Output\main.obj, .\Output\tk_data.obj, .\Output\tk_debuguart.obj, .\Output\tk_led.obj, .\O
>> utput\tk_massproduction.obj, .\Output\tk_multpinfunctions.obj, .\Output\tk_systik.obj, ..\..\..\..\Library\TKlib\TKLi
>> b_MassProduction_LX51.LIB, .\Output\lcd.obj, .\Output\lcdlib.obj, .\Output\lcdmain_nk.obj, .\Output\rtc.obj, .\Output
>> \adc_vtemp.obj, .\Output\adc.obj, .\Output\vref.obj, .\Output\common.obj, .\Output\STARTUP.obj TO .\Output\NK_ML56SD_
>> LCDTKView PRINT (.\LST\NK_ML56SD_LCDTKView.map) DISABLEWARNING (16) REMOVEUNUSED SEGMENTS (?CO?TK_DATA (C:0XEE80))


CPU MODE:     8051 MODE
MEMORY MODEL: LARGE WITH FLOATING POINT ARITHMETIC


INPUT MODULES INCLUDED:
  .\Output\main.obj (MAIN)
         COMMENT TYPE 0: C51 V9.60.0.0
  .\Output\tk_data.obj (TK_DATA)
         COMMENT TYPE 0: C51 V9.60.0.0
  .\Output\tk_debuguart.obj (TK_DEBUGUART)
         COMMENT TYPE 0: C51 V9.60.0.0
  .\Output\tk_led.obj (TK_LED)
         COMMENT TYPE 0: C51 V9.60.0.0
  .\Output\tk_massproduction.obj (TK_MASSPRODUCTION)
         COMMENT TYPE 0: C51 V9.60.0.0
  .\Output\tk_multpinfunctions.obj (TK_MULTPINFUNCTIONS)
         COMMENT TYPE 0: C51 V9.60.0.0
  .\Output\tk_systik.obj (TK_SYSTIK)
         COMMENT TYPE 0: C51 V9.60.0.0
  ..\..\..\..\Library\TKlib\TKLib_MassProduction_LX51.LIB (TK_DECTION)
         COMMENT TYPE 0: C51 V9.60.0.0
  ..\..\..\..\Library\TKlib\TKLib_MassProduction_LX51.LIB (TK_PARAM)
         COMMENT TYPE 0: C51 V9.60.0.0
  ..\..\..\..\Library\TKlib\TKLib_MassProduction_LX51.LIB (TK_FLASH)
         COMMENT TYPE 0: C51 V9.60.0.0
  ..\..\..\..\Library\TKlib\TKLib_MassProduction_LX51.LIB (ML51_XSFR)
         COMMENT TYPE 0: C51 V9.60.0.0
  ..\..\..\..\Library\TKlib\TKLib_MassProduction_LX51.LIB (TK)
         COMMENT TYPE 0: C51 V9.60.0.0
  ..\..\..\..\Library\TKlib\TKLib_MassProduction_LX51.LIB (TK_DEBOUNCE)
         COMMENT TYPE 0: C51 V9.60.0.0
  ..\..\..\..\Library\TKlib\TKLib_MassProduction_LX51.LIB (TK_TRACKBASELINE)
         COMMENT TYPE 0: C51 V9.60.0.0
  .\Output\lcd.obj (LCD)
         COMMENT TYPE 0: C51 V9.60.0.0
  .\Output\lcdlib.obj (LCDLIB)
         COMMENT TYPE 0: C51 V9.60.0.0
  .\Output\lcdmain_nk.obj (LCDMAIN_NK)
         COMMENT TYPE 0: C51 V9.60.0.0
  .\Output\rtc.obj (RTC)
         COMMENT TYPE 0: C51 V9.60.0.0
  .\Output\adc_vtemp.obj (ADC_VTEMP)
         COMMENT TYPE 0: C51 V9.60.0.0
  .\Output\adc.obj (ADC)
         COMMENT TYPE 0: C51 V9.60.0.0
  .\Output\vref.obj (VREF)
         COMMENT TYPE 0: C51 V9.60.0.0
  .\Output\common.obj (COMMON)
         COMMENT TYPE 0: C51 V9.60.0.0
  .\Output\STARTUP.obj (?C_STARTUP)
         COMMENT TYPE 1: A51 / ASM51 Assembler
  C:\KEIL_V5\C51\LIB\C51FPL.LIB (?C?FPADD)
         COMMENT TYPE 1: A51 / ASM51 Assembler
  C:\KEIL_V5\C51\LIB\C51FPL.LIB (?C?FPMUL)
         COMMENT TYPE 1: A51 / ASM51 Assembler
  C:\KEIL_V5\C51\LIB\C51FPL.LIB (?C?FPDIV)
         COMMENT TYPE 1: A51 / ASM51 Assembler
  C:\KEIL_V5\C51\LIB\C51FPL.LIB (?C?FCAST)
LX51 LINKER/LOCATER V4.66.97.0                                                        04/28/2025  14:43:25  PAGE 2


         COMMENT TYPE 1: A51 / ASM51 Assembler
  C:\KEIL_V5\C51\LIB\C51FPL.LIB (?C?CASTF)
         COMMENT TYPE 1: A51 / ASM51 Assembler
  C:\KEIL_V5\C51\LIB\C51FPL.LIB (PRINTF)
         COMMENT TYPE 1: A51 / ASM51 Assembler
  C:\KEIL_V5\C51\LIB\C51FPL.LIB (?C?FPGETOPN)
         COMMENT TYPE 1: A51 / ASM51 Assembler
  C:\KEIL_V5\C51\LIB\C51FPL.LIB (?C?FPROUND)
         COMMENT TYPE 1: A51 / ASM51 Assembler
  C:\KEIL_V5\C51\LIB\C51FPL.LIB (?C?FPCONVERT)
         COMMENT TYPE 1: A51 / ASM51 Assembler
  C:\KEIL_V5\C51\LIB\C51FPL.LIB (?C?FTNPWR)
         COMMENT TYPE 1: A51 / ASM51 Assembler
  C:\KEIL_V5\C51\LIB\C51L.LIB (?C_INIT)
         COMMENT TYPE 1: A51 / ASM51 Assembler
  C:\KEIL_V5\C51\LIB\C51L.LIB (?C?COPY)
         COMMENT TYPE 1: A51 / ASM51 Assembler
  C:\KEIL_V5\C51\LIB\C51L.LIB (?C?CLDPTR)
         COMMENT TYPE 1: A51 / ASM51 Assembler
  C:\KEIL_V5\C51\LIB\C51L.LIB (?C?CLDOPTR)
         COMMENT TYPE 1: A51 / ASM51 Assembler
  C:\KEIL_V5\C51\LIB\C51L.LIB (?C?CILDPTR)
         COMMENT TYPE 1: A51 / ASM51 Assembler
  C:\KEIL_V5\C51\LIB\C51L.LIB (?C?CILDOPTR)
         COMMENT TYPE 1: A51 / ASM51 Assembler
  C:\KEIL_V5\C51\LIB\C51L.LIB (?C?CSTPTR)
         COMMENT TYPE 1: A51 / ASM51 Assembler
  C:\KEIL_V5\C51\LIB\C51L.LIB (?C?CSTOPTR)
         COMMENT TYPE 1: A51 / ASM51 Assembler
  C:\KEIL_V5\C51\LIB\C51L.LIB (?C?IMUL)
         COMMENT TYPE 1: A51 / ASM51 Assembler
  C:\KEIL_V5\C51\LIB\C51L.LIB (?C?UIDIV)
         COMMENT TYPE 1: A51 / ASM51 Assembler
  C:\KEIL_V5\C51\LIB\C51L.LIB (?C?SIDIV)
         COMMENT TYPE 1: A51 / ASM51 Assembler
  C:\KEIL_V5\C51\LIB\C51L.LIB (?C?IILDX)
         COMMENT TYPE 1: A51 / ASM51 Assembler
  C:\KEIL_V5\C51\LIB\C51L.LIB (?C?ILDOPTR)
         COMMENT TYPE 1: A51 / ASM51 Assembler
  C:\KEIL_V5\C51\LIB\C51L.LIB (?C?ISTPTR)
         COMMENT TYPE 1: A51 / ASM51 Assembler
  C:\KEIL_V5\C51\LIB\C51L.LIB (?C?LADD)
         COMMENT TYPE 1: A51 / ASM51 Assembler
  C:\KEIL_V5\C51\LIB\C51L.LIB (?C?LMUL)
         COMMENT TYPE 1: A51 / ASM51 Assembler
  C:\KEIL_V5\C51\LIB\C51L.LIB (?C?ULDIV)
         COMMENT TYPE 1: A51 / ASM51 Assembler
  C:\KEIL_V5\C51\LIB\C51L.LIB (?C?LAND)
         COMMENT TYPE 1: A51 / ASM51 Assembler
  C:\KEIL_V5\C51\LIB\C51L.LIB (?C?LOR)
         COMMENT TYPE 1: A51 / ASM51 Assembler
  C:\KEIL_V5\C51\LIB\C51L.LIB (?C?LNOT)
         COMMENT TYPE 1: A51 / ASM51 Assembler
  C:\KEIL_V5\C51\LIB\C51L.LIB (?C?LNEG)
         COMMENT TYPE 1: A51 / ASM51 Assembler
  C:\KEIL_V5\C51\LIB\C51L.LIB (?C?SLCMP)
         COMMENT TYPE 1: A51 / ASM51 Assembler
  C:\KEIL_V5\C51\LIB\C51L.LIB (?C?ULCMP)
         COMMENT TYPE 1: A51 / ASM51 Assembler
  C:\KEIL_V5\C51\LIB\C51L.LIB (?C?ULSHR)
         COMMENT TYPE 1: A51 / ASM51 Assembler
  C:\KEIL_V5\C51\LIB\C51L.LIB (?C?LSHL)
         COMMENT TYPE 1: A51 / ASM51 Assembler
  C:\KEIL_V5\C51\LIB\C51L.LIB (?C?LLDPTR)
         COMMENT TYPE 1: A51 / ASM51 Assembler
LX51 LINKER/LOCATER V4.66.97.0                                                        04/28/2025  14:43:25  PAGE 3


  C:\KEIL_V5\C51\LIB\C51L.LIB (?C?LLDOPTR)
         COMMENT TYPE 1: A51 / ASM51 Assembler
  C:\KEIL_V5\C51\LIB\C51L.LIB (?C?LSTPTR)
         COMMENT TYPE 1: A51 / ASM51 Assembler
  C:\KEIL_V5\C51\LIB\C51L.LIB (?C?LSTOPTR)
         COMMENT TYPE 1: A51 / ASM51 Assembler
  C:\KEIL_V5\C51\LIB\C51L.LIB (?C?LLDXDATA)
         COMMENT TYPE 1: A51 / ASM51 Assembler
  C:\KEIL_V5\C51\LIB\C51L.LIB (?C?LLDCODE)
         COMMENT TYPE 1: A51 / ASM51 Assembler
  C:\KEIL_V5\C51\LIB\C51L.LIB (?C?LLDXDATA0)
         COMMENT TYPE 1: A51 / ASM51 Assembler
  C:\KEIL_V5\C51\LIB\C51L.LIB (?C?LLDPTR0)
         COMMENT TYPE 1: A51 / ASM51 Assembler
  C:\KEIL_V5\C51\LIB\C51L.LIB (?C?LLDOPTR0)
         COMMENT TYPE 1: A51 / ASM51 Assembler
  C:\KEIL_V5\C51\LIB\C51L.LIB (?C?LSTXDATA)
         COMMENT TYPE 1: A51 / ASM51 Assembler
  C:\KEIL_V5\C51\LIB\C51L.LIB (?C?LSTKXDATA)
         COMMENT TYPE 1: A51 / ASM51 Assembler
  C:\KEIL_V5\C51\LIB\C51L.LIB (?C?LSTKOPTR)
         COMMENT TYPE 1: A51 / ASM51 Assembler
  C:\KEIL_V5\C51\LIB\C51L.LIB (?C?OFFXADD)
         COMMENT TYPE 1: A51 / ASM51 Assembler
  C:\KEIL_V5\C51\LIB\C51L.LIB (?C?PLDXDATA)
         COMMENT TYPE 1: A51 / ASM51 Assembler
  C:\KEIL_V5\C51\LIB\C51L.LIB (?C?PLDIXDATA)
         COMMENT TYPE 1: A51 / ASM51 Assembler
  C:\KEIL_V5\C51\LIB\C51L.LIB (?C?PSTXDATA)
         COMMENT TYPE 1: A51 / ASM51 Assembler
  C:\KEIL_V5\C51\LIB\C51L.LIB (?C?CCASE)
         COMMENT TYPE 1: A51 / ASM51 Assembler
  C:\KEIL_V5\C51\LIB\C51L.LIB (?C?LCASE)
         COMMENT TYPE 1: A51 / ASM51 Assembler
  C:\KEIL_V5\C51\LIB\C51L.LIB (?C?ICALL)
         COMMENT TYPE 1: A51 / ASM51 Assembler
  C:\KEIL_V5\C51\LIB\C51L.LIB (ABS)
         COMMENT TYPE 1: A51 / ASM51 Assembler
  C:\KEIL_V5\C51\LIB\C51L.LIB (STRLEN)
         COMMENT TYPE 1: A51 / ASM51 Assembler
  C:\KEIL_V5\C51\LIB\C51L.LIB (?C?LLDIDATA)
         COMMENT TYPE 1: A51 / ASM51 Assembler
  C:\KEIL_V5\C51\LIB\C51L.LIB (?C?LLDPDATA)
         COMMENT TYPE 1: A51 / ASM51 Assembler
  C:\KEIL_V5\C51\LIB\C51L.LIB (?C?LLDIDATA0)
         COMMENT TYPE 1: A51 / ASM51 Assembler
  C:\KEIL_V5\C51\LIB\C51L.LIB (?C?LLDPDATA0)
         COMMENT TYPE 1: A51 / ASM51 Assembler
  C:\KEIL_V5\C51\LIB\C51L.LIB (?C?LLDCODE0)
         COMMENT TYPE 1: A51 / ASM51 Assembler
  C:\KEIL_V5\C51\LIB\C51L.LIB (?C?LSTIDATA)
         COMMENT TYPE 1: A51 / ASM51 Assembler
  C:\KEIL_V5\C51\LIB\C51L.LIB (?C?LSTPDATA)
         COMMENT TYPE 1: A51 / ASM51 Assembler
  C:\KEIL_V5\C51\LIB\C51L.LIB (?C?LSTKIDATA)
         COMMENT TYPE 1: A51 / ASM51 Assembler
  C:\KEIL_V5\C51\LIB\C51L.LIB (?C?LSTKPDATA)
         COMMENT TYPE 1: A51 / ASM51 Assembler


ACTIVE MEMORY CLASSES OF MODULE:  .\Output\NK_ML56SD_LCDTKView (MAIN)

BASE        START       END         USED      MEMORY CLASS
==========================================================
C:000000H   C:000000H   C:00FFFFH   004FC4H   CODE
LX51 LINKER/LOCATER V4.66.97.0                                                        04/28/2025  14:43:25  PAGE 4


X:000000H   X:000000H   X:00FFFFH   0008ECH   XDATA
I:000020H.0 I:000020H.0 I:00002FH.7 000001H.3 BIT
C:000000H   C:000000H   C:00FFFFH   000200H   CONST
I:000000H   I:000000H   I:00007FH   000010H   DATA
I:000000H   I:000000H   I:0000FFH   000001H   IDATA


MEMORY MAP OF MODULE:  .\Output\NK_ML56SD_LCDTKView (MAIN)


START     STOP      LENGTH    ALIGN  RELOC    MEMORY CLASS   SEGMENT NAME
=========================================================================

* * * * * * * * * * *   D A T A   M E M O R Y   * * * * * * * * * * * * *
000000H   000007H   000008H   ---    AT..     DATA           "REG BANK 0"
000008H   00000CH   000005H   BYTE   UNIT     DATA           _DATA_GROUP_
00000DH   00000FH   000003H   BYTE   UNIT     DATA           ?DT?COMMON
000010H.0 00001FH.7 000010H.0 ---    ---      **GAP**
000020H.0 000021H.1 000001H.2 BIT    UNIT     BIT            _BIT_GROUP_
000021H.2 000021H.2 000000H.1 BIT    UNIT     BIT            ?BI?COMMON
000021H.3 000021H   000000H.5 ---    ---      **GAP**
000022H   000022H   000001H   BYTE   UNIT     IDATA          ?STACK

* * * * * * * * * * *   C O D E   M E M O R Y   * * * * * * * * * * * * *
000000H   000002H   000003H   ---    OFFS..   CODE           ?CO??C_STARTUP?0
000003H   000029H   000027H   BYTE   UNIT     CODE           ?PR?_LCD_SETONEPIXEL?LCD
00002AH   00002AH   000001H   ---    ---      **GAP**
00002BH   00002DH   000003H   BYTE   OFFS..   CODE           ?TK_SYSTIK?0002B
00002EH   000C45H   000C18H   BYTE   UNIT     CODE           ?C?LIB_CODE
000C46H   001405H   0007C0H   BYTE   UNIT     CODE           ?C_INITSEG
001406H   001888H   000483H   BYTE   UNIT     CODE           ?PR?PRINTF?PRINTF
001889H   001CDBH   000453H   BYTE   UNIT     CODE           ?PR?_TK_LOADPARA?TK_PARAM
001CDCH   002118H   00043DH   BYTE   UNIT     CODE           ?PR?_LCDLIB_PRINTF?LCDLIB
002119H   00248EH   000376H   BYTE   UNIT     CODE           ?PR?_TK_KEYDETECTION?TK_DECTION
00248FH   002803H   000375H   BYTE   UNIT     CODE           ?PR?_LCDLIB_PRINTNUMBER?LCDLIB
002804H   002ADDH   0002DAH   BYTE   UNIT     CODE           ?PR?_ADC_OPEN?ADC
002ADEH   002D9AH   0002BDH   BYTE   UNIT     CODE           ?PR?_TK_UPDATEBASELINE?TK_TRACKBASELINE
002D9BH   003036H   00029CH   BYTE   UNIT     CODE           ?PR?_TK_SCANKEY?TK_DECTION
003037H   003294H   00025EH   BYTE   UNIT     CODE           ?PR?_SETTKMULTIFUN?TK_MULTPINFUNCTIONS
003295H   003423H   00018FH   BYTE   UNIT     CODE           ?PR?TK_INIT?TK_DECTION
003424H   0035A3H   000180H   BYTE   UNIT     CODE           ?PR?MAIN?MAIN
0035A4H   003711H   00016EH   BYTE   UNIT     CODE           ?PR?TIMER2_ISR?TK_SYSTIK
003712H   00386AH   000159H   BYTE   UNIT     CODE           ?PR?_TK_KEYSIGNALPOSITIVE?TK_DECTION
00386BH   0039BEH   000154H   BYTE   UNIT     CODE           ?PR?_FINDTUNEREFCB_CCB?TK_DECTION
0039BFH   003B03H   000145H   BYTE   UNIT     CODE           ?PR?LCD_IO_INIT?LCDMAIN_NK
003B04H   003C42H   00013FH   BYTE   UNIT     CODE           ?PR?_TK_DEBOUNCE?TK_DEBOUNCE
003C43H   003D74H   000132H   BYTE   UNIT     CODE           ?PR?INTERNAL_TEMPERATURE?ADC_VTEMP
003D75H   003E98H   000124H   BYTE   UNIT     CODE           ?PR?_TICKSETTICKEVENT?TK_SYSTIK
003E99H   003F8AH   0000F2H   BYTE   UNIT     CODE           ?PR?_TK_FINDMAXTWO?TK_DECTION
003F8BH   004079H   0000EFH   BYTE   UNIT     CODE           ?PR?LCD_FRAME1?LCDMAIN_NK
00407AH   00415CH   0000E3H   BYTE   UNIT     CODE           ?PR?_TK_CHECKSLIDERWHEELPRESSED?TK_DECTION
00415DH   00423AH   0000DEH   BYTE   UNIT     CODE           ?PR?_TK_KEYSIGNALNEGATIVE?TK_DECTION
00423BH   0042F8H   0000BEH   BYTE   UNIT     CODE           ?PR?_TK_SETTKPOL?TK
0042F9H   0043B3H   0000BBH   BYTE   UNIT     CODE           ?PR?_VREF_RELOAD?VREF
0043B4H   00446AH   0000B7H   BYTE   UNIT     CODE           ?PR?_TK_BASELINETRACK?TK_TRACKBASELINE
00446BH   00451DH   0000B3H   BYTE   UNIT     CODE           ?PR?_TKLIB_TRACKCCB?TK_DECTION
00451EH   0045CAH   0000ADH   BYTE   UNIT     CODE           ?PR?_TK_ENABLESHIELDING?TK_DECTION
0045CBH   004674H   0000AAH   BYTE   UNIT     CODE           ?PR?LCD_FRAME2?LCDMAIN_NK
004675H   00470EH   00009AH   BYTE   UNIT     CODE           ?C_C51STARTUP
00470FH   0047A1H   000093H   BYTE   UNIT     CODE           ?PR?_TK_DISABLETKPOLARITY?TK
0047A2H   00482FH   00008EH   BYTE   UNIT     CODE           ?PR?TK_STOREADDR?TK_PARAM
004830H   0048B7H   000088H   BYTE   UNIT     CODE           ?PR?_LCDLIB_SETSYMBOL?LCDLIB
0048B8H   00493CH   000085H   BYTE   UNIT     CODE           ?PR?_TK_GETENABLEDCHANNELMASK?TK_DECTION
00493DH   0049B5H   000079H   BYTE   UNIT     CODE           ?PR?_TK_ENABLETKPOLARITY?TK
0049B6H   004A2CH   000077H   BYTE   UNIT     CODE           ?PR?READ_BANDGAP?ADC
LX51 LINKER/LOCATER V4.66.97.0                                                        04/28/2025  14:43:25  PAGE 5


004A2DH   004A9EH   000072H   BYTE   UNIT     CODE           ?PR?_TK_UPDATEBASELINETMP?TK_DECTION
004A9FH   004B0DH   00006FH   BYTE   UNIT     CODE           ?PR?_VREF_OPEN?VREF
004B0EH   004B68H   00005BH   BYTE   UNIT     CODE           ?PR?_TK_DISABLESHIELDING?TK_DECTION
004B69H   004BC0H   000058H   BYTE   UNIT     CODE           ?PR?_TK_CONFIGSENSITIVITY?TK
004BC1H   004C08H   000048H   BYTE   UNIT     CODE           ?PR?_LCD_OPEN?LCD
004C09H   004C4CH   000044H   BYTE   UNIT     CODE           ?PR?INIT_SYSTICK?TK_SYSTIK
004C4DH   004C89H   00003DH   BYTE   UNIT     CODE           ?PR?_LCD_CURRENT_MODE?LCD
004C8AH   004CC4H   00003BH   BYTE   UNIT     CODE           ?PR?TK_OPEN?TK
004CC5H   004CF8H   000034H   BYTE   UNIT     CODE           ?PR?_TICKCLEARTICKEVENT?TK_SYSTIK
004CF9H   004D2BH   000033H   BYTE   UNIT     CODE           ?PR?LCD_INIT_SETTING?LCDMAIN_NK
004D2CH   004D5AH   00002FH   BYTE   UNIT     CODE           ?PR?_TK_DEBOUNCECHANNEL?TK_DEBOUNCE
004D5BH   004D86H   00002CH   BYTE   UNIT     CODE           ?PR?FMC_OPEN?TK_FLASH
004D87H   004DA9H   000023H   BYTE   UNIT     CODE           ?PR?_TK_SETCAPBANKPOL?TK
004DAAH   004DC9H   000020H   BYTE   UNIT     CODE           ?PR?_LCD_CLOCK_SETTING?LCD
004DCAH   004DE9H   000020H   BYTE   UNIT     CODE           ?PR?_LCD_SETALLPIXELS?LCD
004DEAH   004E08H   00001FH   BYTE   UNIT     CODE           ?PR?_TK_SETREFERENCECHANNEL?TK
004E09H   004E26H   00001EH   BYTE   UNIT     CODE           ?PR?UART1_INIT?TK_DEBUGUART
004E27H   004E42H   00001CH   BYTE   UNIT     CODE           ?PR?_TK_SETCOMPCAPBANKDATA?TK
004E43H   004E5EH   00001CH   BYTE   UNIT     CODE           ?PR?_LCD_POWERDOWN_DISPLAY?LCD
004E5FH   004E79H   00001BH   BYTE   UNIT     CODE           ?PR?_ADC_SAMPLINGTIME?ADC
004E7AH   004E91H   000018H   BYTE   UNIT     CODE           ?PR?_TK_ENABLECHANNEL?TK
004E92H   004EA8H   000017H   BYTE   UNIT     CODE           ?PR?_TK_SETREFCAPBANKDATA?TK
004EA9H   004EBEH   000016H   BYTE   UNIT     CODE           ?PR?_RTC_CLOCK_SELECT?RTC
004EBFH   004ED3H   000015H   BYTE   UNIT     CODE           ?PR?_TK_GET_SENSE_DATA?TK
004ED4H   004EE8H   000015H   BYTE   UNIT     CODE           ?PR?_STRLEN?STRLEN
004EE9H   004EFCH   000014H   BYTE   UNIT     CODE           ?PR?_PUTCHAR?TK_DEBUGUART
004EFDH   004F0FH   000013H   BYTE   UNIT     CODE           ?PR?TK_GETTKINFOPTR?TK_DECTION
004F10H   004F1FH   000010H   BYTE   UNIT     CODE           ?PR?INITIALUART1_TIMER3?TK_DEBUGUART
004F20H   004F2FH   000010H   BYTE   UNIT     CODE           ?PR?_RTC_TICK_SELECT?RTC
004F30H   004F3EH   00000FH   BYTE   UNIT     CODE           ?PR?_LCD_BLINK?LCD
004F3FH   004F4BH   00000DH   BYTE   UNIT     CODE           ?PR?TK_LIGHTLED?TK_LED
004F4CH   004F58H   00000DH   BYTE   UNIT     CODE           ?PR?RTC_INITIAL_RUN?RTC
004F59H   004F65H   00000DH   BYTE   UNIT     CODE           ?PR?RTC_INITIAL_PAUSE?RTC
004F66H   004F72H   00000DH   BYTE   UNIT     CODE           ?PR?VREF_DISABLE?VREF
004F73H   004F7EH   00000CH   BYTE   UNIT     CODE           ?PR?INITLEDIO?TK_LED
004F7FH   004F8AH   00000CH   BYTE   UNIT     CODE           ?PR?_ABS?ABS
004F8BH   004F94H   00000AH   BYTE   UNIT     CODE           ?PR?TK_DISABLEALLCHANNEL?TK
004F95H   004F9BH   000007H   BYTE   UNIT     CODE           ?PR?TICKCALLBACK_KEYSCAN?MAIN
004F9CH   004FA2H   000007H   BYTE   UNIT     CODE           ?PR?TK_GETFEATUREPTR?TK_DECTION
004FA3H   004FA9H   000007H   BYTE   UNIT     CODE           ?PR?TK_GETKEYINFOPTR?TK_DECTION
004FAAH   004FB0H   000007H   BYTE   UNIT     CODE           ?PR?LCD_ENABLE?LCD
004FB1H   004FB7H   000007H   BYTE   UNIT     CODE           ?PR?LCD_DISABLE?LCD
004FB8H   004FBEH   000007H   BYTE   UNIT     CODE           ?PR?ADC_CLOSE?ADC
004FBFH   004FC4H   000006H   BYTE   UNIT     CODE           ?PR?_RTC_RWEN_?RTC
004FC5H   004FF7H   000033H   BYTE   UNIT     CONST          ?CO?MAIN
004FF8H   005024H   00002DH   BYTE   UNIT     CONST          ?CO?LCDMAIN_NK
005025H   005044H   000020H   BYTE   UNIT     CONST          ?CO?LCDLIB
005045H   00EE7FH   009E3BH   ---    ---      **GAP**
00EE80H   00EFFFH   000180H   BYTE   UNIT     CONST          ?CO?TK_DATA

* * * * * * * * * * *  X D A T A   M E M O R Y  * * * * * * * * * * * * *
000000H   00006AH   00006BH   BYTE   UNIT     XDATA          ?XD?TK_DECTION
00006BH   0000C4H   00005AH   BYTE   UNIT     XDATA          _XDATA_GROUP_
0000C5H   0000F9H   000035H   BYTE   UNIT     XDATA          ?XD?TK_SYSTIK
0000FAH   000117H   00001EH   BYTE   UNIT     XDATA          ?XD?TK_PARAM
000118H   000135H   00001EH   BYTE   UNIT     XDATA          ?XD?TK_DEBOUNCE
000136H   000144H   00000FH   BYTE   UNIT     XDATA          ?XD?TK_TRACKBASELINE
000145H   000153H   00000FH   BYTE   UNIT     XDATA          ?XD?RTC
000154H   000156H   000003H   BYTE   UNIT     XDATA          ?XD?TK_MASSPRODUCTION
000157H   000252H   0000FCH   ---    ---      **GAP**
000253H   000261H   00000FH   BYTE   OFFS..   XDATA          ?XD?TK_DECTION?1
000262H   0002EAH   000089H   ---    ---      **GAP**
0002EBH   0002EBH   000001H   BYTE   OFFS..   XDATA          ?XD?TK_DECTION?2
0002ECH   0002ECH   000001H   BYTE   OFFS..   XDATA          ?XD?TK_DECTION?3
0002EDH   0002EDH   000001H   BYTE   OFFS..   XDATA          ?XD?TK_DECTION?0
LX51 LINKER/LOCATER V4.66.97.0                                                        04/28/2025  14:43:25  PAGE 6


0002EEH   000556H   000269H   BYTE   UNIT     XDATA          ?XD?MAIN
000557H   0007B6H   000260H   BYTE   UNIT     XDATA          ?XD?LCDLIB
0007B7H   000A16H   000260H   BYTE   UNIT     XDATA          ?XD?LCDMAIN_NK
000A17H   007FFFH   0075E9H   ---    ---      **GAP**
008000H   008000H   000001H   BYTE   OFFS..   XDATA          ?XD?ML51_XSFR?31
008001H   008001H   000001H   BYTE   OFFS..   XDATA          ?XD?ML51_XSFR?33
008002H   008002H   000001H   BYTE   OFFS..   XDATA          ?XD?ML51_XSFR?35
008003H   008003H   000001H   BYTE   OFFS..   XDATA          ?XD?ML51_XSFR?41
008004H   008004H   000001H   BYTE   OFFS..   XDATA          ?XD?ML51_XSFR?43
008005H   008005H   000001H   BYTE   OFFS..   XDATA          ?XD?ML51_XSFR?38
008006H   008006H   000001H   BYTE   OFFS..   XDATA          ?XD?ML51_XSFR?40
008007H   008007H   000001H   BYTE   OFFS..   XDATA          ?XD?ML51_XSFR?22
008008H   008008H   000001H   BYTE   OFFS..   XDATA          ?XD?ML51_XSFR?45
008009H   008009H   000001H   BYTE   OFFS..   XDATA          ?XD?ML51_XSFR?47
00800AH   00800AH   000001H   BYTE   OFFS..   XDATA          ?XD?ML51_XSFR?49
00800BH   00800FH   000005H   ---    ---      **GAP**
008010H   008010H   000001H   BYTE   OFFS..   XDATA          ?XD?ML51_XSFR?68
008011H   008011H   000001H   BYTE   OFFS..   XDATA          ?XD?ML51_XSFR?71
008012H   008012H   000001H   BYTE   OFFS..   XDATA          ?XD?ML51_XSFR?75
008013H   008013H   000001H   BYTE   OFFS..   XDATA          ?XD?ML51_XSFR?77
008014H   008014H   000001H   BYTE   OFFS..   XDATA          ?XD?ML51_XSFR?79
008015H   008015H   000001H   BYTE   OFFS..   XDATA          ?XD?ML51_XSFR?80
008016H   008016H   000001H   BYTE   OFFS..   XDATA          ?XD?ML51_XSFR?81
008017H   008017H   000001H   BYTE   OFFS..   XDATA          ?XD?ML51_XSFR?82
008018H   008018H   000001H   BYTE   OFFS..   XDATA          ?XD?ML51_XSFR?83
008019H   008019H   000001H   BYTE   OFFS..   XDATA          ?XD?ML51_XSFR?85
00801AH   00801AH   000001H   BYTE   OFFS..   XDATA          ?XD?ML51_XSFR?7
00801BH   00801BH   000001H   BYTE   OFFS..   XDATA          ?XD?ML51_XSFR?8
00801CH   00801CH   000001H   BYTE   OFFS..   XDATA          ?XD?ML51_XSFR?9
00801DH   00801DH   000001H   BYTE   OFFS..   XDATA          ?XD?ML51_XSFR?10
00801EH   00801EH   000001H   BYTE   OFFS..   XDATA          ?XD?ML51_XSFR?11
00801FH   00801FH   000001H   BYTE   OFFS..   XDATA          ?XD?ML51_XSFR?1
008020H   008020H   000001H   BYTE   OFFS..   XDATA          ?XD?ML51_XSFR?59
008021H   008021H   000001H   BYTE   OFFS..   XDATA          ?XD?ML51_XSFR?60
008022H   008022H   000001H   BYTE   OFFS..   XDATA          ?XD?ML51_XSFR?61
008023H   008023H   000001H   BYTE   OFFS..   XDATA          ?XD?ML51_XSFR?63
008024H   008024H   000001H   BYTE   OFFS..   XDATA          ?XD?ML51_XSFR?65
008025H   008025H   000001H   BYTE   OFFS..   XDATA          ?XD?ML51_XSFR?67
008026H   008026H   000001H   BYTE   OFFS..   XDATA          ?XD?ML51_XSFR?70
008027H   008027H   000001H   BYTE   OFFS..   XDATA          ?XD?ML51_XSFR?74
008028H   008028H   000001H   BYTE   OFFS..   XDATA          ?XD?ML51_XSFR?76
008029H   008029H   000001H   BYTE   OFFS..   XDATA          ?XD?ML51_XSFR?78
00802AH   00802AH   000001H   BYTE   OFFS..   XDATA          ?XD?ML51_XSFR?2
00802BH   00802BH   000001H   BYTE   OFFS..   XDATA          ?XD?ML51_XSFR?3
00802CH   00802CH   000001H   BYTE   OFFS..   XDATA          ?XD?ML51_XSFR?4
00802DH   00802DH   000001H   BYTE   OFFS..   XDATA          ?XD?ML51_XSFR?5
00802EH   00802EH   000001H   BYTE   OFFS..   XDATA          ?XD?ML51_XSFR?6
00802FH   00802FH   000001H   BYTE   OFFS..   XDATA          ?XD?ML51_XSFR?0
008030H   008030H   000001H   BYTE   OFFS..   XDATA          ?XD?ML51_XSFR?12
008031H   008031H   000001H   BYTE   OFFS..   XDATA          ?XD?ML51_XSFR?13
008032H   008032H   000001H   BYTE   OFFS..   XDATA          ?XD?ML51_XSFR?14
008033H   008033H   000001H   BYTE   OFFS..   XDATA          ?XD?ML51_XSFR?15
008034H   008034H   000001H   BYTE   OFFS..   XDATA          ?XD?ML51_XSFR?16
008035H   008035H   000001H   BYTE   OFFS..   XDATA          ?XD?ML51_XSFR?17
008036H   008036H   000001H   BYTE   OFFS..   XDATA          ?XD?ML51_XSFR?18
008037H   008037H   000001H   BYTE   OFFS..   XDATA          ?XD?ML51_XSFR?19
008038H   008038H   000001H   BYTE   OFFS..   XDATA          ?XD?ML51_XSFR?20
008039H   008039H   000001H   BYTE   OFFS..   XDATA          ?XD?ML51_XSFR?21
00803AH   00803AH   000001H   BYTE   OFFS..   XDATA          ?XD?ML51_XSFR?53
00803BH   00803BH   000001H   BYTE   OFFS..   XDATA          ?XD?ML51_XSFR?54
00803CH   00803CH   000001H   BYTE   OFFS..   XDATA          ?XD?ML51_XSFR?55
00803DH   00803DH   000001H   BYTE   OFFS..   XDATA          ?XD?ML51_XSFR?56
00803EH   00803EH   000001H   BYTE   OFFS..   XDATA          ?XD?ML51_XSFR?57
00803FH   00803FH   000001H   ---    ---      **GAP**
008040H   008040H   000001H   BYTE   OFFS..   XDATA          ?XD?ML51_XSFR?23
LX51 LINKER/LOCATER V4.66.97.0                                                        04/28/2025  14:43:25  PAGE 7


008041H   008041H   000001H   BYTE   OFFS..   XDATA          ?XD?ML51_XSFR?24
008042H   008042H   000001H   BYTE   OFFS..   XDATA          ?XD?ML51_XSFR?25
008043H   008043H   000001H   BYTE   OFFS..   XDATA          ?XD?ML51_XSFR?26
008044H   008044H   000001H   BYTE   OFFS..   XDATA          ?XD?ML51_XSFR?27
008045H   008045H   000001H   BYTE   OFFS..   XDATA          ?XD?ML51_XSFR?28
008046H   008046H   000001H   BYTE   OFFS..   XDATA          ?XD?ML51_XSFR?29
008047H   008047H   000001H   BYTE   OFFS..   XDATA          ?XD?ML51_XSFR?30
008048H   008048H   000001H   BYTE   OFFS..   XDATA          ?XD?ML51_XSFR?32
008049H   008049H   000001H   BYTE   OFFS..   XDATA          ?XD?ML51_XSFR?34
00804AH   00804AH   000001H   BYTE   OFFS..   XDATA          ?XD?ML51_XSFR?62
00804BH   00804BH   000001H   BYTE   OFFS..   XDATA          ?XD?ML51_XSFR?64
00804CH   00804CH   000001H   BYTE   OFFS..   XDATA          ?XD?ML51_XSFR?66
00804DH   00804DH   000001H   BYTE   OFFS..   XDATA          ?XD?ML51_XSFR?69
00804EH   00804EH   000001H   BYTE   OFFS..   XDATA          ?XD?ML51_XSFR?73
00804FH   00804FH   000001H   BYTE   OFFS..   XDATA          ?XD?ML51_XSFR?58
008050H   008050H   000001H   BYTE   OFFS..   XDATA          ?XD?ML51_XSFR?36
008051H   008051H   000001H   BYTE   OFFS..   XDATA          ?XD?ML51_XSFR?37
008052H   008052H   000001H   BYTE   OFFS..   XDATA          ?XD?ML51_XSFR?39
008053H   008053H   000001H   BYTE   OFFS..   XDATA          ?XD?ML51_XSFR?42
008054H   008054H   000001H   BYTE   OFFS..   XDATA          ?XD?ML51_XSFR?44
008055H   008055H   000001H   BYTE   OFFS..   XDATA          ?XD?ML51_XSFR?46
008056H   008056H   000001H   BYTE   OFFS..   XDATA          ?XD?ML51_XSFR?48
008057H   008057H   000001H   BYTE   OFFS..   XDATA          ?XD?ML51_XSFR?50
008058H   008058H   000001H   BYTE   OFFS..   XDATA          ?XD?ML51_XSFR?51
008059H   008059H   000001H   BYTE   OFFS..   XDATA          ?XD?ML51_XSFR?52
00805AH   00805AH   000001H   BYTE   OFFS..   XDATA          ?XD?ML51_XSFR?84
00805BH   00805BH   000001H   BYTE   OFFS..   XDATA          ?XD?ML51_XSFR?86
00805CH   00805CH   000001H   BYTE   OFFS..   XDATA          ?XD?ML51_XSFR?87
00805DH   00805DH   000001H   BYTE   OFFS..   XDATA          ?XD?ML51_XSFR?88
00805EH   00805EH   000001H   BYTE   OFFS..   XDATA          ?XD?ML51_XSFR?89
00805FH   00805FH   000001H   BYTE   OFFS..   XDATA          ?XD?ML51_XSFR?72

* * * * * * * * *   R E M O V E D     S E G M E N T S   * * * * * * * *
   *DEL*:           000177H   BYTE   UNIT     CODE           ?PR?TK_RAWDATAVIEW?MAIN
   *DEL*:           000025H   BYTE   UNIT     XDATA          ?XD?TK_RAWDATAVIEW?MAIN
   *DEL*:           000008H   BYTE   UNIT     CODE           ?PR?_GETKEY?TK_DEBUGUART
   *DEL*:           000009H   BYTE   UNIT     CODE           ?PR?TK_MP_CLOSE?TK_MASSPRODUCTION
   *DEL*:           00001CH   BYTE   UNIT     CODE           ?PR?TICKCALLBACK_FINETUNETIMEOUT?TK_MASSPRODUCTION
   *DEL*:           000003H   BYTE   UNIT     XDATA          ?XD?TICKCALLBACK_FINETUNETIMEOUT?TK_MASSPRODUCTION
   *DEL*:           00001DH   BYTE   UNIT     CODE           ?PR?TK_MP_OPEN?TK_MASSPRODUCTION
   *DEL*:           0000D4H   BYTE   UNIT     CODE           ?PR?_TK_MASSPRODUCTION?TK_MASSPRODUCTION
   *DEL*:           000006H   BYTE   UNIT     XDATA          ?XD?_TK_MASSPRODUCTION?TK_MASSPRODUCTION
   *DEL*:           000017H   BYTE   UNIT     CODE           ?PR?_TK_SETMAXSIGNAL?TK_DECTION
   *DEL*:           000037H   BYTE   UNIT     CODE           ?PR?_TK_GETCHANNELTHRESHOLD?TK_DECTION
   *DEL*:           000001H   BYTE   UNIT     XDATA          ?XD?_TK_GETCHANNELTHRESHOLD?TK_DECTION
   *DEL*:           000006H   BYTE   UNIT     CODE           ?PR?TK_CHECKSLIDERPRESSED?TK_DECTION
   *DEL*:           000132H   BYTE   UNIT     CODE           ?PR?_TK_POSITIONPERCENTAGE?TK_DECTION
   *DEL*:           00000FH   BYTE   UNIT     XDATA          ?XD?_TK_POSITIONPERCENTAGE?TK_DECTION
   *DEL*:           0001B9H   BYTE   UNIT     CODE           ?PR?_MAP?TK_DECTION
   *DEL*:           00000DH   BYTE   UNIT     XDATA          ?XD?_MAP?TK_DECTION
   *DEL*:           000025H   BYTE   UNIT     CODE           ?PR?_TK_SLIDERPERCENTAGE?TK_DECTION
   *DEL*:           0000F5H   BYTE   UNIT     CODE           ?PR?_TK_WHEELPERCENTAGE?TK_DECTION
   *DEL*:           000006H   BYTE   UNIT     XDATA          ?XD?_TK_WHEELPERCENTAGE?TK_DECTION
   *DEL*:           000334H   BYTE   UNIT     CODE           ?PR?TK_CALIBRATION_UNTOUCH?TK_DECTION
   *DEL*:           000016H   BYTE   UNIT     XDATA          ?XD?TK_CALIBRATION_UNTOUCH?TK_DECTION
   *DEL*:           000178H   BYTE   UNIT     CODE           ?PR?_TK_CALIBRATION_TOUCH?TK_DECTION
   *DEL*:           00000CH   BYTE   UNIT     XDATA          ?XD?_TK_CALIBRATION_TOUCH?TK_DECTION
   *DEL*:           0000A9H   BYTE   UNIT     CODE           ?PR?TKLIB_TRACKCCB_ALL?TK_DECTION
   *DEL*:           0000FAH   BYTE   UNIT     CODE           ?PR?TK_CALIBRATIONPOWERDOWN?TK_DECTION
   *DEL*:           000007H   BYTE   UNIT     XDATA          ?XD?TK_CALIBRATIONPOWERDOWN?TK_DECTION
   *DEL*:           000007H   BYTE   UNIT     CODE           ?PR?TK_GETNEIGHBORINFOPTR?TK_PARAM
   *DEL*:           000414H   BYTE   UNIT     CODE           ?PR?TK_SAVEPARA?TK_PARAM
   *DEL*:           00001BH   BYTE   UNIT     XDATA          ?XD?TK_SAVEPARA?TK_PARAM
   *DEL*:           000004H   BYTE   UNIT     CONST          ?CO?TK_PARAM
   *DEL*:           000024H   BYTE   UNIT     CODE           ?PR?_FMC_ERASE?TK_FLASH
LX51 LINKER/LOCATER V4.66.97.0                                                        04/28/2025  14:43:25  PAGE 8


   *DEL*:           000051H   BYTE   UNIT     CODE           ?PR?_FMC_WRITE?TK_FLASH
   *DEL*:           000006H   BYTE   UNIT     XDATA          ?XD?_FMC_WRITE?TK_FLASH
   *DEL*:           000056H   BYTE   UNIT     CODE           ?PR?_FMC_WRITE16?TK_FLASH
   *DEL*:           000002H   BYTE   UNIT     XDATA          ?XD?_FMC_WRITE16?TK_FLASH
   *DEL*:           000006H   BYTE   UNIT     CODE           ?PR?_TK_SETREFKEYCAPBANKDATA?TK
   *DEL*:           000023H   BYTE   UNIT     CODE           ?PR?_TK_SETSCANTHRESHOLD?TK
   *DEL*:           00000CH   BYTE   UNIT     XDATA          ?XD?_TK_SETSCANTHRESHOLD?TK
   *DEL*:           000007H   BYTE   UNIT     CODE           ?PR?_TK_ENABLEINT?TK
   *DEL*:           00000CH   BYTE   UNIT     CODE           ?PR?_TK_DISABLEINT?TK
   *DEL*:           000021H   BYTE   UNIT     CODE           ?PR?_TK_DISABLECHANNEL?TK
   *DEL*:           00000AH   BYTE   UNIT     CODE           ?PR?TK_CLEARTKIF?TK
   *DEL*:           000019H   BYTE   UNIT     CODE           ?PR?_TK_ENABLESCANALL?TK
   *DEL*:           000008H   BYTE   UNIT     CODE           ?PR?TK_DISABLESCANALL?TK
   *DEL*:           00000AH   BYTE   UNIT     CODE           ?PR?_LCD_VSOURCE_CONTROL?LCD
   *DEL*:           00002BH   BYTE   UNIT     CODE           ?PR?_LCD_INTERRUPT_INITIAL?LCD
   *DEL*:           00002DH   BYTE   UNIT     CODE           ?PR?_RTC_INTERRUPT_ENABLE?RTC
   *DEL*:           00001BH   BYTE   UNIT     CODE           ?PR?_RTC_INTERRUPT_DISABLE?RTC
   *DEL*:           0000F1H   BYTE   UNIT     CODE           ?PR?_RTC_SETDATE?RTC
   *DEL*:           000007H   BYTE   UNIT     XDATA          ?XD?_RTC_SETDATE?RTC
   *DEL*:           0000EBH   BYTE   UNIT     CODE           ?PR?_RTC_SETTIME?RTC
   *DEL*:           000007H   BYTE   UNIT     XDATA          ?XD?_RTC_SETTIME?RTC
   *DEL*:           0000A7H   BYTE   UNIT     CODE           ?PR?_RTC_SETALARMDATE?RTC
   *DEL*:           000003H   BYTE   UNIT     XDATA          ?XD?_RTC_SETALARMDATE?RTC
   *DEL*:           000095H   BYTE   UNIT     CODE           ?PR?_RTC_SETALARMTIME?RTC
   *DEL*:           000005H   BYTE   UNIT     XDATA          ?XD?_RTC_SETALARMTIME?RTC
   *DEL*:           000470H   BYTE   UNIT     CODE           ?PR?_RTC_GETDATEANDTIME?RTC
   *DEL*:           000007H   BYTE   UNIT     XDATA          ?XD?_RTC_GETDATEANDTIME?RTC
   *DEL*:           000482H   BYTE   UNIT     CODE           ?PR?_RTC_GETALARMDATEANDTIME?RTC
   *DEL*:           000007H   BYTE   UNIT     XDATA          ?XD?_RTC_GETALARMDATEANDTIME?RTC
   *DEL*:           00000EH   BYTE   UNIT     CODE           ?PR?_ADC_INITIALCONTINOUS?ADC
   *DEL*:           000063H   BYTE   UNIT     CODE           ?PR?_ADC_ENABLEHWTRIGGER?ADC
   *DEL*:           000007H   BYTE   UNIT     CODE           ?PR?ADC_DISABLEHWTRIGGER?ADC
   *DEL*:           00002EH   BYTE   UNIT     CODE           ?PR?_ADC_INTERRUPT?ADC
   *DEL*:           00000DH   BYTE   UNIT     CODE           ?PR?_READ_APROM_BYTE?COMMON
   *DEL*:           000006H   BYTE   UNIT     CODE           ?PR?_GLOBAL_INTERRUPT?COMMON
   *DEL*:           00000DH   BYTE   UNIT     CODE           ?PR?_SOFTWARE_RESET?COMMON
   *DEL*:           000009H   BYTE   UNIT     CODE           ?PR?POWERDOWN_MODE?COMMON
   *DEL*:           000000H.1 BIT    UNIT     BIT            ?BI?POWERDOWN_MODE?COMMON
   *DEL*:           000009H   BYTE   UNIT     CODE           ?PR?IDLE_MODE?COMMON
   *DEL*:           000000H.1 BIT    UNIT     BIT            ?BI?IDLE_MODE?COMMON



OVERLAY MAP OF MODULE:   .\Output\NK_ML56SD_LCDTKView (MAIN)


FUNCTION/MODULE                                BIT_GROUP   DATA_GROUP   XDATA_GROUP
--> CALLED FUNCTION/MODULE                    START  STOP  START  STOP  START  STOP
===================================================================================
TIMER2_ISR/TK_SYSTIK                          ----- -----  ----- -----  006BH 006BH

*** NEW ROOT ********************************

?C_C51STARTUP                                 ----- -----  ----- -----  ----- -----
  +--> MAIN/MAIN
  +--> ?C_INITSEG

MAIN/MAIN                                     20H.0 20H.0  ----- -----  006CH 0081H
  +--> UART1_INIT/TK_DEBUGUART
  +--> PRINTF/PRINTF
  +--> INITLEDIO/TK_LED
  +--> FMC_OPEN/TK_FLASH
  +--> _TK_LOADPARA/TK_PARAM
  +--> _SETTKMULTIFUN/TK_MULTPINFUNCTIONS
  +--> INIT_SYSTICK/TK_SYSTIK
LX51 LINKER/LOCATER V4.66.97.0                                                        04/28/2025  14:43:25  PAGE 9


  +--> TICKCALLBACK_KEYSCAN/MAIN
  +--> _TICKSETTICKEVENT/TK_SYSTIK
  +--> LCD_INIT_SETTING/LCDMAIN_NK
  +--> _RTC_CLOCK_SELECT/RTC
  +--> RTC_INITIAL_PAUSE/RTC
  +--> _RTC_TICK_SELECT/RTC
  +--> RTC_INITIAL_RUN/RTC
  +--> TK_INIT/TK_DECTION
  +--> _TK_SCANKEY/TK_DECTION
  +--> TK_LIGHTLED/TK_LED
  +--> _LCDLIB_SETSYMBOL/LCDLIB
  +--> LCD_FRAME1/LCDMAIN_NK
  +--> LCD_FRAME2/LCDMAIN_NK

UART1_INIT/TK_DEBUGUART                       ----- -----  ----- -----  ----- -----
  +--> INITIALUART1_TIMER3/TK_DEBUGUART

INITIALUART1_TIMER3/TK_DEBUGUART              ----- -----  ----- -----  ----- -----

PRINTF/PRINTF                                 20H.1 21H.1  0008H 000CH  0082H 00B1H
  +--> _PUTCHAR/TK_DEBUGUART

_PUTCHAR/TK_DEBUGUART                         ----- -----  ----- -----  ----- -----

INITLEDIO/TK_LED                              ----- -----  ----- -----  ----- -----

FMC_OPEN/TK_FLASH                             ----- -----  ----- -----  ----- -----

_TK_LOADPARA/TK_PARAM                         ----- -----  ----- -----  0082H 009CH
  +--> TK_GETFEATUREPTR/TK_DECTION
  +--> TK_GETKEYINFOPTR/TK_DECTION
  +--> TK_GETTKINFOPTR/TK_DECTION
  +--> TK_STOREADDR/TK_PARAM

TK_GETFEATUREPTR/TK_DECTION                   ----- -----  ----- -----  ----- -----

TK_GETKEYINFOPTR/TK_DECTION                   ----- -----  ----- -----  ----- -----

TK_GETTKINFOPTR/TK_DECTION                    ----- -----  ----- -----  ----- -----

TK_STOREADDR/TK_PARAM                         ----- -----  ----- -----  009DH 00A8H

_SETTKMULTIFUN/TK_MULTPINFUNCTIONS            ----- -----  ----- -----  0082H 008DH
  +--> _TK_GETENABLEDCHANNELMASK/TK_DECTION

_TK_GETENABLEDCHANNELMASK/TK_DECTION          ----- -----  ----- -----  ----- -----

INIT_SYSTICK/TK_SYSTIK                        ----- -----  ----- -----  ----- -----
  +--> _TICKCLEARTICKEVENT/TK_SYSTIK

_TICKCLEARTICKEVENT/TK_SYSTIK                 ----- -----  ----- -----  ----- -----

TICKCALLBACK_KEYSCAN/MAIN                     ----- -----  ----- -----  ----- -----

_TICKSETTICKEVENT/TK_SYSTIK                   ----- -----  ----- -----  0082H 008CH

LCD_INIT_SETTING/LCDMAIN_NK                   ----- -----  ----- -----  ----- -----
  +--> LCD_IO_INIT/LCDMAIN_NK
  +--> _LCD_OPEN/LCD
  +--> _LCD_CLOCK_SETTING/LCD
  +--> _LCD_CURRENT_MODE/LCD
  +--> _LCD_BLINK/LCD
  +--> _LCD_POWERDOWN_DISPLAY/LCD
  +--> LCD_ENABLE/LCD

LX51 LINKER/LOCATER V4.66.97.0                                                        04/28/2025  14:43:25  PAGE 10


LCD_IO_INIT/LCDMAIN_NK                        ----- -----  ----- -----  ----- -----

_LCD_OPEN/LCD                                 ----- -----  ----- -----  0082H 0086H
  +--> LCD_DISABLE/LCD
  +--> _LCD_SETALLPIXELS/LCD

LCD_DISABLE/LCD                               ----- -----  ----- -----  ----- -----

_LCD_SETALLPIXELS/LCD                         ----- -----  ----- -----  ----- -----

_LCD_CLOCK_SETTING/LCD                        ----- -----  ----- -----  ----- -----

_LCD_CURRENT_MODE/LCD                         ----- -----  ----- -----  ----- -----

_LCD_BLINK/LCD                                ----- -----  ----- -----  ----- -----

_LCD_POWERDOWN_DISPLAY/LCD                    ----- -----  ----- -----  ----- -----

LCD_ENABLE/LCD                                ----- -----  ----- -----  ----- -----

_RTC_CLOCK_SELECT/RTC                         ----- -----  ----- -----  ----- -----

RTC_INITIAL_PAUSE/RTC                         ----- -----  ----- -----  ----- -----

_RTC_TICK_SELECT/RTC                          ----- -----  ----- -----  ----- -----
  +--> _RTC_RWEN_?RTC

_RTC_RWEN_?RTC                                ----- -----  ----- -----  ----- -----

RTC_INITIAL_RUN/RTC                           ----- -----  ----- -----  ----- -----

TK_INIT/TK_DECTION                            ----- -----  ----- -----  0082H 0085H
  +--> TK_OPEN/TK
  +--> _TK_ENABLESHIELDING/TK_DECTION
  +--> _TK_SETREFERENCECHANNEL/TK
  +--> _TK_ENABLETKPOLARITY/TK
  +--> _TK_SETTKPOL/TK
  +--> _TK_SETCAPBANKPOL/TK
  +--> _TK_CONFIGSENSITIVITY/TK

TK_OPEN/TK                                    ----- -----  ----- -----  0086H 0088H

_TK_ENABLESHIELDING/TK_DECTION                ----- -----  ----- -----  00B4H 00B5H
  +--> _TK_SETTKPOL/TK
  +--> _TK_ENABLETKPOLARITY/TK

_TK_SETTKPOL/TK                               ----- -----  ----- -----  00B6H 00C4H

_TK_ENABLETKPOLARITY/TK                       ----- -----  ----- -----  00B6H 00BEH

_TK_SETREFERENCECHANNEL/TK                    ----- -----  ----- -----  ----- -----

_TK_SETCAPBANKPOL/TK                          ----- -----  ----- -----  0086H 0089H

_TK_CONFIGSENSITIVITY/TK                      ----- -----  ----- -----  0086H 0091H

_TK_SCANKEY/TK_DECTION                        ----- -----  ----- -----  0082H 0094H
  +--> TK_GETTKINFOPTR/TK_DECTION
  +--> _FINDTUNEREFCB_CCB/TK_DECTION
  +--> _TK_KEYDETECTION/TK_DECTION
  +--> _TK_FINDMAXTWO/TK_DECTION
  +--> _TK_DEBOUNCECHANNEL/TK_DEBOUNCE
  +--> _TK_UPDATEBASELINETMP/TK_DECTION

_FINDTUNEREFCB_CCB/TK_DECTION                 ----- -----  ----- -----  0095H 009FH
LX51 LINKER/LOCATER V4.66.97.0                                                        04/28/2025  14:43:25  PAGE 11


  +--> _TK_KEYDETECTION/TK_DECTION

_TK_KEYDETECTION/TK_DECTION                   ----- -----  ----- -----  00A0H 00B3H
  +--> TK_GETTKINFOPTR/TK_DECTION
  +--> _TK_ENABLESHIELDING/TK_DECTION
  +--> _TK_KEYSIGNALPOSITIVE/TK_DECTION
  +--> _TK_KEYSIGNALNEGATIVE/TK_DECTION
  +--> _TK_DISABLESHIELDING/TK_DECTION
  +--> _TK_DEBOUNCE/TK_DEBOUNCE
  +--> _TK_BASELINETRACK/TK_TRACKBASELINE

_TK_KEYSIGNALPOSITIVE/TK_DECTION              ----- -----  ----- -----  00B4H 00B8H
  +--> _TK_SETREFCAPBANKDATA/TK
  +--> TK_DISABLEALLCHANNEL/TK
  +--> _TK_ENABLECHANNEL/TK
  +--> _TK_SETCOMPCAPBANKDATA/TK
  +--> _TKLIB_TRACKCCB/TK_DECTION

_TK_SETREFCAPBANKDATA/TK                      ----- -----  ----- -----  00B9H 00C0H

TK_DISABLEALLCHANNEL/TK                       ----- -----  ----- -----  ----- -----

_TK_ENABLECHANNEL/TK                          ----- -----  ----- -----  ----- -----

_TK_SETCOMPCAPBANKDATA/TK                     ----- -----  ----- -----  00B9H 00C0H

_TKLIB_TRACKCCB/TK_DECTION                    ----- -----  ----- -----  00B9H 00BCH
  +--> _TK_GET_SENSE_DATA/TK

_TK_GET_SENSE_DATA/TK                         ----- -----  ----- -----  ----- -----

_TK_KEYSIGNALNEGATIVE/TK_DECTION              ----- -----  ----- -----  00B4H 00B8H
  +--> _TK_SETREFCAPBANKDATA/TK
  +--> TK_DISABLEALLCHANNEL/TK
  +--> _TK_ENABLECHANNEL/TK
  +--> _TK_SETCOMPCAPBANKDATA/TK
  +--> _TKLIB_TRACKCCB/TK_DECTION

_TK_DISABLESHIELDING/TK_DECTION               ----- -----  ----- -----  00B4H 00B4H
  +--> _TK_SETTKPOL/TK
  +--> _TK_DISABLETKPOLARITY/TK

_TK_DISABLETKPOLARITY/TK                      ----- -----  ----- -----  00B5H 00BFH

_TK_DEBOUNCE/TK_DEBOUNCE                      ----- -----  ----- -----  00B4H 00B5H
  +--> TK_GETTKINFOPTR/TK_DECTION

_TK_BASELINETRACK/TK_TRACKBASELINE            ----- -----  ----- -----  00B4H 00B5H

_TK_FINDMAXTWO/TK_DECTION                     ----- -----  ----- -----  0095H 00A4H

_TK_DEBOUNCECHANNEL/TK_DEBOUNCE               ----- -----  ----- -----  ----- -----

_TK_UPDATEBASELINETMP/TK_DECTION              ----- -----  ----- -----  0095H 0099H
  +--> _TK_CHECKSLIDERWHEELPRESSED/TK_DECTION
  +--> _TK_UPDATEBASELINE/TK_TRACKBASELINE

_TK_CHECKSLIDERWHEELPRESSED/TK_DECTION        ----- -----  ----- -----  009AH 00A4H
  +--> TK_GETTKINFOPTR/TK_DECTION

_TK_UPDATEBASELINE/TK_TRACKBASELINE           ----- -----  ----- -----  009AH 00ABH
  +--> TK_GETKEYINFOPTR/TK_DECTION
  +--> TK_GETTKINFOPTR/TK_DECTION

TK_LIGHTLED/TK_LED                            20H.1 20H.1  ----- -----  0082H 0084H
LX51 LINKER/LOCATER V4.66.97.0                                                        04/28/2025  14:43:25  PAGE 12



_LCDLIB_SETSYMBOL/LCDLIB                      ----- -----  ----- -----  0086H 0095H
  +--> _LCD_SETONEPIXEL/LCD

_LCD_SETONEPIXEL/LCD                          ----- -----  ----- -----  ----- -----

LCD_FRAME1/LCDMAIN_NK                         ----- -----  ----- -----  0082H 0085H
  +--> _LCD_SETONEPIXEL/LCD
  +--> _LCDLIB_SETSYMBOL/LCDLIB
  +--> _LCDLIB_PRINTF/LCDLIB
  +--> _LCDLIB_PRINTNUMBER/LCDLIB
  +--> INTERNAL_TEMPERATURE/ADC_VTEMP

_LCDLIB_PRINTF/LCDLIB                         ----- -----  ----- -----  0086H 00A6H
  +--> _STRLEN/STRLEN
  +--> _LCD_SETONEPIXEL/LCD

_STRLEN/STRLEN                                ----- -----  ----- -----  ----- -----

_LCDLIB_PRINTNUMBER/LCDLIB                    ----- -----  ----- -----  0086H 00A7H
  +--> _LCD_SETONEPIXEL/LCD

INTERNAL_TEMPERATURE/ADC_VTEMP                ----- -----  ----- -----  0086H 008FH
  +--> _VREF_OPEN/VREF
  +--> _ADC_OPEN/ADC
  +--> _ADC_SAMPLINGTIME/ADC
  +--> READ_BANDGAP/ADC
  +--> _ABS/ABS
  +--> ADC_CLOSE/ADC
  +--> VREF_DISABLE/VREF

_VREF_OPEN/VREF                               ----- -----  0008H 000BH  ----- -----
  +--> _VREF_RELOAD/VREF

_VREF_RELOAD/VREF                             ----- -----  ----- -----  ----- -----

_ADC_OPEN/ADC                                 ----- -----  ----- -----  ----- -----

_ADC_SAMPLINGTIME/ADC                         ----- -----  ----- -----  ----- -----

READ_BANDGAP/ADC                              ----- -----  ----- -----  ----- -----

_ABS/ABS                                      ----- -----  ----- -----  ----- -----

ADC_CLOSE/ADC                                 ----- -----  ----- -----  ----- -----

VREF_DISABLE/VREF                             ----- -----  ----- -----  ----- -----

LCD_FRAME2/LCDMAIN_NK                         ----- -----  ----- -----  ----- -----
  +--> _LCDLIB_SETSYMBOL/LCDLIB
  +--> _LCDLIB_PRINTF/LCDLIB
  +--> _LCDLIB_PRINTNUMBER/LCDLIB

?C_INITSEG                                    ----- -----  ----- -----  ----- -----



PUBLIC SYMBOLS OF MODULE:  .\Output\NK_ML56SD_LCDTKView (MAIN)


      VALUE       CLASS    TYPE      PUBLIC SYMBOL NAME
      =================================================
*DEL*:00000000H   XDATA    BYTE      ?_FMC_Write?BYTE
      02000082H   XDATA    BYTE      ?_LCD_Open?BYTE
      02000086H   XDATA    BYTE      ?_LCDLIB_PrintNumber?BYTE
LX51 LINKER/LOCATER V4.66.97.0                                                        04/28/2025  14:43:25  PAGE 13


      02000086H   XDATA    BYTE      ?_LCDLIB_SetSymbol?BYTE
      02000082H   XDATA    ---       ?_PRINTF?BYTE
*DEL*:00000000H   XDATA    BYTE      ?_RTC_SetAlarmTime?BYTE
*DEL*:00000000H   XDATA    BYTE      ?_RTC_SetDate?BYTE
*DEL*:00000000H   XDATA    BYTE      ?_RTC_SetTime?BYTE
      02000082H   XDATA    ---       ?_SPRINTF?BYTE
      02000086H   XDATA    BYTE      ?_TK_ConfigSensitivity?BYTE
      02000095H   XDATA    BYTE      ?_TK_FindMaxTwo?BYTE
*DEL*:00000000H   XDATA    BYTE      ?_TK_PositionPercentage?BYTE
      020000B9H   XDATA    BYTE      ?_TK_SetCompCapBankData?BYTE
      020000B9H   XDATA    BYTE      ?_TK_SetRefCapBankData?BYTE
*DEL*:00000000H   XDATA    BYTE      ?_TK_SetScanThreshold?BYTE
      020000B6H   XDATA    BYTE      ?_TK_SetTkPol?BYTE
      0200009AH   XDATA    BYTE      ?_TK_UpdateBaseLine?BYTE
      0100030AH   CODE     ---       ?C?CASTF
      01000B54H   CODE     ---       ?C?CCASE
      0100069BH   CODE     ---       ?C?CILDOPTR
      01000679H   CODE     ---       ?C?CILDPTR
      0100064CH   CODE     ---       ?C?CLDOPTR
      01000633H   CODE     ---       ?C?CLDPTR
      00000000H   NUMBER   ---       ?C?CODESEG
      0100060DH   CODE     ---       ?C?COPY
      010006E0H   CODE     ---       ?C?CSTOPTR
      010006CEH   CODE     ---       ?C?CSTPTR
      010002D6H   CODE     ---       ?C?FCASTC
      010002D1H   CODE     ---       ?C?FCASTI
      010002CCH   CODE     ---       ?C?FCASTL
      01000035H   CODE     ---       ?C?FPADD
      010003C8H   CODE     ---       ?C?FPCONVERT
      0100022FH   CODE     ---       ?C?FPDIV
      01000341H   CODE     ---       ?C?FPGETOPN2
      01000126H   CODE     ---       ?C?FPMUL
      01000376H   CODE     ---       ?C?FPNANRESULT
      01000380H   CODE     ---       ?C?FPOVERFLOW
      01000358H   CODE     ---       ?C?FPRESULT
      0100036CH   CODE     ---       ?C?FPRESULT2
      0100038BH   CODE     ---       ?C?FPROUND
      01000031H   CODE     ---       ?C?FPSUB
      0100037DH   CODE     ---       ?C?FPUNDERFLOW
      010004FDH   CODE     ---       ?C?FTNPWR
      01000BB4H   CODE     ---       ?C?ICALL
      01000BB8H   CODE     ---       ?C?ICALL2
      0100079FH   CODE     ---       ?C?IILDX
      010007B5H   CODE     ---       ?C?ILDOPTR
      01000702H   CODE     ---       ?C?IMUL
      010007EDH   CODE     ---       ?C?ISTPTR
      0100080CH   CODE     ---       ?C?LADD
      01000936H   CODE     ---       ?C?LAND
      01000B7AH   CODE     ---       ?C?LCASE
      01000A52H   CODE     ---       ?C?LLDCODE
      01000BECH   CODE     ---       ?C?LLDCODE0
      01000BBAH   CODE     ---       ?C?LLDIDATA
      01000BD2H   CODE     ---       ?C?LLDIDATA0
      010009D8H   CODE     ---       ?C?LLDOPTR
      01000A8EH   CODE     ---       ?C?LLDOPTR0
      01000BC6H   CODE     ---       ?C?LLDPDATA
      01000BDFH   CODE     ---       ?C?LLDPDATA0
      010009B8H   CODE     ---       ?C?LLDPTR
      01000A6EH   CODE     ---       ?C?LLDPTR0
      01000A46H   CODE     ---       ?C?LLDXDATA
      01000A62H   CODE     ---       ?C?LLDXDATA0
      01000819H   CODE     ---       ?C?LMUL
      0100095DH   CODE     ---       ?C?LNEG
      01000950H   CODE     ---       ?C?LNOT
      01000943H   CODE     ---       ?C?LOR
LX51 LINKER/LOCATER V4.66.97.0                                                        04/28/2025  14:43:25  PAGE 14


      010009A5H   CODE     ---       ?C?LSHL
      01000BFCH   CODE     ---       ?C?LSTIDATA
      01000C14H   CODE     ---       ?C?LSTKIDATA
      01000AFBH   CODE     ---       ?C?LSTKOPTR
      01000C2DH   CODE     ---       ?C?LSTKPDATA
      01000ACAH   CODE     ---       ?C?LSTKXDATA
      01000A22H   CODE     ---       ?C?LSTOPTR
      01000C08H   CODE     ---       ?C?LSTPDATA
      01000A08H   CODE     ---       ?C?LSTPTR
      01000ABEH   CODE     ---       ?C?LSTXDATA
      01000B1FH   CODE     ---       ?C?OFFXADD
      01000B34H   CODE     ---       ?C?PLDIXDATA
      01000B2BH   CODE     ---       ?C?PLDXDATA
      01000B4BH   CODE     ---       ?C?PSTXDATA
      01000769H   CODE     ---       ?C?SIDIV
      0100096BH   CODE     ---       ?C?SLCMP
      01000714H   CODE     ---       ?C?UIDIV
      01000981H   CODE     ---       ?C?ULCMP
      010008A4H   CODE     ---       ?C?ULDIV
      01000992H   CODE     ---       ?C?ULSHR
      00000000H   NUMBER   ---       ?C?XDATASEG
      010046CAH   CODE     ---       ?C_START
      01000000H   CODE     ---       ?C_STARTUP
*DEL*:00000000H.0 BIT      BIT       ?Idle_Mode?BIT
*DEL*:00000000H.0 BIT      BIT       ?PowerDown_Mode?BIT
      00000020H.1 BIT      BIT       ?TK_lightLED?BIT
      02000082H   XDATA    BYTE      ?TK_lightLED?BYTE
      02000069H   XDATA    BYTE      __gu8FirstTimeScan
      01004F7FH   CODE     ---       _ABS
*DEL*:00000000H   CODE     ---       _ADC_EnableHWTrigger
*DEL*:00000000H   CODE     ---       _ADC_InitialContinous
*DEL*:00000000H   CODE     ---       _ADC_Interrupt
      01002804H   CODE     ---       _ADC_Open
      01004E5FH   CODE     ---       _ADC_SamplingTime
      0100386BH   CODE     ---       _FindTuneREFCB_CCB
*DEL*:00000000H   CODE     ---       _FMC_Erase
*DEL*:00000000H   CODE     ---       _FMC_Write
*DEL*:00000000H   CODE     ---       _FMC_Write16
*DEL*:00000000H   CODE     ---       _getkey
*DEL*:00000000H   CODE     ---       _Global_Interrupt
      01004F30H   CODE     ---       _LCD_Blink
      01004DAAH   CODE     ---       _LCD_Clock_Setting
      01004C4DH   CODE     ---       _LCD_Current_Mode
*DEL*:00000000H   CODE     ---       _LCD_Interrupt_Initial
      01004BC1H   CODE     ---       _LCD_Open
      01004E43H   CODE     ---       _LCD_PowerDown_Display
      01004DCAH   CODE     ---       _LCD_SetAllPixels
      01000003H   CODE     ---       _LCD_SetOnePixel
*DEL*:00000000H   CODE     ---       _LCD_VSource_Control
      01001CDCH   CODE     ---       _LCDLIB_Printf
      0100248FH   CODE     ---       _LCDLIB_PrintNumber
      01004830H   CODE     ---       _LCDLIB_SetSymbol
*DEL*:00000000H   CODE     ---       _map
      01001471H   CODE     ---       _PRINTF
      01004EE9H   CODE     ---       _putchar
*DEL*:00000000H   CODE     ---       _Read_APROM_BYTE
      01004EA9H   CODE     ---       _RTC_Clock_Select
*DEL*:00000000H   CODE     ---       _RTC_GetAlarmDateAndTime
*DEL*:00000000H   CODE     ---       _RTC_GetDateAndTime
*DEL*:00000000H   CODE     ---       _RTC_Interrupt_Disable
*DEL*:00000000H   CODE     ---       _RTC_Interrupt_Enable
      01004FBFH   CODE     ---       _RTC_RWEN_
*DEL*:00000000H   CODE     ---       _RTC_SetAlarmDate
*DEL*:00000000H   CODE     ---       _RTC_SetAlarmTime
*DEL*:00000000H   CODE     ---       _RTC_SetDate
LX51 LINKER/LOCATER V4.66.97.0                                                        04/28/2025  14:43:25  PAGE 15


*DEL*:00000000H   CODE     ---       _RTC_SetTime
      01004F20H   CODE     ---       _RTC_Tick_Select
      01003037H   CODE     ---       _SetTkMultiFun
*DEL*:00000000H   CODE     ---       _Software_Reset
      0100146BH   CODE     ---       _SPRINTF
      01004ED4H   CODE     ---       _STRLEN
      020000F9H   XDATA    BYTE      _sys_uTime0EventCount
      01004CC5H   CODE     ---       _TickClearTickEvent
      01003D75H   CODE     ---       _TickSetTickEvent
      010043B4H   CODE     ---       _TK_BaseLineTrack
*DEL*:00000000H   CODE     ---       _TK_Calibration_Touch
      0100407AH   CODE     ---       _TK_CheckSliderWheelPressed
      01004B69H   CODE     ---       _TK_ConfigSensitivity
      01003B04H   CODE     ---       _TK_Debounce
      01004D2CH   CODE     ---       _TK_DebounceChannel
*DEL*:00000000H   CODE     ---       _TK_DisableChannel
*DEL*:00000000H   CODE     ---       _TK_DisableInt
      01004B0EH   CODE     ---       _TK_DisableShielding
      0100470FH   CODE     ---       _TK_DisableTkPolarity
      01004E7AH   CODE     ---       _TK_EnableChannel
*DEL*:00000000H   CODE     ---       _TK_EnableInt
*DEL*:00000000H   CODE     ---       _TK_EnableScanAll
      0100451EH   CODE     ---       _TK_EnableShielding
      0100493DH   CODE     ---       _TK_EnableTkPolarity
      01003E99H   CODE     ---       _TK_FindMaxTwo
      01004EBFH   CODE     ---       _TK_GET_SENSE_DATA
*DEL*:00000000H   CODE     ---       _TK_GetChannelThreshold
      010048B8H   CODE     ---       _TK_GetEnabledChannelMask
      01002119H   CODE     ---       _TK_KeyDetection
      0100415DH   CODE     ---       _TK_KeySignalNegative
      01003712H   CODE     ---       _TK_KeySignalPositive
      01001889H   CODE     ---       _TK_LoadPara
*DEL*:00000000H   CODE     ---       _TK_MassProduction
*DEL*:00000000H   CODE     ---       _TK_PositionPercentage
      01002D9BH   CODE     ---       _TK_ScanKey
      01004D87H   CODE     ---       _TK_SetCapBankPol
      01004E27H   CODE     ---       _TK_SetCompCapBankData
*DEL*:00000000H   CODE     ---       _TK_SetMaxSignal
      01004E92H   CODE     ---       _TK_SetRefCapBankData
      01004DEAH   CODE     ---       _TK_SetReferenceChannel
*DEL*:00000000H   CODE     ---       _TK_SetRefKeyCapBankData
*DEL*:00000000H   CODE     ---       _TK_SetScanThreshold
      0100423BH   CODE     ---       _TK_SetTkPol
*DEL*:00000000H   CODE     ---       _TK_SliderPercentage
      01002ADEH   CODE     ---       _TK_UpdateBaseLine
*DEL*:00000000H   CODE     ---       _TK_WheelPercentage
      0100446BH   CODE     ---       _TKLIB_TrackCCB
      01004A9FH   CODE     ---       _VREF_Open
      010042F9H   CODE     ---       _VREF_Reload
*SFR* 000000C0H.2 DATA     BIT       AA0
*SFR* 000000E8H.2 DATA     BIT       AA1
*SFR* 000000D0H.6 DATA     BIT       AC
*SFR* 000000E0H   DATA     BYTE      ACC
*SFR* 000000D2H   DATA     BYTE      ACMPCR0
*SFR* 000000D3H   DATA     BYTE      ACMPCR1
*SFR* 000000ABH   DATA     BYTE      ACMPCR2
*SFR* 000000D4H   DATA     BYTE      ACMPSR
*SFR* 000000D5H   DATA     BYTE      ACMPVREF
      01004FB8H   CODE     ---       ADC_Close
*DEL*:00000000H   CODE     ---       ADC_DisableHWTrigger
*SFR* 000000E4H   DATA     BYTE      ADCBAH
*SFR* 000000CBH   DATA     BYTE      ADCBAL
*SFR* 000000E5H   DATA     BYTE      ADCCAL
*SFR* 000000E6H   DATA     BYTE      ADCCN
*SFR* 000000A1H   DATA     BYTE      ADCCON0
LX51 LINKER/LOCATER V4.66.97.0                                                        04/28/2025  14:43:25  PAGE 16


*SFR* 000000E1H   DATA     BYTE      ADCCON1
*SFR* 000000E2H   DATA     BYTE      ADCCON2
*SFR* 000000E3H   DATA     BYTE      ADCDLY
*SFR* 000000CFH   DATA     BYTE      ADCMPH
*SFR* 000000CEH   DATA     BYTE      ADCMPL
*SFR* 000000C3H   DATA     BYTE      ADCRH
*SFR* 000000C2H   DATA     BYTE      ADCRL
*SFR* 000000E5H   DATA     BYTE      ADCSN
*SFR* 000000E7H   DATA     BYTE      ADCSR
*SFR* 000000A0H.5 DATA     BIT       AIN0
*SFR* 000000A0H.4 DATA     BIT       AIN1
*SFR* 000000A0H.3 DATA     BIT       AIN2
*SFR* 000000A0H.2 DATA     BIT       AIN3
*SFR* 000000A0H.1 DATA     BIT       AIN4
*SFR* 000000A0H.0 DATA     BIT       AIN5
*SFR* 000000B0H.1 DATA     BIT       AIN6
*SFR* 000000B0H.2 DATA     BIT       AIN7
*SFR* 000000CEH   DATA     BYTE      AINDIDS0
*SFR* 000000CEH   DATA     BYTE      AINDIDS1
*SFR* 000000A2H   DATA     BYTE      AUXR0
*SFR* 000000C9H   DATA     BYTE      AUXR1
*SFR* 000000CFH   DATA     BYTE      AUXR3
*SFR* 000000F0H   DATA     BYTE      B
      00000021H.2 BIT      BIT       BIT_TMP
*SFR* 000000A3H   DATA     BYTE      BODCON0
*SFR* 000000ABH   DATA     BYTE      BODCON1
*SFR* 000000E4H   DATA     BYTE      BRCTRIM
      0000000DH   DATA     BYTE      BYTE_TMP
*SFR* 000000E5H   DATA     BYTE      C0H
*SFR* 000000E4H   DATA     BYTE      C0L
*SFR* 000000E7H   DATA     BYTE      C1H
*SFR* 000000E6H   DATA     BYTE      C1L
*SFR* 000000EEH   DATA     BYTE      C2H
*SFR* 000000EDH   DATA     BYTE      C2L
*SFR* 000000E1H   DATA     BYTE      CAPCON0
*SFR* 000000E2H   DATA     BYTE      CAPCON1
*SFR* 000000E3H   DATA     BYTE      CAPCON2
*SFR* 0000009FH   DATA     BYTE      CHPCON
*SFR* 0000008EH   DATA     BYTE      CKCON
*SFR* 000000C1H   DATA     BYTE      CKDIV
*SFR* 00000097H   DATA     BYTE      CKEN
*SFR* 00000096H   DATA     BYTE      CKSWT
*SFR* 000000C8H.0 DATA     BIT       CM_RL2
*SFR* 000000BEH   DATA     BYTE      CWKH
*SFR* 00000086H   DATA     BYTE      CWKL
*SFR* 000000D0H.7 DATA     BIT       CY
*SFR* 000000F6H   DATA     BYTE      DMA0BAH
*SFR* 00000095H   DATA     BYTE      DMA0CCNT
*SFR* 00000094H   DATA     BYTE      DMA0CNT
*SFR* 00000092H   DATA     BYTE      DMA0CR0
*SFR* 0000008AH   DATA     BYTE      DMA0CR1
*SFR* 00000092H   DATA     BYTE      DMA0CRC
*SFR* 00000093H   DATA     BYTE      DMA0MAL
*SFR* 0000009AH   DATA     BYTE      DMA0SEED
*SFR* 000000E9H   DATA     BYTE      DMA0TSR
*SFR* 000000FDH   DATA     BYTE      DMA1BAH
*SFR* 000000EEH   DATA     BYTE      DMA1CCNT
*SFR* 000000EDH   DATA     BYTE      DMA1CNT
*SFR* 000000EBH   DATA     BYTE      DMA1CR0
*SFR* 0000008BH   DATA     BYTE      DMA1CR1
*SFR* 00000093H   DATA     BYTE      DMA1CRC
*SFR* 000000ECH   DATA     BYTE      DMA1MAL
*SFR* 0000009BH   DATA     BYTE      DMA1SEED
*SFR* 000000F1H   DATA     BYTE      DMA1TSR
*SFR* 000000B2H   DATA     BYTE      DMA2BAH
LX51 LINKER/LOCATER V4.66.97.0                                                        04/28/2025  14:43:25  PAGE 17


*SFR* 000000B6H   DATA     BYTE      DMA2CCNT
*SFR* 000000B5H   DATA     BYTE      DMA2CNT
*SFR* 000000B3H   DATA     BYTE      DMA2CR0
*SFR* 0000008CH   DATA     BYTE      DMA2CR1
*SFR* 00000094H   DATA     BYTE      DMA2CRC
*SFR* 000000B4H   DATA     BYTE      DMA2MAL
*SFR* 0000009CH   DATA     BYTE      DMA2SEED
*SFR* 000000B1H   DATA     BYTE      DMA2TSR
*SFR* 000000AAH   DATA     BYTE      DMA3BAH
*SFR* 000000AEH   DATA     BYTE      DMA3CCNT
*SFR* 000000ADH   DATA     BYTE      DMA3CNT
*SFR* 000000ABH   DATA     BYTE      DMA3CR0
*SFR* 0000008DH   DATA     BYTE      DMA3CR1
*SFR* 00000095H   DATA     BYTE      DMA3CRC
*SFR* 000000ACH   DATA     BYTE      DMA3MAL
*SFR* 0000009DH   DATA     BYTE      DMA3SEED
*SFR* 000000A9H   DATA     BYTE      DMA3TSR
*SFR* 00000083H   DATA     BYTE      DPH
*SFR* 00000082H   DATA     BYTE      DPL
*SFR* 000000A8H.7 DATA     BIT       EA
*SFR* 000000A8H.6 DATA     BIT       EADC
*SFR* 000000A8H.5 DATA     BIT       EBOD
*SFR* 0000009BH   DATA     BYTE      EIE0
*SFR* 0000009CH   DATA     BYTE      EIE1
*SFR* 000000EFH   DATA     BYTE      EIP0
*SFR* 000000FEH   DATA     BYTE      EIP1
*SFR* 000000ACH   DATA     BYTE      EIP2
*SFR* 000000F7H   DATA     BYTE      EIPH0
*SFR* 000000FFH   DATA     BYTE      EIPH1
*SFR* 000000ADH   DATA     BYTE      EIPH2
*SFR* 000000A8H.4 DATA     BIT       ES
*SFR* 000000A8H.1 DATA     BIT       ET0
*SFR* 000000A8H.3 DATA     BIT       ET1
*SFR* 000000A8H.0 DATA     BIT       EX0
*SFR* 000000A8H.2 DATA     BIT       EX1
*SFR* 000000D0H.5 DATA     BIT       F0
*SFR* 00000098H.7 DATA     BIT       FE
*SFR* 000000F8H.7 DATA     BIT       FE_1
      01004D5BH   CODE     ---       FMC_Open
      020004AFH   XDATA    BYTE      g_u8IsPress
      020002F0H   XDATA    BYTE      g_u8MainState
      02000155H   XDATA    BYTE      gbIsFineTuneDone
      02000156H   XDATA    BYTE      gFineTuneDoneTimeOut
*SFR* 000000C1H   DATA     BYTE      I2C0ADDR0
*SFR* 000000A1H   DATA     BYTE      I2C0ADDR1
*SFR* 000000A2H   DATA     BYTE      I2C0ADDR2
*SFR* 000000A3H   DATA     BYTE      I2C0ADDR3
*SFR* 000000CFH   DATA     BYTE      I2C0ADDRM
*SFR* 000000BEH   DATA     BYTE      I2C0CLK
*SFR* 000000C0H   DATA     BYTE      I2C0CON
*SFR* 000000BCH   DATA     BYTE      I2C0DAT
*SFR* 000000C0H.0 DATA     BIT       I2C0PX
*SFR* 000000BDH   DATA     BYTE      I2C0STAT
*SFR* 000000BFH   DATA     BYTE      I2C0TOC
*SFR* 000000B2H   DATA     BYTE      I2C1ADDR0
*SFR* 000000A4H   DATA     BYTE      I2C1ADDR1
*SFR* 000000A5H   DATA     BYTE      I2C1ADDR2
*SFR* 000000A6H   DATA     BYTE      I2C1ADDR3
*SFR* 000000D7H   DATA     BYTE      I2C1ADDRM
*SFR* 000000B5H   DATA     BYTE      I2C1CLK
*SFR* 000000E8H   DATA     BYTE      I2C1CON
*SFR* 000000B3H   DATA     BYTE      I2C1DAT
*SFR* 000000B4H   DATA     BYTE      I2C1STAT
*SFR* 000000B6H   DATA     BYTE      I2C1TOC
*SFR* 000000C0H.6 DATA     BIT       I2CEN0
LX51 LINKER/LOCATER V4.66.97.0                                                        04/28/2025  14:43:25  PAGE 18


*SFR* 000000E8H.6 DATA     BIT       I2CEN1
*SFR* 000000E8H.0 DATA     BIT       I2CPX1
      02000021H   XDATA    BYTE      i8ClampBoardSignal
      020002F1H   XDATA    CHAR      i8KeyScanId
      02000154H   XDATA    CHAR      i8MpTickEventID
      02000253H   XDATA    ---       i8ProcessSigLvl
      020003B6H   XDATA    CHAR      i8SliderPercentage
      02000499H   XDATA    CHAR      i8WheelPercentage
*SFR* 000000A7H   DATA     BYTE      IAPAH
*SFR* 000000A6H   DATA     BYTE      IAPAL
*SFR* 000000AFH   DATA     BYTE      IAPCN
*SFR* 000000AEH   DATA     BYTE      IAPFD
*SFR* 000000A4H   DATA     BYTE      IAPTRG
*SFR* 000000A5H   DATA     BYTE      IAPUEN
*DEL*:00000000H   CODE     ---       Idle_Mode
*SFR* 000000A8H   DATA     BYTE      IE
*SFR* 00000088H.1 DATA     BIT       IE0
*SFR* 00000088H.3 DATA     BIT       IE1
      01004C09H   CODE     ---       Init_SysTick
      01004F10H   CODE     ---       InitialUART1_Timer3
      01004F73H   CODE     ---       InitLEDIO
      01003C43H   CODE     ---       internal_Temperature
*SFR* 000000B8H   DATA     BYTE      IP
*SFR* 000000B7H   DATA     BYTE      IPH
*SFR* 00000088H.0 DATA     BIT       IT0
*SFR* 00000088H.2 DATA     BIT       IT1
      01004FB1H   CODE     ---       LCD_Disable
      01004FAAH   CODE     ---       LCD_Enable
      01003F8BH   CODE     ---       LCD_frame1
      010045CBH   CODE     ---       LCD_frame2
      01004CF9H   CODE     ---       LCD_Init_Setting
      010039BFH   CODE     ---       LCD_IO_Init
*SFR* 000000FEH   DATA     BYTE      LCDBL
*SFR* 000000FAH   DATA     BYTE      LCDCLK
*SFR* 000000F9H   DATA     BYTE      LCDCON0
*SFR* 000000F4H   DATA     BYTE      LCDCON1
*SFR* 000000F5H   DATA     BYTE      LCDCPALCT0
*SFR* 000000E9H   DATA     BYTE      LCDCPALCT1
*SFR* 000000F6H   DATA     BYTE      LCDCPCT0
*SFR* 000000EAH   DATA     BYTE      LCDCPCT1
*SFR* 000000F1H   DATA     BYTE      LCDCPUMP
*SFR* 000000FCH   DATA     BYTE      LCDDAT
*SFR* 000000FFH   DATA     BYTE      LCDMODE
*SFR* 000000FBH   DATA     BYTE      LCDPTR
*SFR* 000000FDH   DATA     BYTE      LCDPWR
*SFR* 000000EFH   DATA     BYTE      LDOTRIM
*SFR* 00000084H   DATA     BYTE      LIRCTRIM
*SFR* 000000FFH   DATA     BYTE      LVRDIS
*SFR* 000000FDH   DATA     BYTE      LVRFLTEN
      01003424H   CODE     ---       main
*SFR* 000000EAH   DATA     BYTE      MTM0DAL
*SFR* 000000F2H   DATA     BYTE      MTM1DAL
*SFR* 000000B7H   DATA     BYTE      MTM2DAL
*SFR* 000000AFH   DATA     BYTE      MTM3DAL
*SFR* 000000D0H.2 DATA     BIT       OV
*SFR* 000000D0H.0 DATA     BIT       P
*SFR* 00000080H   DATA     BYTE      P0
*SFR* 00000080H.0 DATA     BIT       P00
*SFR* 00000080H.1 DATA     BIT       P01
*SFR* 00000080H.2 DATA     BIT       P02
*SFR* 00000080H.3 DATA     BIT       P03
*SFR* 00000080H.4 DATA     BIT       P04
*SFR* 00000080H.5 DATA     BIT       P05
*SFR* 00000080H.6 DATA     BIT       P06
*SFR* 00000080H.7 DATA     BIT       P07
LX51 LINKER/LOCATER V4.66.97.0                                                        04/28/2025  14:43:25  PAGE 19


*SFR* 0000008AH   DATA     BYTE      P0DW
*SFR* 000000B1H   DATA     BYTE      P0M1
*SFR* 000000B2H   DATA     BYTE      P0M2
*SFR* 000000F9H   DATA     BYTE      P0MF10
*SFR* 000000FAH   DATA     BYTE      P0MF32
*SFR* 000000FBH   DATA     BYTE      P0MF54
*SFR* 000000FCH   DATA     BYTE      P0MF76
*SFR* 00000099H   DATA     BYTE      P0S
*SFR* 0000009AH   DATA     BYTE      P0SR
*SFR* 00000092H   DATA     BYTE      P0UP
*SFR* 00000090H   DATA     BYTE      P1
*SFR* 00000090H.0 DATA     BIT       P10
*SFR* 00000090H.1 DATA     BIT       P11
*SFR* 00000090H.2 DATA     BIT       P12
*SFR* 00000090H.3 DATA     BIT       P13
*SFR* 00000090H.4 DATA     BIT       P14
*SFR* 00000090H.5 DATA     BIT       P15
*SFR* 00000090H.6 DATA     BIT       P16
*SFR* 00000090H.7 DATA     BIT       P17
*SFR* 0000008BH   DATA     BYTE      P1DW
*SFR* 000000B3H   DATA     BYTE      P1M1
*SFR* 000000B4H   DATA     BYTE      P1M2
*SFR* 000000FDH   DATA     BYTE      P1MF10
*SFR* 000000FEH   DATA     BYTE      P1MF32
*SFR* 000000FFH   DATA     BYTE      P1MF54
*SFR* 000000F1H   DATA     BYTE      P1MF76
*SFR* 0000009BH   DATA     BYTE      P1S
*SFR* 0000009CH   DATA     BYTE      P1SR
*SFR* 00000093H   DATA     BYTE      P1UP
*SFR* 000000A0H   DATA     BYTE      P2
*SFR* 000000A0H.0 DATA     BIT       P20
*SFR* 000000A0H.1 DATA     BIT       P21
*SFR* 000000A0H.2 DATA     BIT       P22
*SFR* 000000A0H.3 DATA     BIT       P23
*SFR* 000000A0H.4 DATA     BIT       P24
*SFR* 000000A0H.5 DATA     BIT       P25
*SFR* 000000A0H.6 DATA     BIT       P26
*SFR* 000000A0H.7 DATA     BIT       P27
*SFR* 0000008CH   DATA     BYTE      P2DW
*SFR* 000000B5H   DATA     BYTE      P2M1
*SFR* 000000B6H   DATA     BYTE      P2M2
*SFR* 000000F2H   DATA     BYTE      P2MF10
*SFR* 000000F3H   DATA     BYTE      P2MF32
*SFR* 000000F4H   DATA     BYTE      P2MF54
*SFR* 000000F5H   DATA     BYTE      P2MF76
*SFR* 0000009DH   DATA     BYTE      P2S
*SFR* 0000009EH   DATA     BYTE      P2SR
*SFR* 00000094H   DATA     BYTE      P2UP
*SFR* 000000B0H   DATA     BYTE      P3
*SFR* 000000B0H.0 DATA     BIT       P30
*SFR* 000000B0H.1 DATA     BIT       P31
*SFR* 000000B0H.2 DATA     BIT       P32
*SFR* 000000B0H.3 DATA     BIT       P33
*SFR* 000000B0H.4 DATA     BIT       P34
*SFR* 000000B0H.5 DATA     BIT       P35
*SFR* 000000B0H.6 DATA     BIT       P36
*SFR* 000000B0H.7 DATA     BIT       P37
*SFR* 0000008DH   DATA     BYTE      P3DW
*SFR* 000000C2H   DATA     BYTE      P3M1
*SFR* 000000C3H   DATA     BYTE      P3M2
*SFR* 000000F6H   DATA     BYTE      P3MF10
*SFR* 000000F7H   DATA     BYTE      P3MF32
*SFR* 000000E9H   DATA     BYTE      P3MF54
*SFR* 000000EAH   DATA     BYTE      P3MF76
*SFR* 000000ACH   DATA     BYTE      P3S
LX51 LINKER/LOCATER V4.66.97.0                                                        04/28/2025  14:43:25  PAGE 20


*SFR* 000000ADH   DATA     BYTE      P3SR
*SFR* 00000095H   DATA     BYTE      P3UP
*SFR* 000000D8H   DATA     BYTE      P4
*SFR* 000000D8H.0 DATA     BIT       P40
*SFR* 000000D8H.1 DATA     BIT       P41
*SFR* 000000D8H.2 DATA     BIT       P42
*SFR* 000000D8H.3 DATA     BIT       P43
*SFR* 000000D8H.4 DATA     BIT       P44
*SFR* 000000D8H.5 DATA     BIT       P45
*SFR* 000000D8H.6 DATA     BIT       P46
*SFR* 000000D8H.7 DATA     BIT       P47
*SFR* 0000008EH   DATA     BYTE      P4DW
*SFR* 000000B9H   DATA     BYTE      P4M1
*SFR* 000000BAH   DATA     BYTE      P4M2
*SFR* 000000EBH   DATA     BYTE      P4MF10
*SFR* 000000ECH   DATA     BYTE      P4MF32
*SFR* 000000EDH   DATA     BYTE      P4MF54
*SFR* 000000EEH   DATA     BYTE      P4MF76
*SFR* 000000BBH   DATA     BYTE      P4S
*SFR* 000000BCH   DATA     BYTE      P4SR
*SFR* 00000096H   DATA     BYTE      P4UP
*SFR* 000000B1H   DATA     BYTE      P5
*SFR* 0000008FH   DATA     BYTE      P5DW
*SFR* 000000BDH   DATA     BYTE      P5M1
*SFR* 000000BEH   DATA     BYTE      P5M2
*SFR* 000000EFH   DATA     BYTE      P5MF10
*SFR* 000000E1H   DATA     BYTE      P5MF32
*SFR* 000000E2H   DATA     BYTE      P5MF54
*SFR* 000000E3H   DATA     BYTE      P5MF76
*SFR* 000000BFH   DATA     BYTE      P5S
*SFR* 000000AEH   DATA     BYTE      P5SR
*SFR* 00000097H   DATA     BYTE      P5UP
*SFR* 000000A7H   DATA     BYTE      P6
*SFR* 0000008FH   DATA     BYTE      P6DW
*SFR* 00000084H   DATA     BYTE      P6M1
*SFR* 00000085H   DATA     BYTE      P6M2
*SFR* 00000092H   DATA     BYTE      P6MF10
*SFR* 00000093H   DATA     BYTE      P6MF32
*SFR* 00000094H   DATA     BYTE      P6MF54
*SFR* 00000095H   DATA     BYTE      P6MF76
*SFR* 00000096H   DATA     BYTE      P6S
*SFR* 0000008EH   DATA     BYTE      P6SR
*SFR* 00000097H   DATA     BYTE      P6UP
*SFR* 000000B8H.6 DATA     BIT       PADC
*SFR* 000000B8H.5 DATA     BIT       PBOD
*SFR* 00000087H   DATA     BYTE      PCON
*SFR* 000000E9H   DATA     BYTE      PICON
*SFR* 000000CAH   DATA     BYTE      PIF
*SFR* 000000EAH   DATA     BYTE      PINEN
*SFR* 000000EBH   DATA     BYTE      PIPEN
*SFR* 000000A1H   DATA     BYTE      PIPS0
*SFR* 000000A2H   DATA     BYTE      PIPS1
*SFR* 000000A3H   DATA     BYTE      PIPS2
*SFR* 000000A4H   DATA     BYTE      PIPS3
*SFR* 000000A5H   DATA     BYTE      PIPS4
*SFR* 000000A6H   DATA     BYTE      PIPS5
*SFR* 000000A7H   DATA     BYTE      PIPS6
*SFR* 000000AFH   DATA     BYTE      PIPS7
*SFR* 000000C6H   DATA     BYTE      PORDIS
*DEL*:00000000H   CODE     ---       PowerDown_Mode
*SFR* 000000B8H.4 DATA     BIT       PS
      02000001H   XDATA    ---       psTKInfo
*SFR* 000000D0H   DATA     BYTE      PSW
*SFR* 000000B8H.1 DATA     BIT       PT0
*SFR* 000000B8H.3 DATA     BIT       PT1
LX51 LINKER/LOCATER V4.66.97.0                                                        04/28/2025  14:43:25  PAGE 21


*SFR* 000000D2H   DATA     BYTE      PWM0C0H
*SFR* 000000DAH   DATA     BYTE      PWM0C0L
*SFR* 000000D3H   DATA     BYTE      PWM0C1H
*SFR* 000000DBH   DATA     BYTE      PWM0C1L
*SFR* 000000D4H   DATA     BYTE      PWM0C2H
*SFR* 000000DCH   DATA     BYTE      PWM0C2L
*SFR* 000000D5H   DATA     BYTE      PWM0C3H
*SFR* 000000DDH   DATA     BYTE      PWM0C3L
*SFR* 000000C4H   DATA     BYTE      PWM0C4H
*SFR* 000000CCH   DATA     BYTE      PWM0C4L
*SFR* 000000C5H   DATA     BYTE      PWM0C5H
*SFR* 000000CDH   DATA     BYTE      PWM0C5L
*SFR* 000000D1H   DATA     BYTE      PWM0CON0
*SFR* 000000DFH   DATA     BYTE      PWM0CON1
*SFR* 000000FAH   DATA     BYTE      PWM0DTCNT
*SFR* 000000F9H   DATA     BYTE      PWM0DTEN
*SFR* 000000D7H   DATA     BYTE      PWM0FBD
*SFR* 000000CEH   DATA     BYTE      PWM0FBS
*SFR* 000000B7H   DATA     BYTE      PWM0INTC
*SFR* 000000FCH   DATA     BYTE      PWM0MD
*SFR* 000000FBH   DATA     BYTE      PWM0MEN
*SFR* 000000D6H   DATA     BYTE      PWM0NP
*SFR* 000000D1H   DATA     BYTE      PWM0PH
*SFR* 000000D9H   DATA     BYTE      PWM0PL
*SFR* 0000008AH   DATA     BYTE      PWM1C0H
*SFR* 0000009AH   DATA     BYTE      PWM1C0L
*SFR* 0000008BH   DATA     BYTE      PWM1C1H
*SFR* 0000009BH   DATA     BYTE      PWM1C1L
*SFR* 0000009CH   DATA     BYTE      PWM1CON0
*SFR* 0000009DH   DATA     BYTE      PWM1CON1
*SFR* 0000009EH   DATA     BYTE      PWM1INTC
*SFR* 0000008CH   DATA     BYTE      PWM1MD
*SFR* 0000008DH   DATA     BYTE      PWM1MEN
*SFR* 00000086H   DATA     BYTE      PWM1PH
*SFR* 00000099H   DATA     BYTE      PWM1PL
*SFR* 000000BAH   DATA     BYTE      PWM2C0H
*SFR* 000000C2H   DATA     BYTE      PWM2C0L
*SFR* 000000BBH   DATA     BYTE      PWM2C1H
*SFR* 000000C3H   DATA     BYTE      PWM2C1L
*SFR* 000000C4H   DATA     BYTE      PWM2CON0
*SFR* 000000C5H   DATA     BYTE      PWM2CON1
*SFR* 000000C6H   DATA     BYTE      PWM2INTC
*SFR* 000000BCH   DATA     BYTE      PWM2MD
*SFR* 000000BDH   DATA     BYTE      PWM2MEN
*SFR* 000000B9H   DATA     BYTE      PWM2PH
*SFR* 000000C1H   DATA     BYTE      PWM2PL
*SFR* 000000CAH   DATA     BYTE      PWM3C0H
*SFR* 000000D2H   DATA     BYTE      PWM3C0L
*SFR* 000000CBH   DATA     BYTE      PWM3C1H
*SFR* 000000D3H   DATA     BYTE      PWM3C1L
*SFR* 000000D4H   DATA     BYTE      PWM3CON0
*SFR* 000000D5H   DATA     BYTE      PWM3CON1
*SFR* 000000D6H   DATA     BYTE      PWM3INTC
*SFR* 000000CCH   DATA     BYTE      PWM3MD
*SFR* 000000CDH   DATA     BYTE      PWM3MEN
*SFR* 000000C9H   DATA     BYTE      PWM3PH
*SFR* 000000D1H   DATA     BYTE      PWM3PL
*SFR* 000000B8H.0 DATA     BIT       PX0
*SFR* 000000B8H.2 DATA     BIT       PX1
*SFR* 00000098H.2 DATA     BIT       RB8
*SFR* 000000F8H.2 DATA     BIT       RB8_1
*SFR* 000000CBH   DATA     BYTE      RCMP2H
*SFR* 000000CAH   DATA     BYTE      RCMP2L
*SFR* 00000084H   DATA     BYTE      RCTRIM0
*SFR* 00000085H   DATA     BYTE      RCTRIM1
LX51 LINKER/LOCATER V4.66.97.0                                                        04/28/2025  14:43:25  PAGE 22


      010049B6H   CODE     ---       READ_BANDGAP
      02008020H   XDATA    BYTE      REFCBD0
      02008021H   XDATA    BYTE      REFCBD1
      0200802AH   XDATA    BYTE      REFCBD10
      0200802BH   XDATA    BYTE      REFCBD11
      0200802CH   XDATA    BYTE      REFCBD12
      0200802DH   XDATA    BYTE      REFCBD13
      0200802EH   XDATA    BYTE      REFCBD14
      02008022H   XDATA    BYTE      REFCBD2
      02008023H   XDATA    BYTE      REFCBD3
      02008024H   XDATA    BYTE      REFCBD4
      02008025H   XDATA    BYTE      REFCBD5
      02008026H   XDATA    BYTE      REFCBD6
      02008027H   XDATA    BYTE      REFCBD7
      02008028H   XDATA    BYTE      REFCBD8
      02008029H   XDATA    BYTE      REFCBD9
      0200802FH   XDATA    BYTE      REFCBDALL
*SFR* 00000098H.4 DATA     BIT       REN
*SFR* 000000F8H.4 DATA     BIT       REN_1
*SFR* 000000C6H   DATA     BYTE      RH3
*SFR* 00000098H.0 DATA     BIT       RI
*SFR* 000000F8H.0 DATA     BIT       RI_1
*SFR* 000000C5H   DATA     BYTE      RL3
*SFR* 000000D0H.3 DATA     BIT       RS0
*SFR* 000000D0H.4 DATA     BIT       RS1
*SFR* 0000009DH   DATA     BYTE      RSR
      01004F59H   CODE     ---       RTC_Initial_Pause
      01004F4CH   CODE     ---       RTC_Initial_Run
*SFR* 000000ADH   DATA     BYTE      RTCCALDAY
*SFR* 000000B5H   DATA     BYTE      RTCCALMDAY
*SFR* 000000B6H   DATA     BYTE      RTCCALMMON
*SFR* 000000AEH   DATA     BYTE      RTCCALMON
*SFR* 000000B7H   DATA     BYTE      RTCCALMYEAR
*SFR* 000000AFH   DATA     BYTE      RTCCALYEAR
*SFR* 000000BFH   DATA     BYTE      RTCCAMSK
*SFR* 000000B9H   DATA     BYTE      RTCCLKFMT
*SFR* 000000A3H   DATA     BYTE      RTCCLKSEL
*SFR* 000000A4H   DATA     BYTE      RTCFREQADJ0
*SFR* 000000A5H   DATA     BYTE      RTCFREQADJ1
*SFR* 000000A1H   DATA     BYTE      RTCINIT
*SFR* 000000A6H   DATA     BYTE      RTCINTEN
*SFR* 000000A7H   DATA     BYTE      RTCINTSTS
*SFR* 000000BCH   DATA     BYTE      RTCLEAPYEAR
*SFR* 000000A2H   DATA     BYTE      RTCRWEN
*SFR* 000000B3H   DATA     BYTE      RTCTALMHR
*SFR* 000000B4H   DATA     BYTE      RTCTALMHZ
*SFR* 000000B2H   DATA     BYTE      RTCTALMMIN
*SFR* 000000B1H   DATA     BYTE      RTCTALMSEC
*SFR* 000000BEH   DATA     BYTE      RTCTAMSK
*SFR* 000000BDH   DATA     BYTE      RTCTICK
*SFR* 000000ABH   DATA     BYTE      RTCTIMEHR
*SFR* 000000AAH   DATA     BYTE      RTCTIMEMIN
*SFR* 000000A9H   DATA     BYTE      RTCTIMESEC
*SFR* 000000BBH   DATA     BYTE      RTCWEEKDAY
*SFR* 000000BFH   DATA     BYTE      RWKH
*SFR* 00000086H   DATA     BYTE      RWKL
*SFR* 000000F8H   DATA     BYTE      S1CON
      02000023H   XDATA    ---       S_KeyInfo
      020000FAH   XDATA    ---       s_neighbor
      0200005FH   XDATA    ---       S_TkFeat
*SFR* 000000A9H   DATA     BYTE      SADDR
*SFR* 000000BBH   DATA     BYTE      SADDR1
*SFR* 000000B9H   DATA     BYTE      SADEN
*SFR* 000000BAH   DATA     BYTE      SADEN1
*SFR* 00000099H   DATA     BYTE      SBUF
LX51 LINKER/LOCATER V4.66.97.0                                                        04/28/2025  14:43:25  PAGE 23


*SFR* 0000009AH   DATA     BYTE      SBUF1
*SFR* 000000D6H   DATA     BYTE      SC0CR0
*SFR* 000000D7H   DATA     BYTE      SC0CR1
*SFR* 000000D9H   DATA     BYTE      SC0DR
*SFR* 000000DAH   DATA     BYTE      SC0EGT
*SFR* 000000DBH   DATA     BYTE      SC0ETURD0
*SFR* 000000DCH   DATA     BYTE      SC0ETURD1
*SFR* 000000DDH   DATA     BYTE      SC0IE
*SFR* 000000DEH   DATA     BYTE      SC0IS
*SFR* 000000DFH   DATA     BYTE      SC0TSR
*SFR* 000000E6H   DATA     BYTE      SC1CR0
*SFR* 000000E7H   DATA     BYTE      SC1CR1
*SFR* 000000D9H   DATA     BYTE      SC1DR
*SFR* 000000DAH   DATA     BYTE      SC1EGT
*SFR* 000000DBH   DATA     BYTE      SC1ETURD0
*SFR* 000000DCH   DATA     BYTE      SC1ETURD1
*SFR* 000000DDH   DATA     BYTE      SC1IE
*SFR* 000000DEH   DATA     BYTE      SC1IS
*SFR* 000000DFH   DATA     BYTE      SC1TSR
*SFR* 00000098H   DATA     BYTE      SCON
*SFR* 00000091H   DATA     BYTE      SFRS
      0000000EH   DATA     BYTE      SFRS_TMP
*SFR* 000000C0H.3 DATA     BIT       SI0
*SFR* 000000E8H.3 DATA     BIT       SI1
*SFR* 00000098H.7 DATA     BIT       SM0
*SFR* 000000F8H.7 DATA     BIT       SM0_1
*SFR* 00000098H.6 DATA     BIT       SM1
*SFR* 000000F8H.6 DATA     BIT       SM1_1
*SFR* 00000098H.5 DATA     BIT       SM2
*SFR* 000000F8H.5 DATA     BIT       SM2_1
*SFR* 00000081H   DATA     BYTE      SP
*SFR* 000000F3H   DATA     BYTE      SPI0CR0
*SFR* 000000F3H   DATA     BYTE      SPI0CR1
*SFR* 000000F5H   DATA     BYTE      SPI0DR
*SFR* 000000F4H   DATA     BYTE      SPI0SR
*SFR* 000000F9H   DATA     BYTE      SPI1CR0
*SFR* 000000FAH   DATA     BYTE      SPI1CR1
*SFR* 000000FCH   DATA     BYTE      SPI1DR
*SFR* 000000FBH   DATA     BYTE      SPI1SR
*SFR* 000000C0H.5 DATA     BIT       STA0
*SFR* 000000E8H.5 DATA     BIT       STA1
      02000004H   XDATA    ---       sTKInfo
*SFR* 000000C0H.4 DATA     BIT       STO0
*SFR* 000000E8H.4 DATA     BIT       STO1
*SFR* 000000C8H   DATA     BYTE      T2CON
*SFR* 000000C9H   DATA     BYTE      T2MOD
*SFR* 000000C4H   DATA     BYTE      T3CON
*SFR* 000000C7H   DATA     BYTE      TA
      0000000FH   DATA     BYTE      TA_REG_TMP
*SFR* 00000098H.3 DATA     BIT       TB8
*SFR* 000000F8H.3 DATA     BIT       TB8_1
*SFR* 00000088H   DATA     BYTE      TCON
      02000118H   XDATA    ---       tDebounce
*SFR* 00000088H.5 DATA     BIT       TF0
*SFR* 00000088H.7 DATA     BIT       TF1
*SFR* 000000C8H.7 DATA     BIT       TF2
*SFR* 0000008CH   DATA     BYTE      TH0
*SFR* 0000008DH   DATA     BYTE      TH1
*SFR* 000000CDH   DATA     BYTE      TH2
*SFR* 00000098H.1 DATA     BIT       TI
*SFR* 000000F8H.1 DATA     BIT       TI_1
*DEL*:00000000H   CODE     ---       TickCallback_FineTuneTimeOut
      01004F95H   CODE     ---       TickCallback_KeyScan
      010035A4H   CODE     ---       Timer2_ISR
*DEL*:00000000H   CODE     ---       TK_Calibration_Untouch
LX51 LINKER/LOCATER V4.66.97.0                                                        04/28/2025  14:43:25  PAGE 24


*DEL*:00000000H   CODE     ---       TK_CalibrationPowerDown
*DEL*:00000000H   CODE     ---       TK_CheckSliderPressed
*DEL*:00000000H   CODE     ---       TK_ClearTKIF
      0100EE80H   CONST    ---       TK_Data
      01004F8BH   CODE     ---       TK_DisableAllChannel
*DEL*:00000000H   CODE     ---       TK_DisableScanAll
      01004F9CH   CODE     ---       TK_GetFeaturePtr
      01004FA3H   CODE     ---       TK_GetKeyInfoPtr
*DEL*:00000000H   CODE     ---       TK_GetNeighborInfoPtr
      01004EFDH   CODE     ---       TK_GetTKInfoPtr
      01003295H   CODE     ---       TK_Init
      01004F3FH   CODE     ---       TK_lightLED
*DEL*:00000000H   CODE     ---       TK_MP_Close
*DEL*:00000000H   CODE     ---       TK_MP_Open
      01004C8AH   CODE     ---       TK_Open
*DEL*:00000000H   CODE     ---       TK_RawDataView
*DEL*:00000000H   CODE     ---       TK_SavePara
      010047A2H   CODE     ---       TK_StoreAddr
      02008010H   XDATA    BYTE      TKCCBD0
      02008011H   XDATA    BYTE      TKCCBD1
      0200801AH   XDATA    BYTE      TKCCBD10
      0200801BH   XDATA    BYTE      TKCCBD11
      0200801CH   XDATA    BYTE      TKCCBD12
      0200801DH   XDATA    BYTE      TKCCBD13
      0200801EH   XDATA    BYTE      TKCCBD14
      02008012H   XDATA    BYTE      TKCCBD2
      02008013H   XDATA    BYTE      TKCCBD3
      02008014H   XDATA    BYTE      TKCCBD4
      02008015H   XDATA    BYTE      TKCCBD5
      02008016H   XDATA    BYTE      TKCCBD6
      02008017H   XDATA    BYTE      TKCCBD7
      02008018H   XDATA    BYTE      TKCCBD8
      02008019H   XDATA    BYTE      TKCCBD9
      0200801FH   XDATA    BYTE      TKCCBDALL
      02008000H   XDATA    BYTE      TKCON0
      02008001H   XDATA    BYTE      TKCON1
      02008002H   XDATA    BYTE      TKCON2
      020004AEH   XDATA    BYTE      tkct
      02008040H   XDATA    BYTE      TKDAT0
      02008041H   XDATA    BYTE      TKDAT1
      0200804AH   XDATA    BYTE      TKDAT10
      0200804BH   XDATA    BYTE      TKDAT11
      0200804CH   XDATA    BYTE      TKDAT12
      0200804DH   XDATA    BYTE      TKDAT13
      0200804EH   XDATA    BYTE      TKDAT14
      02008042H   XDATA    BYTE      TKDAT2
      02008043H   XDATA    BYTE      TKDAT3
      02008044H   XDATA    BYTE      TKDAT4
      02008045H   XDATA    BYTE      TKDAT5
      02008046H   XDATA    BYTE      TKDAT6
      02008047H   XDATA    BYTE      TKDAT7
      02008048H   XDATA    BYTE      TKDAT8
      02008049H   XDATA    BYTE      TKDAT9
      0200804FH   XDATA    BYTE      TKDATALL
      02008050H   XDATA    BYTE      TKHTH0
      02008051H   XDATA    BYTE      TKHTH1
      0200805AH   XDATA    BYTE      TKHTH10
      0200805BH   XDATA    BYTE      TKHTH11
      0200805CH   XDATA    BYTE      TKHTH12
      0200805DH   XDATA    BYTE      TKHTH13
      0200805EH   XDATA    BYTE      TKHTH14
      02008052H   XDATA    BYTE      TKHTH2
      02008053H   XDATA    BYTE      TKHTH3
      02008054H   XDATA    BYTE      TKHTH4
      02008055H   XDATA    BYTE      TKHTH5
LX51 LINKER/LOCATER V4.66.97.0                                                        04/28/2025  14:43:25  PAGE 25


      02008056H   XDATA    BYTE      TKHTH6
      02008057H   XDATA    BYTE      TKHTH7
      02008058H   XDATA    BYTE      TKHTH8
      02008059H   XDATA    BYTE      TKHTH9
      0200805FH   XDATA    BYTE      TKHTHALL
      02008030H   XDATA    BYTE      TKIDLPOL0
      02008031H   XDATA    BYTE      TKIDLPOL1
      0200803AH   XDATA    BYTE      TKIDLPOL10
      0200803BH   XDATA    BYTE      TKIDLPOL11
      0200803CH   XDATA    BYTE      TKIDLPOL12
      0200803DH   XDATA    BYTE      TKIDLPOL13
      0200803EH   XDATA    BYTE      TKIDLPOL14
      02008032H   XDATA    BYTE      TKIDLPOL2
      02008033H   XDATA    BYTE      TKIDLPOL3
      02008034H   XDATA    BYTE      TKIDLPOL4
      02008035H   XDATA    BYTE      TKIDLPOL5
      02008036H   XDATA    BYTE      TKIDLPOL6
      02008037H   XDATA    BYTE      TKIDLPOL7
      02008038H   XDATA    BYTE      TKIDLPOL8
      02008039H   XDATA    BYTE      TKIDLPOL9
      02008007H   XDATA    BYTE      TKINTEN
      02008005H   XDATA    BYTE      TKREN0
      02008006H   XDATA    BYTE      TKREN1
      02008003H   XDATA    BYTE      TKSEN0
      02008004H   XDATA    BYTE      TKSEN1
      02008008H   XDATA    BYTE      TKSTA0
      02008009H   XDATA    BYTE      TKSTA1
      0200800AH   XDATA    BYTE      TKSTA2
*SFR* 0000008AH   DATA     BYTE      TL0
*SFR* 0000008BH   DATA     BYTE      TL1
*SFR* 000000CCH   DATA     BYTE      TL2
*SFR* 00000089H   DATA     BYTE      TMOD
*SFR* 00000088H.4 DATA     BIT       TR0
*SFR* 00000088H.6 DATA     BIT       TR1
*SFR* 000000C8H.2 DATA     BIT       TR2
      020000C5H   XDATA    ---       tTime0Event
      020000F5H   XDATA    DWORD     u32Tick
      02000556H   XDATA    BYTE      u8EventKeyScan
      020002ECH   XDATA    BYTE      u8Key_Simulation_En
      020002EDH   XDATA    BYTE      u8Key_Simulation_Press
      020002EBH   XDATA    BYTE      u8MaxScKeyNum
      01004E09H   CODE     ---       UART1_Init
      01004F66H   CODE     ---       VREF_Disable
*SFR* 000000A9H   DATA     BYTE      VRFCON
*SFR* 000000AAH   DATA     BYTE      VRFTRIM
*SFR* 000000AAH   DATA     BYTE      WDCON
*SFR* 00000099H   DATA     BYTE      WDCONH
*SFR* 0000008FH   DATA     BYTE      WKCON
*SFR* 00000085H   DATA     BYTE      XLTCON



SYMBOL TABLE OF MODULE:  .\Output\NK_ML56SD_LCDTKView (MAIN)

      VALUE       REP       CLASS    TYPE      SYMBOL NAME
      ====================================================
      ---         MODULE    ---      ---       MAIN
      02000556H   PUBLIC    XDATA    BYTE      u8EventKeyScan
      020004AFH   PUBLIC    XDATA    BYTE      g_u8IsPress
      020004AEH   PUBLIC    XDATA    BYTE      tkct
      02000499H   PUBLIC    XDATA    CHAR      i8WheelPercentage
      020003B6H   PUBLIC    XDATA    CHAR      i8SliderPercentage
      020002F1H   PUBLIC    XDATA    CHAR      i8KeyScanId
      020002F0H   PUBLIC    XDATA    BYTE      g_u8MainState
      01003424H   PUBLIC    CODE     ---       main
LX51 LINKER/LOCATER V4.66.97.0                                                        04/28/2025  14:43:25  PAGE 26


      01004F95H   PUBLIC    CODE     ---       TickCallback_KeyScan
      000000FFH   SFRSYM    DATA     BYTE      P1MF54
      000000E1H   SFRSYM    DATA     BYTE      P5MF32
      000000DBH   SFRSYM    DATA     BYTE      SC1ETURD0
      000000B1H   SFRSYM    DATA     BYTE      P0M1
      000000F1H   SFRSYM    DATA     BYTE      DMA1TSR
      000000DCH   SFRSYM    DATA     BYTE      SC0ETURD1
      000000B2H   SFRSYM    DATA     BYTE      RTCTALMMIN
      000000F4H   SFRSYM    DATA     BYTE      P2MF54
      000000DCH   SFRSYM    DATA     BYTE      SC1ETURD1
      000000B1H   SFRSYM    DATA     BYTE      DMA2TSR
      00000093H   SFRSYM    DATA     BYTE      P6MF32
      000000B3H   SFRSYM    DATA     BYTE      P1M1
      000000B2H   SFRSYM    DATA     BYTE      P0M2
      00000080H   SFRSYM    DATA     BYTE      P0
      000000AAH   SFRSYM    DATA     BYTE      RTCTIMEMIN
      000000E9H   SFRSYM    DATA     BYTE      P3MF54
      000000A9H   SFRSYM    DATA     BYTE      DMA3TSR
      000000B5H   SFRSYM    DATA     BYTE      P2M1
      000000B4H   SFRSYM    DATA     BYTE      P1M2
      00000090H   SFRSYM    DATA     BYTE      P1
      000000CEH   SFRSYM    DATA     BYTE      PWM0FBS
      000000FCH   SFRSYM    DATA     BYTE      P0MF76
      000000EDH   SFRSYM    DATA     BYTE      P4MF54
      000000C2H   SFRSYM    DATA     BYTE      P3M1
      000000B6H   SFRSYM    DATA     BYTE      P2M2
      000000A0H   SFRSYM    DATA     BYTE      P2
      000000C0H.6 SFRSYM    DATA     BIT       I2CEN0
      000000F1H   SFRSYM    DATA     BYTE      P1MF76
      000000E2H   SFRSYM    DATA     BYTE      P5MF54
      000000C3H   SFRSYM    DATA     BYTE      P3M2
      000000B9H   SFRSYM    DATA     BYTE      P4M1
      000000B0H   SFRSYM    DATA     BYTE      P3
      000000D0H.6 SFRSYM    DATA     BIT       AC
      000000E8H.6 SFRSYM    DATA     BIT       I2CEN1
      000000F5H   SFRSYM    DATA     BYTE      P2MF76
      00000094H   SFRSYM    DATA     BYTE      P6MF54
      000000BDH   SFRSYM    DATA     BYTE      P5M1
      000000BAH   SFRSYM    DATA     BYTE      P4M2
      000000D8H   SFRSYM    DATA     BYTE      P4
      0000009BH   SFRSYM    DATA     BYTE      EIE0
      0000008FH   SFRSYM    DATA     BYTE      WKCON
      00000084H   SFRSYM    DATA     BYTE      RCTRIM0
      000000EAH   SFRSYM    DATA     BYTE      P3MF76
      00000084H   SFRSYM    DATA     BYTE      P6M1
      000000BEH   SFRSYM    DATA     BYTE      P5M2
      000000B1H   SFRSYM    DATA     BYTE      P5
      0000009CH   SFRSYM    DATA     BYTE      EIE1
      00000085H   SFRSYM    DATA     BYTE      RCTRIM1
      000000A8H.7 SFRSYM    DATA     BIT       EA
      000000EEH   SFRSYM    DATA     BYTE      P4MF76
      000000A7H   SFRSYM    DATA     BYTE      P6
      00000085H   SFRSYM    DATA     BYTE      P6M2
      000000E3H   SFRSYM    DATA     BYTE      P5MF76
      000000FBH   SFRSYM    DATA     BYTE      PWM0MEN
      00000095H   SFRSYM    DATA     BYTE      P6MF76
      0000008DH   SFRSYM    DATA     BYTE      PWM1MEN
      000000A0H.5 SFRSYM    DATA     BIT       AIN0
      000000BDH   SFRSYM    DATA     BYTE      PWM2MEN
      000000A0H.4 SFRSYM    DATA     BIT       AIN1
      000000CDH   SFRSYM    DATA     BYTE      PWM3MEN
      000000A0H.3 SFRSYM    DATA     BIT       AIN2
      00000098H.7 SFRSYM    DATA     BIT       FE
      000000A0H.2 SFRSYM    DATA     BIT       AIN3
      000000A0H.1 SFRSYM    DATA     BIT       AIN4
LX51 LINKER/LOCATER V4.66.97.0                                                        04/28/2025  14:43:25  PAGE 27


      000000D6H   SFRSYM    DATA     BYTE      SC0CR0
      000000A0H.0 SFRSYM    DATA     BIT       AIN5
      000000A8H.6 SFRSYM    DATA     BIT       EADC
      000000E6H   SFRSYM    DATA     BYTE      SC1CR0
      000000D7H   SFRSYM    DATA     BYTE      SC0CR1
      000000A8H   SFRSYM    DATA     BYTE      IE
      00000096H   SFRSYM    DATA     BYTE      CKSWT
      000000B0H.1 SFRSYM    DATA     BIT       AIN6
      000000E7H   SFRSYM    DATA     BYTE      SC1CR1
      000000EFH   SFRSYM    DATA     BYTE      EIP0
      000000B0H.2 SFRSYM    DATA     BIT       AIN7
      000000FEH   SFRSYM    DATA     BYTE      EIP1
      000000ACH   SFRSYM    DATA     BYTE      EIP2
      000000E4H   SFRSYM    DATA     BYTE      ADCBAH
      000000C7H   SFRSYM    DATA     BYTE      TA
      000000E4H   SFRSYM    DATA     BYTE      BRCTRIM
      000000BDH   SFRSYM    DATA     BYTE      RTCTICK
      000000C0H.0 SFRSYM    DATA     BIT       I2C0PX
      000000A8H.4 SFRSYM    DATA     BIT       ES
      000000E8H.0 SFRSYM    DATA     BIT       I2CPX1
      000000C0H.5 SFRSYM    DATA     BIT       STA0
      000000B8H.6 SFRSYM    DATA     BIT       PADC
      000000CBH   SFRSYM    DATA     BYTE      ADCBAL
      000000B8H   SFRSYM    DATA     BYTE      IP
      000000E8H.5 SFRSYM    DATA     BIT       STA1
      000000E5H   SFRSYM    DATA     BYTE      ADCCAL
      000000A8H.5 SFRSYM    DATA     BIT       EBOD
      00000098H.0 SFRSYM    DATA     BIT       RI
      000000ADH   SFRSYM    DATA     BYTE      RTCCALDAY
      000000A4H   SFRSYM    DATA     BYTE      RTCFREQADJ0
      000000F8H.7 SFRSYM    DATA     BIT       FE_1
      000000D0H.7 SFRSYM    DATA     BIT       CY
      000000A5H   SFRSYM    DATA     BYTE      RTCFREQADJ1
      0000008AH   SFRSYM    DATA     BYTE      P0DW
      00000098H.1 SFRSYM    DATA     BIT       TI
      0000008BH   SFRSYM    DATA     BYTE      P1DW
      000000EFH   SFRSYM    DATA     BYTE      LDOTRIM
      0000008CH   SFRSYM    DATA     BYTE      P2DW
      000000BAH   SFRSYM    DATA     BYTE      SADEN1
      0000008DH   SFRSYM    DATA     BYTE      P3DW
      000000A1H   SFRSYM    DATA     BYTE      RTCINIT
      0000008EH   SFRSYM    DATA     BYTE      P4DW
      0000008FH   SFRSYM    DATA     BYTE      P5DW
      000000BBH   SFRSYM    DATA     BYTE      SADDR1
      0000008FH   SFRSYM    DATA     BYTE      P6DW
      00000097H   SFRSYM    DATA     BYTE      CKEN
      000000B8H.4 SFRSYM    DATA     BIT       PS
      00000081H   SFRSYM    DATA     BYTE      SP
      000000D0H.2 SFRSYM    DATA     BIT       OV
      000000FAH   SFRSYM    DATA     BYTE      PWM0DTCNT
      000000B8H.5 SFRSYM    DATA     BIT       PBOD
      0000009AH   SFRSYM    DATA     BYTE      DMA0SEED
      0000009AH   SFRSYM    DATA     BYTE      P0SR
      00000092H   SFRSYM    DATA     BYTE      P0UP
      000000C0H.4 SFRSYM    DATA     BIT       STO0
      000000AEH   SFRSYM    DATA     BYTE      RTCCALMON
      0000009BH   SFRSYM    DATA     BYTE      DMA1SEED
      0000009CH   SFRSYM    DATA     BYTE      P1SR
      00000093H   SFRSYM    DATA     BYTE      P1UP
      000000E8H.4 SFRSYM    DATA     BIT       STO1
      000000A2H   SFRSYM    DATA     BYTE      RTCRWEN
      0000009CH   SFRSYM    DATA     BYTE      DMA2SEED
      0000009EH   SFRSYM    DATA     BYTE      P2SR
      00000094H   SFRSYM    DATA     BYTE      P2UP
      000000DAH   SFRSYM    DATA     BYTE      SC0EGT
LX51 LINKER/LOCATER V4.66.97.0                                                        04/28/2025  14:43:25  PAGE 28


      0000009DH   SFRSYM    DATA     BYTE      DMA3SEED
      000000DAH   SFRSYM    DATA     BYTE      SC1EGT
      000000ADH   SFRSYM    DATA     BYTE      P3SR
      00000095H   SFRSYM    DATA     BYTE      P3UP
      000000BCH   SFRSYM    DATA     BYTE      P4SR
      00000096H   SFRSYM    DATA     BYTE      P4UP
      000000A3H   SFRSYM    DATA     BYTE      RTCCLKSEL
      000000AEH   SFRSYM    DATA     BYTE      P5SR
      00000097H   SFRSYM    DATA     BYTE      P5UP
      000000F8H.0 SFRSYM    DATA     BIT       RI_1
      00000097H   SFRSYM    DATA     BYTE      P6UP
      0000008EH   SFRSYM    DATA     BYTE      P6SR
      000000AAH   SFRSYM    DATA     BYTE      VRFTRIM
      000000BDH   SFRSYM    DATA     BYTE      I2C0STAT
      00000095H   SFRSYM    DATA     BYTE      DMA0CCNT
      000000F8H.1 SFRSYM    DATA     BIT       TI_1
      000000FCH   SFRSYM    DATA     BYTE      LCDDAT
      000000B9H   SFRSYM    DATA     BYTE      RTCCLKFMT
      000000BEH   SFRSYM    DATA     BYTE      CWKH
      000000CBH   SFRSYM    DATA     BYTE      RCMP2H
      000000EEH   SFRSYM    DATA     BYTE      DMA1CCNT
      000000B4H   SFRSYM    DATA     BYTE      I2C1STAT
      000000FAH   SFRSYM    DATA     BYTE      LCDCLK
      000000B6H   SFRSYM    DATA     BYTE      DMA2CCNT
      000000CEH   SFRSYM    DATA     BYTE      AINDIDS0
      000000CFH   SFRSYM    DATA     BYTE      ADCMPH
      00000080H.0 SFRSYM    DATA     BIT       P00
      000000F6H   SFRSYM    DATA     BYTE      LCDCPCT0
      000000CEH   SFRSYM    DATA     BYTE      AINDIDS1
      000000AEH   SFRSYM    DATA     BYTE      DMA3CCNT
      00000090H.0 SFRSYM    DATA     BIT       P10
      00000080H.1 SFRSYM    DATA     BIT       P01
      000000EAH   SFRSYM    DATA     BYTE      LCDCPCT1
      00000099H   SFRSYM    DATA     BYTE      SBUF
      00000087H   SFRSYM    DATA     BYTE      PCON
      000000C0H.2 SFRSYM    DATA     BIT       AA0
      000000A0H.0 SFRSYM    DATA     BIT       P20
      00000090H.1 SFRSYM    DATA     BIT       P11
      00000080H.2 SFRSYM    DATA     BIT       P02
      000000CAH   SFRSYM    DATA     BYTE      RCMP2L
      00000086H   SFRSYM    DATA     BYTE      CWKL
      000000E8H.2 SFRSYM    DATA     BIT       AA1
      000000B0H.0 SFRSYM    DATA     BIT       P30
      000000A0H.1 SFRSYM    DATA     BIT       P21
      00000090H.2 SFRSYM    DATA     BIT       P12
      00000080H.3 SFRSYM    DATA     BIT       P03
      000000E3H   SFRSYM    DATA     BYTE      ADCDLY
      000000CEH   SFRSYM    DATA     BYTE      ADCMPL
      000000D8H.0 SFRSYM    DATA     BIT       P40
      000000B0H.1 SFRSYM    DATA     BIT       P31
      000000A0H.2 SFRSYM    DATA     BIT       P22
      00000090H.3 SFRSYM    DATA     BIT       P13
      00000080H.4 SFRSYM    DATA     BIT       P04
      000000F5H   SFRSYM    DATA     BYTE      SPI0DR
      00000098H   SFRSYM    DATA     BYTE      SCON
      000000D8H.1 SFRSYM    DATA     BIT       P41
      000000B0H.2 SFRSYM    DATA     BIT       P32
      000000A0H.3 SFRSYM    DATA     BIT       P23
      00000090H.4 SFRSYM    DATA     BIT       P14
      00000080H.5 SFRSYM    DATA     BIT       P05
      000000B3H   SFRSYM    DATA     BYTE      RTCTALMHR
      000000FCH   SFRSYM    DATA     BYTE      SPI1DR
      00000089H   SFRSYM    DATA     BYTE      TMOD
      00000088H   SFRSYM    DATA     BYTE      TCON
      000000D8H.2 SFRSYM    DATA     BIT       P42
LX51 LINKER/LOCATER V4.66.97.0                                                        04/28/2025  14:43:25  PAGE 29


      000000B0H.3 SFRSYM    DATA     BIT       P33
      000000A0H.4 SFRSYM    DATA     BIT       P24
      00000090H.5 SFRSYM    DATA     BIT       P15
      00000080H.6 SFRSYM    DATA     BIT       P06
      000000ABH   SFRSYM    DATA     BYTE      RTCTIMEHR
      000000D8H.3 SFRSYM    DATA     BIT       P43
      000000B0H.4 SFRSYM    DATA     BIT       P34
      000000A0H.5 SFRSYM    DATA     BIT       P25
      00000090H.6 SFRSYM    DATA     BIT       P16
      00000080H.7 SFRSYM    DATA     BIT       P07
      000000FCH   SFRSYM    DATA     BYTE      PWM0MD
      000000D1H   SFRSYM    DATA     BYTE      PWM0CON0
      000000D8H.4 SFRSYM    DATA     BIT       P44
      000000B0H.5 SFRSYM    DATA     BIT       P35
      000000A0H.6 SFRSYM    DATA     BIT       P26
      00000090H.7 SFRSYM    DATA     BIT       P17
      0000009CH   SFRSYM    DATA     BYTE      PWM1CON0
      0000008CH   SFRSYM    DATA     BYTE      PWM1MD
      000000DFH   SFRSYM    DATA     BYTE      PWM0CON1
      000000D8H.5 SFRSYM    DATA     BIT       P45
      000000B0H.6 SFRSYM    DATA     BIT       P36
      000000A0H.7 SFRSYM    DATA     BIT       P27
      000000C4H   SFRSYM    DATA     BYTE      PWM2CON0
      000000BCH   SFRSYM    DATA     BYTE      PWM2MD
      0000009DH   SFRSYM    DATA     BYTE      PWM1CON1
      000000D8H.6 SFRSYM    DATA     BIT       P46
      000000B0H.7 SFRSYM    DATA     BIT       P37
      000000D4H   SFRSYM    DATA     BYTE      PWM3CON0
      000000CCH   SFRSYM    DATA     BYTE      PWM3MD
      000000C5H   SFRSYM    DATA     BYTE      PWM2CON1
      000000D8H.7 SFRSYM    DATA     BIT       P47
      000000D5H   SFRSYM    DATA     BYTE      PWM3CON1
      000000E5H   SFRSYM    DATA     BYTE      C0H
      000000B7H   SFRSYM    DATA     BYTE      RTCCALMYEAR
      000000E7H   SFRSYM    DATA     BYTE      C1H
      000000C1H   SFRSYM    DATA     BYTE      I2C0ADDR0
      000000B4H   SFRSYM    DATA     BYTE      RTCTALMHZ
      000000BFH   SFRSYM    DATA     BYTE      RWKH
      000000A1H   SFRSYM    DATA     BYTE      I2C0ADDR1
      000000EEH   SFRSYM    DATA     BYTE      C2H
      000000B2H   SFRSYM    DATA     BYTE      I2C1ADDR0
      0000009FH   SFRSYM    DATA     BYTE      CHPCON
      00000088H.1 SFRSYM    DATA     BIT       IE0
      000000F5H   SFRSYM    DATA     BYTE      LCDCPALCT0
      000000A4H   SFRSYM    DATA     BYTE      I2C1ADDR1
      000000A2H   SFRSYM    DATA     BYTE      I2C0ADDR2
      000000D1H   SFRSYM    DATA     BYTE      PWM0PH
      00000088H.3 SFRSYM    DATA     BIT       IE1
      000000E9H   SFRSYM    DATA     BYTE      LCDCPALCT1
      000000A5H   SFRSYM    DATA     BYTE      I2C1ADDR2
      000000A3H   SFRSYM    DATA     BYTE      I2C0ADDR3
      00000086H   SFRSYM    DATA     BYTE      PWM1PH
      000000E4H   SFRSYM    DATA     BYTE      C0L
      00000091H   SFRSYM    DATA     BYTE      SFRS
      000000B9H   SFRSYM    DATA     BYTE      PWM2PH
      000000A6H   SFRSYM    DATA     BYTE      I2C1ADDR3
      000000E6H   SFRSYM    DATA     BYTE      C1L
      000000C8H.0 SFRSYM    DATA     BIT       CM_RL2
      000000BCH   SFRSYM    DATA     BYTE      RTCLEAPYEAR
      000000C9H   SFRSYM    DATA     BYTE      PWM3PH
      000000EDH   SFRSYM    DATA     BYTE      C2L
      000000F0H   SFRSYM    DATA     BYTE      B
      000000DFH   SFRSYM    DATA     BYTE      SC0TSR
      00000086H   SFRSYM    DATA     BYTE      RWKL
      000000DFH   SFRSYM    DATA     BYTE      SC1TSR
LX51 LINKER/LOCATER V4.66.97.0                                                        04/28/2025  14:43:25  PAGE 30


      000000D9H   SFRSYM    DATA     BYTE      PWM0PL
      00000099H   SFRSYM    DATA     BYTE      PWM1PL
      000000F4H   SFRSYM    DATA     BYTE      SPI0SR
      000000C1H   SFRSYM    DATA     BYTE      PWM2PL
      000000D6H   SFRSYM    DATA     BYTE      PWM0NP
      000000FBH   SFRSYM    DATA     BYTE      SPI1SR
      000000A5H   SFRSYM    DATA     BYTE      IAPUEN
      00000099H   SFRSYM    DATA     BYTE      WDCONH
      000000D1H   SFRSYM    DATA     BYTE      PWM3PL
      000000E0H   SFRSYM    DATA     BYTE      ACC
      000000D4H   SFRSYM    DATA     BYTE      ACMPSR
      000000A8H.1 SFRSYM    DATA     BIT       ET0
      000000BCH   SFRSYM    DATA     BYTE      I2C0DAT
      000000A4H   SFRSYM    DATA     BYTE      IAPTRG
      00000092H   SFRSYM    DATA     BYTE      DMA0CR0
      000000A8H.3 SFRSYM    DATA     BIT       ET1
      00000088H.5 SFRSYM    DATA     BIT       TF0
      0000008AH   SFRSYM    DATA     BYTE      DMA0CR1
      000000EBH   SFRSYM    DATA     BYTE      DMA1CR0
      000000BEH   SFRSYM    DATA     BYTE      I2C0CLK
      000000B3H   SFRSYM    DATA     BYTE      I2C1DAT
      00000088H.7 SFRSYM    DATA     BIT       TF1
      000000FBH   SFRSYM    DATA     BYTE      LCDPTR
      0000008BH   SFRSYM    DATA     BYTE      DMA1CR1
      000000B3H   SFRSYM    DATA     BYTE      DMA2CR0
      000000B5H   SFRSYM    DATA     BYTE      I2C1CLK
      000000C8H.7 SFRSYM    DATA     BIT       TF2
      000000C0H.3 SFRSYM    DATA     BIT       SI0
      00000098H.2 SFRSYM    DATA     BIT       RB8
      0000008CH   SFRSYM    DATA     BYTE      DMA2CR1
      000000ABH   SFRSYM    DATA     BYTE      DMA3CR0
      0000008CH   SFRSYM    DATA     BYTE      TH0
      000000E8H.3 SFRSYM    DATA     BIT       SI1
      000000A8H.0 SFRSYM    DATA     BIT       EX0
      00000088H.0 SFRSYM    DATA     BIT       IT0
      0000008DH   SFRSYM    DATA     BYTE      DMA3CR1
      000000C6H   SFRSYM    DATA     BYTE      RH3
      0000008DH   SFRSYM    DATA     BYTE      TH1
      000000A8H.2 SFRSYM    DATA     BIT       EX1
      00000098H.3 SFRSYM    DATA     BIT       TB8
      00000088H.2 SFRSYM    DATA     BIT       IT1
      000000FDH   SFRSYM    DATA     BYTE      LCDPWR
      000000CDH   SFRSYM    DATA     BYTE      TH2
      000000D0H.0 SFRSYM    DATA     BIT       P
      000000F6H   SFRSYM    DATA     BYTE      DMA0BAH
      00000098H.7 SFRSYM    DATA     BIT       SM0
      000000A9H   SFRSYM    DATA     BYTE      VRFCON
      000000FDH   SFRSYM    DATA     BYTE      DMA1BAH
      000000C0H   SFRSYM    DATA     BYTE      I2C0CON
      0000008AH   SFRSYM    DATA     BYTE      TL0
      00000098H.6 SFRSYM    DATA     BIT       SM1
      000000B2H   SFRSYM    DATA     BYTE      DMA2BAH
      000000E8H   SFRSYM    DATA     BYTE      I2C1CON
      000000C5H   SFRSYM    DATA     BYTE      RL3
      0000008BH   SFRSYM    DATA     BYTE      TL1
      00000098H.5 SFRSYM    DATA     BIT       SM2
      000000A7H   SFRSYM    DATA     BYTE      RTCINTSTS
      000000AAH   SFRSYM    DATA     BYTE      DMA3BAH
      000000F9H   SFRSYM    DATA     BYTE      PWM0DTEN
      000000CCH   SFRSYM    DATA     BYTE      TL2
      000000C6H   SFRSYM    DATA     BYTE      PORDIS
      00000099H   SFRSYM    DATA     BYTE      P0S
      000000B8H.1 SFRSYM    DATA     BIT       PT0
      0000009BH   SFRSYM    DATA     BYTE      P1S
      000000D0H.3 SFRSYM    DATA     BIT       RS0
LX51 LINKER/LOCATER V4.66.97.0                                                        04/28/2025  14:43:25  PAGE 31


      000000B8H.3 SFRSYM    DATA     BIT       PT1
      000000B7H   SFRSYM    DATA     BYTE      PWM0INTC
      0000009DH   SFRSYM    DATA     BYTE      P2S
      000000DDH   SFRSYM    DATA     BYTE      SC0IE
      000000D0H.4 SFRSYM    DATA     BIT       RS1
      00000088H.4 SFRSYM    DATA     BIT       TR0
      000000DDH   SFRSYM    DATA     BYTE      SC1IE
      0000009EH   SFRSYM    DATA     BYTE      PWM1INTC
      000000FFH   SFRSYM    DATA     BYTE      LVRDIS
      000000ACH   SFRSYM    DATA     BYTE      P3S
      000000BFH   SFRSYM    DATA     BYTE      I2C0TOC
      00000088H.6 SFRSYM    DATA     BIT       TR1
      000000C6H   SFRSYM    DATA     BYTE      PWM2INTC
      000000BBH   SFRSYM    DATA     BYTE      P4S
      000000F7H   SFRSYM    DATA     BYTE      EIPH0
      000000D5H   SFRSYM    DATA     BYTE      ACMPVREF
      000000B6H   SFRSYM    DATA     BYTE      I2C1TOC
      000000C8H.2 SFRSYM    DATA     BIT       TR2
      000000B8H.0 SFRSYM    DATA     BIT       PX0
      000000D6H   SFRSYM    DATA     BYTE      PWM3INTC
      000000BFH   SFRSYM    DATA     BYTE      P5S
      000000FFH   SFRSYM    DATA     BYTE      EIPH1
      000000B8H.2 SFRSYM    DATA     BIT       PX1
      000000CFH   SFRSYM    DATA     BYTE      I2C0ADDRM
      00000096H   SFRSYM    DATA     BYTE      P6S
      000000ADH   SFRSYM    DATA     BYTE      EIPH2
      000000D7H   SFRSYM    DATA     BYTE      I2C1ADDRM
      00000085H   SFRSYM    DATA     BYTE      XLTCON
      000000E6H   SFRSYM    DATA     BYTE      ADCCN
      000000A1H   SFRSYM    DATA     BYTE      ADCCON0
      000000F1H   SFRSYM    DATA     BYTE      LCDCPUMP
      000000BFH   SFRSYM    DATA     BYTE      RTCCAMSK
      000000E1H   SFRSYM    DATA     BYTE      ADCCON1
      00000092H   SFRSYM    DATA     BYTE      DMA0CRC
      000000E2H   SFRSYM    DATA     BYTE      ADCCON2
      00000083H   SFRSYM    DATA     BYTE      DPH
      000000F8H.2 SFRSYM    DATA     BIT       RB8_1
      00000093H   SFRSYM    DATA     BYTE      DMA1CRC
      000000D9H   SFRSYM    DATA     BYTE      SC0DR
      00000094H   SFRSYM    DATA     BYTE      DMA2CRC
      000000D9H   SFRSYM    DATA     BYTE      SC1DR
      00000093H   SFRSYM    DATA     BYTE      DMA0MAL
      000000F8H.3 SFRSYM    DATA     BIT       TB8_1
      00000095H   SFRSYM    DATA     BYTE      DMA3CRC
      000000ECH   SFRSYM    DATA     BYTE      DMA1MAL
      000000CAH   SFRSYM    DATA     BYTE      PIF
      000000B4H   SFRSYM    DATA     BYTE      DMA2MAL
      00000082H   SFRSYM    DATA     BYTE      DPL
      000000F8H.7 SFRSYM    DATA     BIT       SM0_1
      000000ACH   SFRSYM    DATA     BYTE      DMA3MAL
      000000D2H   SFRSYM    DATA     BYTE      PWM0C0H
      000000B7H   SFRSYM    DATA     BYTE      IPH
      000000F8H.6 SFRSYM    DATA     BIT       SM1_1
      000000FEH   SFRSYM    DATA     BYTE      LCDBL
      0000008AH   SFRSYM    DATA     BYTE      PWM1C0H
      000000D3H   SFRSYM    DATA     BYTE      PWM0C1H
      0000009AH   SFRSYM    DATA     BYTE      SBUF1
      000000F8H.5 SFRSYM    DATA     BIT       SM2_1
      000000BAH   SFRSYM    DATA     BYTE      PWM2C0H
      0000008BH   SFRSYM    DATA     BYTE      PWM1C1H
      000000D4H   SFRSYM    DATA     BYTE      PWM0C2H
      000000F3H   SFRSYM    DATA     BYTE      SPI0CR0
      000000DEH   SFRSYM    DATA     BYTE      SC0IS
      000000C3H   SFRSYM    DATA     BYTE      ADCRH
      000000DEH   SFRSYM    DATA     BYTE      SC1IS
LX51 LINKER/LOCATER V4.66.97.0                                                        04/28/2025  14:43:25  PAGE 32


      000000CAH   SFRSYM    DATA     BYTE      PWM3C0H
      000000BBH   SFRSYM    DATA     BYTE      PWM2C1H
      000000F3H   SFRSYM    DATA     BYTE      SPI0CR1
      000000D5H   SFRSYM    DATA     BYTE      PWM0C3H
      000000F9H   SFRSYM    DATA     BYTE      SPI1CR0
      000000A7H   SFRSYM    DATA     BYTE      IAPAH
      00000098H.4 SFRSYM    DATA     BIT       REN
      000000F9H   SFRSYM    DATA     BYTE      LCDCON0
      000000CBH   SFRSYM    DATA     BYTE      PWM3C1H
      000000DAH   SFRSYM    DATA     BYTE      PWM0C0L
      000000C4H   SFRSYM    DATA     BYTE      PWM0C4H
      000000FAH   SFRSYM    DATA     BYTE      SPI1CR1
      000000F8H   SFRSYM    DATA     BYTE      S1CON
      000000AEH   SFRSYM    DATA     BYTE      IAPFD
      000000F4H   SFRSYM    DATA     BYTE      LCDCON1
      0000009AH   SFRSYM    DATA     BYTE      PWM1C0L
      000000E1H   SFRSYM    DATA     BYTE      CAPCON0
      000000DBH   SFRSYM    DATA     BYTE      PWM0C1L
      000000C5H   SFRSYM    DATA     BYTE      PWM0C5H
      000000C2H   SFRSYM    DATA     BYTE      PWM2C0L
      0000009BH   SFRSYM    DATA     BYTE      PWM1C1L
      000000E2H   SFRSYM    DATA     BYTE      CAPCON1
      000000DCH   SFRSYM    DATA     BYTE      PWM0C2L
      000000C9H   SFRSYM    DATA     BYTE      T2MOD
      000000C8H   SFRSYM    DATA     BYTE      T2CON
      000000C2H   SFRSYM    DATA     BYTE      ADCRL
      000000A3H   SFRSYM    DATA     BYTE      BODCON0
      000000B5H   SFRSYM    DATA     BYTE      RTCCALMDAY
      000000D2H   SFRSYM    DATA     BYTE      PWM3C0L
      000000C3H   SFRSYM    DATA     BYTE      PWM2C1L
      000000E3H   SFRSYM    DATA     BYTE      CAPCON2
      000000DDH   SFRSYM    DATA     BYTE      PWM0C3L
      000000D2H   SFRSYM    DATA     BYTE      ACMPCR0
      000000C4H   SFRSYM    DATA     BYTE      T3CON
      000000ABH   SFRSYM    DATA     BYTE      BODCON1
      000000A6H   SFRSYM    DATA     BYTE      IAPAL
      000000D3H   SFRSYM    DATA     BYTE      PWM3C1L
      000000CCH   SFRSYM    DATA     BYTE      PWM0C4L
      00000084H   SFRSYM    DATA     BYTE      LIRCTRIM
      000000D3H   SFRSYM    DATA     BYTE      ACMPCR1
      00000094H   SFRSYM    DATA     BYTE      DMA0CNT
      000000A6H   SFRSYM    DATA     BYTE      RTCINTEN
      000000CDH   SFRSYM    DATA     BYTE      PWM0C5L
      000000ABH   SFRSYM    DATA     BYTE      ACMPCR2
      000000EDH   SFRSYM    DATA     BYTE      DMA1CNT
      000000E5H   SFRSYM    DATA     BYTE      ADCSN
      000000B5H   SFRSYM    DATA     BYTE      DMA2CNT
      000000BEH   SFRSYM    DATA     BYTE      RTCTAMSK
      000000ADH   SFRSYM    DATA     BYTE      DMA3CNT
      000000B9H   SFRSYM    DATA     BYTE      SADEN
      000000AFH   SFRSYM    DATA     BYTE      IAPCN
      000000A1H   SFRSYM    DATA     BYTE      PIPS0
      000000AFH   SFRSYM    DATA     BYTE      RTCCALYEAR
      000000A2H   SFRSYM    DATA     BYTE      PIPS1
      000000E7H   SFRSYM    DATA     BYTE      ADCSR
      000000A3H   SFRSYM    DATA     BYTE      PIPS2
      000000A9H   SFRSYM    DATA     BYTE      SADDR
      0000008EH   SFRSYM    DATA     BYTE      CKCON
      000000FDH   SFRSYM    DATA     BYTE      LVRFLTEN
      000000A4H   SFRSYM    DATA     BYTE      PIPS3
      000000A5H   SFRSYM    DATA     BYTE      PIPS4
      000000EAH   SFRSYM    DATA     BYTE      MTM0DAL
      000000A2H   SFRSYM    DATA     BYTE      AUXR0
      000000D7H   SFRSYM    DATA     BYTE      PWM0FBD
      000000C9H   SFRSYM    DATA     BYTE      AUXR1
LX51 LINKER/LOCATER V4.66.97.0                                                        04/28/2025  14:43:25  PAGE 33


      000000C1H   SFRSYM    DATA     BYTE      CKDIV
      000000A6H   SFRSYM    DATA     BYTE      PIPS5
      000000F2H   SFRSYM    DATA     BYTE      MTM1DAL
      000000B7H   SFRSYM    DATA     BYTE      MTM2DAL
      000000A7H   SFRSYM    DATA     BYTE      PIPS6
      000000CFH   SFRSYM    DATA     BYTE      AUXR3
      000000B6H   SFRSYM    DATA     BYTE      RTCCALMMON
      000000AFH   SFRSYM    DATA     BYTE      MTM3DAL
      000000AFH   SFRSYM    DATA     BYTE      PIPS7
      000000D0H.5 SFRSYM    DATA     BIT       F0
      000000F9H   SFRSYM    DATA     BYTE      P0MF10
      000000F8H.4 SFRSYM    DATA     BIT       REN_1
      000000B1H   SFRSYM    DATA     BYTE      RTCTALMSEC
      000000FDH   SFRSYM    DATA     BYTE      P1MF10
      000000BBH   SFRSYM    DATA     BYTE      RTCWEEKDAY
      000000A9H   SFRSYM    DATA     BYTE      RTCTIMESEC
      000000F2H   SFRSYM    DATA     BYTE      P2MF10
      0000009DH   SFRSYM    DATA     BYTE      RSR
      000000F6H   SFRSYM    DATA     BYTE      P3MF10
      000000FAH   SFRSYM    DATA     BYTE      P0MF32
      000000EBH   SFRSYM    DATA     BYTE      P4MF10
      000000FFH   SFRSYM    DATA     BYTE      LCDMODE
      000000FEH   SFRSYM    DATA     BYTE      P1MF32
      000000EFH   SFRSYM    DATA     BYTE      P5MF10
      000000E9H   SFRSYM    DATA     BYTE      PICON
      000000D0H   SFRSYM    DATA     BYTE      PSW
      000000F3H   SFRSYM    DATA     BYTE      P2MF32
      00000092H   SFRSYM    DATA     BYTE      P6MF10
      000000EAH   SFRSYM    DATA     BYTE      PINEN
      000000F7H   SFRSYM    DATA     BYTE      P3MF32
      000000AAH   SFRSYM    DATA     BYTE      WDCON
      000000FBH   SFRSYM    DATA     BYTE      P0MF54
      000000ECH   SFRSYM    DATA     BYTE      P4MF32
      000000EBH   SFRSYM    DATA     BYTE      PIPEN
      000000E9H   SFRSYM    DATA     BYTE      DMA0TSR
      000000DBH   SFRSYM    DATA     BYTE      SC0ETURD0
      020002F2H   SYMBOL    XDATA    ---       acMAINDigitRawData
      020003B7H   SYMBOL    XDATA    ---       auMAINDigitMap
      0200046FH   SYMBOL    XDATA    ---       acTEMPDigitRawData
      0200049AH   SYMBOL    XDATA    ---       auTEMPDigitMap
      01004FD8H   SYMBOL    CONST    ---       g_LCDZoneInfo
      020004B0H   SYMBOL    XDATA    ---       acVERDigitRawData
      02000504H   SYMBOL    XDATA    ---       acPPMDigitRawData
      0200052EH   SYMBOL    XDATA    ---       auVERDigitMap
      02000542H   SYMBOL    XDATA    ---       auPPMDigitMap

      01004F95H   BLOCK     CODE     ---       LVL=0
      01004F95H   LINE      CODE     ---       #48
      01004F95H   LINE      CODE     ---       #49
      01004F95H   LINE      CODE     ---       #50
      01004F9BH   LINE      CODE     ---       #51
      ---         BLOCKEND  ---      ---       LVL=0
      020002EEH   SYMBOL    XDATA    BYTE      updatecount

      01003424H   BLOCK     CODE     ---       LVL=0
      01003424H   BLOCK     CODE     NEAR LAB  LVL=1
      0200006CH   SYMBOL    XDATA    DWORD     u32ChanelMsk
      02000070H   SYMBOL    XDATA    CHAR      i8Ret
      02000071H   SYMBOL    XDATA    CHAR      i8TKChan
      00000007H   SYMBOL    DATA     CHAR      i8TKChanTemp
      00000020H.0 SYMBOL    BIT      BIT       lcdct
      010034C9H   SYMBOL    CODE     VOID      TKRECHECK
      0100354DH   SYMBOL    CODE     VOID      TKCHECKEND
      01003455H   BLOCK     CODE     NEAR LAB  LVL=2
      02000072H   SYMBOL    XDATA    CHAR      i8TKChan
LX51 LINKER/LOCATER V4.66.97.0                                                        04/28/2025  14:43:25  PAGE 34


      020002EFH   SYMBOL    XDATA    CHAR      i8LedChan
      02000073H   SYMBOL    XDATA    ---       ai8Signal
      ---         BLOCKEND  ---      ---       LVL=2
      ---         BLOCKEND  ---      ---       LVL=1
      01003424H   LINE      CODE     ---       #153
      01003424H   LINE      CODE     ---       #154
      01003424H   LINE      CODE     ---       #156
      0100342AH   LINE      CODE     ---       #158
      0100342CH   LINE      CODE     ---       #163
      0100342EH   LINE      CODE     ---       #173
      01003433H   LINE      CODE     ---       #174
      01003435H   LINE      CODE     ---       #178
      01003438H   LINE      CODE     ---       #179
      01003441H   LINE      CODE     ---       #183
      01003444H   LINE      CODE     ---       #188
      01003447H   LINE      CODE     ---       #190
      01003455H   LINE      CODE     ---       #242
      01003455H   LINE      CODE     ---       #243
      0100345BH   LINE      CODE     ---       #247
      01003469H   LINE      CODE     ---       #248
      01003469H   LINE      CODE     ---       #250
      0100346BH   LINE      CODE     ---       #251
      0100346BH   LINE      CODE     ---       #254
      0100347CH   LINE      CODE     ---       #257
      0100347FH   LINE      CODE     ---       #260
      01003490H   LINE      CODE     ---       #263
      01003493H   LINE      CODE     ---       #266
      01003498H   LINE      CODE     ---       #267
      0100349BH   LINE      CODE     ---       #268
      010034A0H   LINE      CODE     ---       #269
      010034A3H   LINE      CODE     ---       #272
      010034A6H   LINE      CODE     ---       #274
      010034ABH   LINE      CODE     ---       #275
      010034AFH   LINE      CODE     ---       #276
      010034B1H   LINE      CODE     ---       #279
      010034B1H   LINE      CODE     ---       #281
      010034BCH   LINE      CODE     ---       #282
      010034BCH   LINE      CODE     ---       #283
      010034BDH   LINE      CODE     ---       #285
      010034C9H   LINE      CODE     ---       #287
      010034C9H   LINE      CODE     ---       #288
      010034D7H   LINE      CODE     ---       #290
      010034E5H   LINE      CODE     ---       #291
      010034E5H   LINE      CODE     ---       #292
      010034F9H   LINE      CODE     ---       #294
      01003505H   LINE      CODE     ---       #295
      01003505H   LINE      CODE     ---       #296
      0100350DH   LINE      CODE     ---       #297
      01003514H   LINE      CODE     ---       #299
      01003516H   LINE      CODE     ---       #300
      01003516H   LINE      CODE     ---       #302
      01003516H   LINE      CODE     ---       #303
      01003517H   LINE      CODE     ---       #304
      01003519H   LINE      CODE     ---       #305
      01003519H   LINE      CODE     ---       #306
      01003519H   LINE      CODE     ---       #308
      01003519H   LINE      CODE     ---       #309
      0100352EH   LINE      CODE     ---       #310
      01003536H   LINE      CODE     ---       #311
      01003547H   LINE      CODE     ---       #312
      01003547H   LINE      CODE     ---       #318
      01003547H   LINE      CODE     ---       #320
      0100354DH   LINE      CODE     ---       #322
      0100354DH   LINE      CODE     ---       #325
      0100355EH   LINE      CODE     ---       #326
LX51 LINKER/LOCATER V4.66.97.0                                                        04/28/2025  14:43:25  PAGE 35


      0100355EH   LINE      CODE     ---       #327
      01003564H   LINE      CODE     ---       #328
      01003568H   LINE      CODE     ---       #331
      01003568H   LINE      CODE     ---       #333
      01003575H   LINE      CODE     ---       #334
      01003575H   LINE      CODE     ---       #335
      01003575H   LINE      CODE     ---       #336
      01003578H   LINE      CODE     ---       #338
      0100357BH   LINE      CODE     ---       #340
      0100357BH   LINE      CODE     ---       #343
      01003584H   LINE      CODE     ---       #344
      01003584H   LINE      CODE     ---       #345
      01003584H   LINE      CODE     ---       #346
      01003587H   LINE      CODE     ---       #347
      01003587H   LINE      CODE     ---       #348
      0100358AH   LINE      CODE     ---       #349
      0100358CH   LINE      CODE     ---       #351
      0100358CH   LINE      CODE     ---       #352
      0100358FH   LINE      CODE     ---       #353
      0100358FH   LINE      CODE     ---       #354
      01003595H   LINE      CODE     ---       #355
      0100359AH   LINE      CODE     ---       #356
      0100359DH   LINE      CODE     ---       #357
      0100359DH   LINE      CODE     ---       #359
      010035A0H   LINE      CODE     ---       #360
      010035A0H   LINE      CODE     ---       #361
      ---         BLOCKEND  ---      ---       LVL=0

      ---         MODULE    ---      ---       TK_DATA
      0100EE80H   PUBLIC    CONST    ---       TK_Data

      ---         MODULE    ---      ---       TK_DEBUGUART
      01004EE9H   PUBLIC    CODE     ---       _putchar
      01004E09H   PUBLIC    CODE     ---       UART1_Init
      01004F10H   PUBLIC    CODE     ---       InitialUART1_Timer3
      000000FFH   SFRSYM    DATA     BYTE      P1MF54
      000000E1H   SFRSYM    DATA     BYTE      P5MF32
      000000DBH   SFRSYM    DATA     BYTE      SC1ETURD0
      000000B1H   SFRSYM    DATA     BYTE      P0M1
      000000F1H   SFRSYM    DATA     BYTE      DMA1TSR
      000000DCH   SFRSYM    DATA     BYTE      SC0ETURD1
      000000B2H   SFRSYM    DATA     BYTE      RTCTALMMIN
      000000F4H   SFRSYM    DATA     BYTE      P2MF54
      000000DCH   SFRSYM    DATA     BYTE      SC1ETURD1
      000000B1H   SFRSYM    DATA     BYTE      DMA2TSR
      00000093H   SFRSYM    DATA     BYTE      P6MF32
      000000B3H   SFRSYM    DATA     BYTE      P1M1
      000000B2H   SFRSYM    DATA     BYTE      P0M2
      00000080H   SFRSYM    DATA     BYTE      P0
      000000AAH   SFRSYM    DATA     BYTE      RTCTIMEMIN
      000000E9H   SFRSYM    DATA     BYTE      P3MF54
      000000A9H   SFRSYM    DATA     BYTE      DMA3TSR
      000000B5H   SFRSYM    DATA     BYTE      P2M1
      000000B4H   SFRSYM    DATA     BYTE      P1M2
      00000090H   SFRSYM    DATA     BYTE      P1
      000000CEH   SFRSYM    DATA     BYTE      PWM0FBS
      000000FCH   SFRSYM    DATA     BYTE      P0MF76
      000000EDH   SFRSYM    DATA     BYTE      P4MF54
      000000C2H   SFRSYM    DATA     BYTE      P3M1
      000000B6H   SFRSYM    DATA     BYTE      P2M2
      000000A0H   SFRSYM    DATA     BYTE      P2
      000000C0H.6 SFRSYM    DATA     BIT       I2CEN0
      000000F1H   SFRSYM    DATA     BYTE      P1MF76
      000000E2H   SFRSYM    DATA     BYTE      P5MF54
      000000C3H   SFRSYM    DATA     BYTE      P3M2
LX51 LINKER/LOCATER V4.66.97.0                                                        04/28/2025  14:43:25  PAGE 36


      000000B9H   SFRSYM    DATA     BYTE      P4M1
      000000B0H   SFRSYM    DATA     BYTE      P3
      000000D0H.6 SFRSYM    DATA     BIT       AC
      000000E8H.6 SFRSYM    DATA     BIT       I2CEN1
      000000F5H   SFRSYM    DATA     BYTE      P2MF76
      00000094H   SFRSYM    DATA     BYTE      P6MF54
      000000BDH   SFRSYM    DATA     BYTE      P5M1
      000000BAH   SFRSYM    DATA     BYTE      P4M2
      000000D8H   SFRSYM    DATA     BYTE      P4
      0000009BH   SFRSYM    DATA     BYTE      EIE0
      0000008FH   SFRSYM    DATA     BYTE      WKCON
      00000084H   SFRSYM    DATA     BYTE      RCTRIM0
      000000EAH   SFRSYM    DATA     BYTE      P3MF76
      00000084H   SFRSYM    DATA     BYTE      P6M1
      000000BEH   SFRSYM    DATA     BYTE      P5M2
      000000B1H   SFRSYM    DATA     BYTE      P5
      0000009CH   SFRSYM    DATA     BYTE      EIE1
      00000085H   SFRSYM    DATA     BYTE      RCTRIM1
      000000A8H.7 SFRSYM    DATA     BIT       EA
      000000EEH   SFRSYM    DATA     BYTE      P4MF76
      000000A7H   SFRSYM    DATA     BYTE      P6
      00000085H   SFRSYM    DATA     BYTE      P6M2
      000000E3H   SFRSYM    DATA     BYTE      P5MF76
      000000FBH   SFRSYM    DATA     BYTE      PWM0MEN
      00000095H   SFRSYM    DATA     BYTE      P6MF76
      0000008DH   SFRSYM    DATA     BYTE      PWM1MEN
      000000A0H.5 SFRSYM    DATA     BIT       AIN0
      000000BDH   SFRSYM    DATA     BYTE      PWM2MEN
      000000A0H.4 SFRSYM    DATA     BIT       AIN1
      000000CDH   SFRSYM    DATA     BYTE      PWM3MEN
      000000A0H.3 SFRSYM    DATA     BIT       AIN2
      00000098H.7 SFRSYM    DATA     BIT       FE
      000000A0H.2 SFRSYM    DATA     BIT       AIN3
      000000A0H.1 SFRSYM    DATA     BIT       AIN4
      000000D6H   SFRSYM    DATA     BYTE      SC0CR0
      000000A0H.0 SFRSYM    DATA     BIT       AIN5
      000000A8H.6 SFRSYM    DATA     BIT       EADC
      000000E6H   SFRSYM    DATA     BYTE      SC1CR0
      000000D7H   SFRSYM    DATA     BYTE      SC0CR1
      000000A8H   SFRSYM    DATA     BYTE      IE
      00000096H   SFRSYM    DATA     BYTE      CKSWT
      000000B0H.1 SFRSYM    DATA     BIT       AIN6
      000000E7H   SFRSYM    DATA     BYTE      SC1CR1
      000000EFH   SFRSYM    DATA     BYTE      EIP0
      000000B0H.2 SFRSYM    DATA     BIT       AIN7
      000000FEH   SFRSYM    DATA     BYTE      EIP1
      000000ACH   SFRSYM    DATA     BYTE      EIP2
      000000E4H   SFRSYM    DATA     BYTE      ADCBAH
      000000C7H   SFRSYM    DATA     BYTE      TA
      000000E4H   SFRSYM    DATA     BYTE      BRCTRIM
      000000BDH   SFRSYM    DATA     BYTE      RTCTICK
      000000C0H.0 SFRSYM    DATA     BIT       I2C0PX
      000000A8H.4 SFRSYM    DATA     BIT       ES
      000000E8H.0 SFRSYM    DATA     BIT       I2CPX1
      000000C0H.5 SFRSYM    DATA     BIT       STA0
      000000B8H.6 SFRSYM    DATA     BIT       PADC
      000000CBH   SFRSYM    DATA     BYTE      ADCBAL
      000000B8H   SFRSYM    DATA     BYTE      IP
      000000E8H.5 SFRSYM    DATA     BIT       STA1
      000000E5H   SFRSYM    DATA     BYTE      ADCCAL
      000000A8H.5 SFRSYM    DATA     BIT       EBOD
      00000098H.0 SFRSYM    DATA     BIT       RI
      000000ADH   SFRSYM    DATA     BYTE      RTCCALDAY
      000000A4H   SFRSYM    DATA     BYTE      RTCFREQADJ0
      000000F8H.7 SFRSYM    DATA     BIT       FE_1
LX51 LINKER/LOCATER V4.66.97.0                                                        04/28/2025  14:43:25  PAGE 37


      000000D0H.7 SFRSYM    DATA     BIT       CY
      000000A5H   SFRSYM    DATA     BYTE      RTCFREQADJ1
      0000008AH   SFRSYM    DATA     BYTE      P0DW
      00000098H.1 SFRSYM    DATA     BIT       TI
      0000008BH   SFRSYM    DATA     BYTE      P1DW
      000000EFH   SFRSYM    DATA     BYTE      LDOTRIM
      0000008CH   SFRSYM    DATA     BYTE      P2DW
      000000BAH   SFRSYM    DATA     BYTE      SADEN1
      0000008DH   SFRSYM    DATA     BYTE      P3DW
      000000A1H   SFRSYM    DATA     BYTE      RTCINIT
      0000008EH   SFRSYM    DATA     BYTE      P4DW
      0000008FH   SFRSYM    DATA     BYTE      P5DW
      000000BBH   SFRSYM    DATA     BYTE      SADDR1
      0000008FH   SFRSYM    DATA     BYTE      P6DW
      00000097H   SFRSYM    DATA     BYTE      CKEN
      000000B8H.4 SFRSYM    DATA     BIT       PS
      00000081H   SFRSYM    DATA     BYTE      SP
      000000D0H.2 SFRSYM    DATA     BIT       OV
      000000FAH   SFRSYM    DATA     BYTE      PWM0DTCNT
      000000B8H.5 SFRSYM    DATA     BIT       PBOD
      0000009AH   SFRSYM    DATA     BYTE      DMA0SEED
      0000009AH   SFRSYM    DATA     BYTE      P0SR
      00000092H   SFRSYM    DATA     BYTE      P0UP
      000000C0H.4 SFRSYM    DATA     BIT       STO0
      000000AEH   SFRSYM    DATA     BYTE      RTCCALMON
      0000009BH   SFRSYM    DATA     BYTE      DMA1SEED
      0000009CH   SFRSYM    DATA     BYTE      P1SR
      00000093H   SFRSYM    DATA     BYTE      P1UP
      000000E8H.4 SFRSYM    DATA     BIT       STO1
      000000A2H   SFRSYM    DATA     BYTE      RTCRWEN
      0000009CH   SFRSYM    DATA     BYTE      DMA2SEED
      0000009EH   SFRSYM    DATA     BYTE      P2SR
      00000094H   SFRSYM    DATA     BYTE      P2UP
      000000DAH   SFRSYM    DATA     BYTE      SC0EGT
      0000009DH   SFRSYM    DATA     BYTE      DMA3SEED
      000000DAH   SFRSYM    DATA     BYTE      SC1EGT
      000000ADH   SFRSYM    DATA     BYTE      P3SR
      00000095H   SFRSYM    DATA     BYTE      P3UP
      000000BCH   SFRSYM    DATA     BYTE      P4SR
      00000096H   SFRSYM    DATA     BYTE      P4UP
      000000A3H   SFRSYM    DATA     BYTE      RTCCLKSEL
      000000AEH   SFRSYM    DATA     BYTE      P5SR
      00000097H   SFRSYM    DATA     BYTE      P5UP
      000000F8H.0 SFRSYM    DATA     BIT       RI_1
      00000097H   SFRSYM    DATA     BYTE      P6UP
      0000008EH   SFRSYM    DATA     BYTE      P6SR
      000000AAH   SFRSYM    DATA     BYTE      VRFTRIM
      000000BDH   SFRSYM    DATA     BYTE      I2C0STAT
      00000095H   SFRSYM    DATA     BYTE      DMA0CCNT
      000000F8H.1 SFRSYM    DATA     BIT       TI_1
      000000FCH   SFRSYM    DATA     BYTE      LCDDAT
      000000B9H   SFRSYM    DATA     BYTE      RTCCLKFMT
      000000BEH   SFRSYM    DATA     BYTE      CWKH
      000000CBH   SFRSYM    DATA     BYTE      RCMP2H
      000000EEH   SFRSYM    DATA     BYTE      DMA1CCNT
      000000B4H   SFRSYM    DATA     BYTE      I2C1STAT
      000000FAH   SFRSYM    DATA     BYTE      LCDCLK
      000000B6H   SFRSYM    DATA     BYTE      DMA2CCNT
      000000CEH   SFRSYM    DATA     BYTE      AINDIDS0
      000000CFH   SFRSYM    DATA     BYTE      ADCMPH
      00000080H.0 SFRSYM    DATA     BIT       P00
      000000F6H   SFRSYM    DATA     BYTE      LCDCPCT0
      000000CEH   SFRSYM    DATA     BYTE      AINDIDS1
      000000AEH   SFRSYM    DATA     BYTE      DMA3CCNT
      00000090H.0 SFRSYM    DATA     BIT       P10
LX51 LINKER/LOCATER V4.66.97.0                                                        04/28/2025  14:43:25  PAGE 38


      00000080H.1 SFRSYM    DATA     BIT       P01
      000000EAH   SFRSYM    DATA     BYTE      LCDCPCT1
      00000099H   SFRSYM    DATA     BYTE      SBUF
      00000087H   SFRSYM    DATA     BYTE      PCON
      000000C0H.2 SFRSYM    DATA     BIT       AA0
      000000A0H.0 SFRSYM    DATA     BIT       P20
      00000090H.1 SFRSYM    DATA     BIT       P11
      00000080H.2 SFRSYM    DATA     BIT       P02
      000000CAH   SFRSYM    DATA     BYTE      RCMP2L
      00000086H   SFRSYM    DATA     BYTE      CWKL
      000000E8H.2 SFRSYM    DATA     BIT       AA1
      000000B0H.0 SFRSYM    DATA     BIT       P30
      000000A0H.1 SFRSYM    DATA     BIT       P21
      00000090H.2 SFRSYM    DATA     BIT       P12
      00000080H.3 SFRSYM    DATA     BIT       P03
      000000E3H   SFRSYM    DATA     BYTE      ADCDLY
      000000CEH   SFRSYM    DATA     BYTE      ADCMPL
      000000D8H.0 SFRSYM    DATA     BIT       P40
      000000B0H.1 SFRSYM    DATA     BIT       P31
      000000A0H.2 SFRSYM    DATA     BIT       P22
      00000090H.3 SFRSYM    DATA     BIT       P13
      00000080H.4 SFRSYM    DATA     BIT       P04
      000000F5H   SFRSYM    DATA     BYTE      SPI0DR
      00000098H   SFRSYM    DATA     BYTE      SCON
      000000D8H.1 SFRSYM    DATA     BIT       P41
      000000B0H.2 SFRSYM    DATA     BIT       P32
      000000A0H.3 SFRSYM    DATA     BIT       P23
      00000090H.4 SFRSYM    DATA     BIT       P14
      00000080H.5 SFRSYM    DATA     BIT       P05
      000000B3H   SFRSYM    DATA     BYTE      RTCTALMHR
      000000FCH   SFRSYM    DATA     BYTE      SPI1DR
      00000089H   SFRSYM    DATA     BYTE      TMOD
      00000088H   SFRSYM    DATA     BYTE      TCON
      000000D8H.2 SFRSYM    DATA     BIT       P42
      000000B0H.3 SFRSYM    DATA     BIT       P33
      000000A0H.4 SFRSYM    DATA     BIT       P24
      00000090H.5 SFRSYM    DATA     BIT       P15
      00000080H.6 SFRSYM    DATA     BIT       P06
      000000ABH   SFRSYM    DATA     BYTE      RTCTIMEHR
      000000D8H.3 SFRSYM    DATA     BIT       P43
      000000B0H.4 SFRSYM    DATA     BIT       P34
      000000A0H.5 SFRSYM    DATA     BIT       P25
      00000090H.6 SFRSYM    DATA     BIT       P16
      00000080H.7 SFRSYM    DATA     BIT       P07
      000000FCH   SFRSYM    DATA     BYTE      PWM0MD
      000000D1H   SFRSYM    DATA     BYTE      PWM0CON0
      000000D8H.4 SFRSYM    DATA     BIT       P44
      000000B0H.5 SFRSYM    DATA     BIT       P35
      000000A0H.6 SFRSYM    DATA     BIT       P26
      00000090H.7 SFRSYM    DATA     BIT       P17
      0000009CH   SFRSYM    DATA     BYTE      PWM1CON0
      0000008CH   SFRSYM    DATA     BYTE      PWM1MD
      000000DFH   SFRSYM    DATA     BYTE      PWM0CON1
      000000D8H.5 SFRSYM    DATA     BIT       P45
      000000B0H.6 SFRSYM    DATA     BIT       P36
      000000A0H.7 SFRSYM    DATA     BIT       P27
      000000C4H   SFRSYM    DATA     BYTE      PWM2CON0
      000000BCH   SFRSYM    DATA     BYTE      PWM2MD
      0000009DH   SFRSYM    DATA     BYTE      PWM1CON1
      000000D8H.6 SFRSYM    DATA     BIT       P46
      000000B0H.7 SFRSYM    DATA     BIT       P37
      000000D4H   SFRSYM    DATA     BYTE      PWM3CON0
      000000CCH   SFRSYM    DATA     BYTE      PWM3MD
      000000C5H   SFRSYM    DATA     BYTE      PWM2CON1
      000000D8H.7 SFRSYM    DATA     BIT       P47
LX51 LINKER/LOCATER V4.66.97.0                                                        04/28/2025  14:43:25  PAGE 39


      000000D5H   SFRSYM    DATA     BYTE      PWM3CON1
      000000E5H   SFRSYM    DATA     BYTE      C0H
      000000B7H   SFRSYM    DATA     BYTE      RTCCALMYEAR
      000000E7H   SFRSYM    DATA     BYTE      C1H
      000000C1H   SFRSYM    DATA     BYTE      I2C0ADDR0
      000000B4H   SFRSYM    DATA     BYTE      RTCTALMHZ
      000000BFH   SFRSYM    DATA     BYTE      RWKH
      000000A1H   SFRSYM    DATA     BYTE      I2C0ADDR1
      000000EEH   SFRSYM    DATA     BYTE      C2H
      000000B2H   SFRSYM    DATA     BYTE      I2C1ADDR0
      0000009FH   SFRSYM    DATA     BYTE      CHPCON
      00000088H.1 SFRSYM    DATA     BIT       IE0
      000000F5H   SFRSYM    DATA     BYTE      LCDCPALCT0
      000000A4H   SFRSYM    DATA     BYTE      I2C1ADDR1
      000000A2H   SFRSYM    DATA     BYTE      I2C0ADDR2
      000000D1H   SFRSYM    DATA     BYTE      PWM0PH
      00000088H.3 SFRSYM    DATA     BIT       IE1
      000000E9H   SFRSYM    DATA     BYTE      LCDCPALCT1
      000000A5H   SFRSYM    DATA     BYTE      I2C1ADDR2
      000000A3H   SFRSYM    DATA     BYTE      I2C0ADDR3
      00000086H   SFRSYM    DATA     BYTE      PWM1PH
      000000E4H   SFRSYM    DATA     BYTE      C0L
      00000091H   SFRSYM    DATA     BYTE      SFRS
      000000B9H   SFRSYM    DATA     BYTE      PWM2PH
      000000A6H   SFRSYM    DATA     BYTE      I2C1ADDR3
      000000E6H   SFRSYM    DATA     BYTE      C1L
      000000C8H.0 SFRSYM    DATA     BIT       CM_RL2
      000000BCH   SFRSYM    DATA     BYTE      RTCLEAPYEAR
      000000C9H   SFRSYM    DATA     BYTE      PWM3PH
      000000EDH   SFRSYM    DATA     BYTE      C2L
      000000F0H   SFRSYM    DATA     BYTE      B
      000000DFH   SFRSYM    DATA     BYTE      SC0TSR
      00000086H   SFRSYM    DATA     BYTE      RWKL
      000000DFH   SFRSYM    DATA     BYTE      SC1TSR
      000000D9H   SFRSYM    DATA     BYTE      PWM0PL
      00000099H   SFRSYM    DATA     BYTE      PWM1PL
      000000F4H   SFRSYM    DATA     BYTE      SPI0SR
      000000C1H   SFRSYM    DATA     BYTE      PWM2PL
      000000D6H   SFRSYM    DATA     BYTE      PWM0NP
      000000FBH   SFRSYM    DATA     BYTE      SPI1SR
      000000A5H   SFRSYM    DATA     BYTE      IAPUEN
      00000099H   SFRSYM    DATA     BYTE      WDCONH
      000000D1H   SFRSYM    DATA     BYTE      PWM3PL
      000000E0H   SFRSYM    DATA     BYTE      ACC
      000000D4H   SFRSYM    DATA     BYTE      ACMPSR
      000000A8H.1 SFRSYM    DATA     BIT       ET0
      000000BCH   SFRSYM    DATA     BYTE      I2C0DAT
      000000A4H   SFRSYM    DATA     BYTE      IAPTRG
      00000092H   SFRSYM    DATA     BYTE      DMA0CR0
      000000A8H.3 SFRSYM    DATA     BIT       ET1
      00000088H.5 SFRSYM    DATA     BIT       TF0
      0000008AH   SFRSYM    DATA     BYTE      DMA0CR1
      000000EBH   SFRSYM    DATA     BYTE      DMA1CR0
      000000BEH   SFRSYM    DATA     BYTE      I2C0CLK
      000000B3H   SFRSYM    DATA     BYTE      I2C1DAT
      00000088H.7 SFRSYM    DATA     BIT       TF1
      000000FBH   SFRSYM    DATA     BYTE      LCDPTR
      0000008BH   SFRSYM    DATA     BYTE      DMA1CR1
      000000B3H   SFRSYM    DATA     BYTE      DMA2CR0
      000000B5H   SFRSYM    DATA     BYTE      I2C1CLK
      000000C8H.7 SFRSYM    DATA     BIT       TF2
      000000C0H.3 SFRSYM    DATA     BIT       SI0
      00000098H.2 SFRSYM    DATA     BIT       RB8
      0000008CH   SFRSYM    DATA     BYTE      DMA2CR1
      000000ABH   SFRSYM    DATA     BYTE      DMA3CR0
LX51 LINKER/LOCATER V4.66.97.0                                                        04/28/2025  14:43:25  PAGE 40


      0000008CH   SFRSYM    DATA     BYTE      TH0
      000000E8H.3 SFRSYM    DATA     BIT       SI1
      000000A8H.0 SFRSYM    DATA     BIT       EX0
      00000088H.0 SFRSYM    DATA     BIT       IT0
      0000008DH   SFRSYM    DATA     BYTE      DMA3CR1
      000000C6H   SFRSYM    DATA     BYTE      RH3
      0000008DH   SFRSYM    DATA     BYTE      TH1
      000000A8H.2 SFRSYM    DATA     BIT       EX1
      00000098H.3 SFRSYM    DATA     BIT       TB8
      00000088H.2 SFRSYM    DATA     BIT       IT1
      000000FDH   SFRSYM    DATA     BYTE      LCDPWR
      000000CDH   SFRSYM    DATA     BYTE      TH2
      000000D0H.0 SFRSYM    DATA     BIT       P
      000000F6H   SFRSYM    DATA     BYTE      DMA0BAH
      00000098H.7 SFRSYM    DATA     BIT       SM0
      000000A9H   SFRSYM    DATA     BYTE      VRFCON
      000000FDH   SFRSYM    DATA     BYTE      DMA1BAH
      000000C0H   SFRSYM    DATA     BYTE      I2C0CON
      0000008AH   SFRSYM    DATA     BYTE      TL0
      00000098H.6 SFRSYM    DATA     BIT       SM1
      000000B2H   SFRSYM    DATA     BYTE      DMA2BAH
      000000E8H   SFRSYM    DATA     BYTE      I2C1CON
      000000C5H   SFRSYM    DATA     BYTE      RL3
      0000008BH   SFRSYM    DATA     BYTE      TL1
      00000098H.5 SFRSYM    DATA     BIT       SM2
      000000A7H   SFRSYM    DATA     BYTE      RTCINTSTS
      000000AAH   SFRSYM    DATA     BYTE      DMA3BAH
      000000F9H   SFRSYM    DATA     BYTE      PWM0DTEN
      000000CCH   SFRSYM    DATA     BYTE      TL2
      000000C6H   SFRSYM    DATA     BYTE      PORDIS
      00000099H   SFRSYM    DATA     BYTE      P0S
      000000B8H.1 SFRSYM    DATA     BIT       PT0
      0000009BH   SFRSYM    DATA     BYTE      P1S
      000000D0H.3 SFRSYM    DATA     BIT       RS0
      000000B8H.3 SFRSYM    DATA     BIT       PT1
      000000B7H   SFRSYM    DATA     BYTE      PWM0INTC
      0000009DH   SFRSYM    DATA     BYTE      P2S
      000000DDH   SFRSYM    DATA     BYTE      SC0IE
      000000D0H.4 SFRSYM    DATA     BIT       RS1
      00000088H.4 SFRSYM    DATA     BIT       TR0
      000000DDH   SFRSYM    DATA     BYTE      SC1IE
      0000009EH   SFRSYM    DATA     BYTE      PWM1INTC
      000000FFH   SFRSYM    DATA     BYTE      LVRDIS
      000000ACH   SFRSYM    DATA     BYTE      P3S
      000000BFH   SFRSYM    DATA     BYTE      I2C0TOC
      00000088H.6 SFRSYM    DATA     BIT       TR1
      000000C6H   SFRSYM    DATA     BYTE      PWM2INTC
      000000BBH   SFRSYM    DATA     BYTE      P4S
      000000F7H   SFRSYM    DATA     BYTE      EIPH0
      000000D5H   SFRSYM    DATA     BYTE      ACMPVREF
      000000B6H   SFRSYM    DATA     BYTE      I2C1TOC
      000000C8H.2 SFRSYM    DATA     BIT       TR2
      000000B8H.0 SFRSYM    DATA     BIT       PX0
      000000D6H   SFRSYM    DATA     BYTE      PWM3INTC
      000000BFH   SFRSYM    DATA     BYTE      P5S
      000000FFH   SFRSYM    DATA     BYTE      EIPH1
      000000B8H.2 SFRSYM    DATA     BIT       PX1
      000000CFH   SFRSYM    DATA     BYTE      I2C0ADDRM
      00000096H   SFRSYM    DATA     BYTE      P6S
      000000ADH   SFRSYM    DATA     BYTE      EIPH2
      000000D7H   SFRSYM    DATA     BYTE      I2C1ADDRM
      00000085H   SFRSYM    DATA     BYTE      XLTCON
      000000E6H   SFRSYM    DATA     BYTE      ADCCN
      000000A1H   SFRSYM    DATA     BYTE      ADCCON0
      000000F1H   SFRSYM    DATA     BYTE      LCDCPUMP
LX51 LINKER/LOCATER V4.66.97.0                                                        04/28/2025  14:43:25  PAGE 41


      000000BFH   SFRSYM    DATA     BYTE      RTCCAMSK
      000000E1H   SFRSYM    DATA     BYTE      ADCCON1
      00000092H   SFRSYM    DATA     BYTE      DMA0CRC
      000000E2H   SFRSYM    DATA     BYTE      ADCCON2
      00000083H   SFRSYM    DATA     BYTE      DPH
      000000F8H.2 SFRSYM    DATA     BIT       RB8_1
      00000093H   SFRSYM    DATA     BYTE      DMA1CRC
      000000D9H   SFRSYM    DATA     BYTE      SC0DR
      00000094H   SFRSYM    DATA     BYTE      DMA2CRC
      000000D9H   SFRSYM    DATA     BYTE      SC1DR
      00000093H   SFRSYM    DATA     BYTE      DMA0MAL
      000000F8H.3 SFRSYM    DATA     BIT       TB8_1
      00000095H   SFRSYM    DATA     BYTE      DMA3CRC
      000000ECH   SFRSYM    DATA     BYTE      DMA1MAL
      000000CAH   SFRSYM    DATA     BYTE      PIF
      000000B4H   SFRSYM    DATA     BYTE      DMA2MAL
      00000082H   SFRSYM    DATA     BYTE      DPL
      000000F8H.7 SFRSYM    DATA     BIT       SM0_1
      000000ACH   SFRSYM    DATA     BYTE      DMA3MAL
      000000D2H   SFRSYM    DATA     BYTE      PWM0C0H
      000000B7H   SFRSYM    DATA     BYTE      IPH
      000000F8H.6 SFRSYM    DATA     BIT       SM1_1
      000000FEH   SFRSYM    DATA     BYTE      LCDBL
      0000008AH   SFRSYM    DATA     BYTE      PWM1C0H
      000000D3H   SFRSYM    DATA     BYTE      PWM0C1H
      0000009AH   SFRSYM    DATA     BYTE      SBUF1
      000000F8H.5 SFRSYM    DATA     BIT       SM2_1
      000000BAH   SFRSYM    DATA     BYTE      PWM2C0H
      0000008BH   SFRSYM    DATA     BYTE      PWM1C1H
      000000D4H   SFRSYM    DATA     BYTE      PWM0C2H
      000000F3H   SFRSYM    DATA     BYTE      SPI0CR0
      000000DEH   SFRSYM    DATA     BYTE      SC0IS
      000000C3H   SFRSYM    DATA     BYTE      ADCRH
      000000DEH   SFRSYM    DATA     BYTE      SC1IS
      000000CAH   SFRSYM    DATA     BYTE      PWM3C0H
      000000BBH   SFRSYM    DATA     BYTE      PWM2C1H
      000000F3H   SFRSYM    DATA     BYTE      SPI0CR1
      000000D5H   SFRSYM    DATA     BYTE      PWM0C3H
      000000F9H   SFRSYM    DATA     BYTE      SPI1CR0
      000000A7H   SFRSYM    DATA     BYTE      IAPAH
      00000098H.4 SFRSYM    DATA     BIT       REN
      000000F9H   SFRSYM    DATA     BYTE      LCDCON0
      000000CBH   SFRSYM    DATA     BYTE      PWM3C1H
      000000DAH   SFRSYM    DATA     BYTE      PWM0C0L
      000000C4H   SFRSYM    DATA     BYTE      PWM0C4H
      000000FAH   SFRSYM    DATA     BYTE      SPI1CR1
      000000F8H   SFRSYM    DATA     BYTE      S1CON
      000000AEH   SFRSYM    DATA     BYTE      IAPFD
      000000F4H   SFRSYM    DATA     BYTE      LCDCON1
      0000009AH   SFRSYM    DATA     BYTE      PWM1C0L
      000000E1H   SFRSYM    DATA     BYTE      CAPCON0
      000000DBH   SFRSYM    DATA     BYTE      PWM0C1L
      000000C5H   SFRSYM    DATA     BYTE      PWM0C5H
      000000C2H   SFRSYM    DATA     BYTE      PWM2C0L
      0000009BH   SFRSYM    DATA     BYTE      PWM1C1L
      000000E2H   SFRSYM    DATA     BYTE      CAPCON1
      000000DCH   SFRSYM    DATA     BYTE      PWM0C2L
      000000C9H   SFRSYM    DATA     BYTE      T2MOD
      000000C8H   SFRSYM    DATA     BYTE      T2CON
      000000C2H   SFRSYM    DATA     BYTE      ADCRL
      000000A3H   SFRSYM    DATA     BYTE      BODCON0
      000000B5H   SFRSYM    DATA     BYTE      RTCCALMDAY
      000000D2H   SFRSYM    DATA     BYTE      PWM3C0L
      000000C3H   SFRSYM    DATA     BYTE      PWM2C1L
      000000E3H   SFRSYM    DATA     BYTE      CAPCON2
LX51 LINKER/LOCATER V4.66.97.0                                                        04/28/2025  14:43:25  PAGE 42


      000000DDH   SFRSYM    DATA     BYTE      PWM0C3L
      000000D2H   SFRSYM    DATA     BYTE      ACMPCR0
      000000C4H   SFRSYM    DATA     BYTE      T3CON
      000000ABH   SFRSYM    DATA     BYTE      BODCON1
      000000A6H   SFRSYM    DATA     BYTE      IAPAL
      000000D3H   SFRSYM    DATA     BYTE      PWM3C1L
      000000CCH   SFRSYM    DATA     BYTE      PWM0C4L
      00000084H   SFRSYM    DATA     BYTE      LIRCTRIM
      000000D3H   SFRSYM    DATA     BYTE      ACMPCR1
      00000094H   SFRSYM    DATA     BYTE      DMA0CNT
      000000A6H   SFRSYM    DATA     BYTE      RTCINTEN
      000000CDH   SFRSYM    DATA     BYTE      PWM0C5L
      000000ABH   SFRSYM    DATA     BYTE      ACMPCR2
      000000EDH   SFRSYM    DATA     BYTE      DMA1CNT
      000000E5H   SFRSYM    DATA     BYTE      ADCSN
      000000B5H   SFRSYM    DATA     BYTE      DMA2CNT
      000000BEH   SFRSYM    DATA     BYTE      RTCTAMSK
      000000ADH   SFRSYM    DATA     BYTE      DMA3CNT
      000000B9H   SFRSYM    DATA     BYTE      SADEN
      000000AFH   SFRSYM    DATA     BYTE      IAPCN
      000000A1H   SFRSYM    DATA     BYTE      PIPS0
      000000AFH   SFRSYM    DATA     BYTE      RTCCALYEAR
      000000A2H   SFRSYM    DATA     BYTE      PIPS1
      000000E7H   SFRSYM    DATA     BYTE      ADCSR
      000000A3H   SFRSYM    DATA     BYTE      PIPS2
      000000A9H   SFRSYM    DATA     BYTE      SADDR
      0000008EH   SFRSYM    DATA     BYTE      CKCON
      000000FDH   SFRSYM    DATA     BYTE      LVRFLTEN
      000000A4H   SFRSYM    DATA     BYTE      PIPS3
      000000A5H   SFRSYM    DATA     BYTE      PIPS4
      000000EAH   SFRSYM    DATA     BYTE      MTM0DAL
      000000A2H   SFRSYM    DATA     BYTE      AUXR0
      000000D7H   SFRSYM    DATA     BYTE      PWM0FBD
      000000C9H   SFRSYM    DATA     BYTE      AUXR1
      000000C1H   SFRSYM    DATA     BYTE      CKDIV
      000000A6H   SFRSYM    DATA     BYTE      PIPS5
      000000F2H   SFRSYM    DATA     BYTE      MTM1DAL
      000000B7H   SFRSYM    DATA     BYTE      MTM2DAL
      000000A7H   SFRSYM    DATA     BYTE      PIPS6
      000000CFH   SFRSYM    DATA     BYTE      AUXR3
      000000B6H   SFRSYM    DATA     BYTE      RTCCALMMON
      000000AFH   SFRSYM    DATA     BYTE      MTM3DAL
      000000AFH   SFRSYM    DATA     BYTE      PIPS7
      000000D0H.5 SFRSYM    DATA     BIT       F0
      000000F9H   SFRSYM    DATA     BYTE      P0MF10
      000000F8H.4 SFRSYM    DATA     BIT       REN_1
      000000B1H   SFRSYM    DATA     BYTE      RTCTALMSEC
      000000FDH   SFRSYM    DATA     BYTE      P1MF10
      000000BBH   SFRSYM    DATA     BYTE      RTCWEEKDAY
      000000A9H   SFRSYM    DATA     BYTE      RTCTIMESEC
      000000F2H   SFRSYM    DATA     BYTE      P2MF10
      0000009DH   SFRSYM    DATA     BYTE      RSR
      000000F6H   SFRSYM    DATA     BYTE      P3MF10
      000000FAH   SFRSYM    DATA     BYTE      P0MF32
      000000EBH   SFRSYM    DATA     BYTE      P4MF10
      000000FFH   SFRSYM    DATA     BYTE      LCDMODE
      000000FEH   SFRSYM    DATA     BYTE      P1MF32
      000000EFH   SFRSYM    DATA     BYTE      P5MF10
      000000E9H   SFRSYM    DATA     BYTE      PICON
      000000D0H   SFRSYM    DATA     BYTE      PSW
      000000F3H   SFRSYM    DATA     BYTE      P2MF32
      00000092H   SFRSYM    DATA     BYTE      P6MF10
      000000EAH   SFRSYM    DATA     BYTE      PINEN
      000000F7H   SFRSYM    DATA     BYTE      P3MF32
      000000AAH   SFRSYM    DATA     BYTE      WDCON
LX51 LINKER/LOCATER V4.66.97.0                                                        04/28/2025  14:43:25  PAGE 43


      000000FBH   SFRSYM    DATA     BYTE      P0MF54
      000000ECH   SFRSYM    DATA     BYTE      P4MF32
      000000EBH   SFRSYM    DATA     BYTE      PIPEN
      000000E9H   SFRSYM    DATA     BYTE      DMA0TSR
      000000DBH   SFRSYM    DATA     BYTE      SC0ETURD0

      01004F10H   BLOCK     CODE     ---       LVL=0
      01004F10H   LINE      CODE     ---       #91
      01004F10H   LINE      CODE     ---       #92
      01004F10H   LINE      CODE     ---       #93
      01004F13H   LINE      CODE     ---       #94
      01004F16H   LINE      CODE     ---       #98
      01004F19H   LINE      CODE     ---       #99
      01004F1CH   LINE      CODE     ---       #100
      01004F1FH   LINE      CODE     ---       #101
      ---         BLOCKEND  ---      ---       LVL=0

      01004E09H   BLOCK     CODE     ---       LVL=0
      01004E09H   LINE      CODE     ---       #103
      01004E09H   LINE      CODE     ---       #104
      01004E09H   LINE      CODE     ---       #107
      01004E12H   LINE      CODE     ---       #109
      01004E1BH   LINE      CODE     ---       #116
      01004E1EH   LINE      CODE     ---       #117
      01004E21H   LINE      CODE     ---       #118
      01004E23H   LINE      CODE     ---       #119
      01004E26H   LINE      CODE     ---       #120
      ---         BLOCKEND  ---      ---       LVL=0

      01004EE9H   BLOCK     CODE     ---       LVL=0
      00000007H   SYMBOL    DATA     CHAR      c
      01004EE9H   LINE      CODE     ---       #189
      01004EE9H   LINE      CODE     ---       #190
      01004EE9H   LINE      CODE     ---       #193
      01004EEDH   LINE      CODE     ---       #194
      01004EEDH   LINE      CODE     ---       #195
      01004EF0H   LINE      CODE     ---       #197
      01004EF2H   LINE      CODE     ---       #198
      01004EF5H   LINE      CODE     ---       #199
      01004EF5H   LINE      CODE     ---       #201
      01004EF8H   LINE      CODE     ---       #203
      01004EFAH   LINE      CODE     ---       #204
      01004EFCH   LINE      CODE     ---       #220
      ---         BLOCKEND  ---      ---       LVL=0
      00000007H   SYMBOL    DATA     CHAR      c

      ---         MODULE    ---      ---       TK_LED
      01004F73H   PUBLIC    CODE     ---       InitLEDIO
      00000020H.1 PUBLIC    BIT      BIT       ?TK_lightLED?BIT
      02000082H   PUBLIC    XDATA    BYTE      ?TK_lightLED?BYTE
      01004F3FH   PUBLIC    CODE     ---       TK_lightLED
      000000FFH   SFRSYM    DATA     BYTE      P1MF54
      000000E1H   SFRSYM    DATA     BYTE      P5MF32
      000000DBH   SFRSYM    DATA     BYTE      SC1ETURD0
      000000B1H   SFRSYM    DATA     BYTE      P0M1
      000000F1H   SFRSYM    DATA     BYTE      DMA1TSR
      000000DCH   SFRSYM    DATA     BYTE      SC0ETURD1
      000000B2H   SFRSYM    DATA     BYTE      RTCTALMMIN
      000000F4H   SFRSYM    DATA     BYTE      P2MF54
      000000DCH   SFRSYM    DATA     BYTE      SC1ETURD1
      000000B1H   SFRSYM    DATA     BYTE      DMA2TSR
      00000093H   SFRSYM    DATA     BYTE      P6MF32
      000000B3H   SFRSYM    DATA     BYTE      P1M1
      000000B2H   SFRSYM    DATA     BYTE      P0M2
      00000080H   SFRSYM    DATA     BYTE      P0
LX51 LINKER/LOCATER V4.66.97.0                                                        04/28/2025  14:43:25  PAGE 44


      000000AAH   SFRSYM    DATA     BYTE      RTCTIMEMIN
      000000E9H   SFRSYM    DATA     BYTE      P3MF54
      000000A9H   SFRSYM    DATA     BYTE      DMA3TSR
      000000B5H   SFRSYM    DATA     BYTE      P2M1
      000000B4H   SFRSYM    DATA     BYTE      P1M2
      00000090H   SFRSYM    DATA     BYTE      P1
      000000CEH   SFRSYM    DATA     BYTE      PWM0FBS
      000000FCH   SFRSYM    DATA     BYTE      P0MF76
      000000EDH   SFRSYM    DATA     BYTE      P4MF54
      000000C2H   SFRSYM    DATA     BYTE      P3M1
      000000B6H   SFRSYM    DATA     BYTE      P2M2
      000000A0H   SFRSYM    DATA     BYTE      P2
      000000C0H.6 SFRSYM    DATA     BIT       I2CEN0
      000000F1H   SFRSYM    DATA     BYTE      P1MF76
      000000E2H   SFRSYM    DATA     BYTE      P5MF54
      000000C3H   SFRSYM    DATA     BYTE      P3M2
      000000B9H   SFRSYM    DATA     BYTE      P4M1
      000000B0H   SFRSYM    DATA     BYTE      P3
      000000D0H.6 SFRSYM    DATA     BIT       AC
      000000E8H.6 SFRSYM    DATA     BIT       I2CEN1
      000000F5H   SFRSYM    DATA     BYTE      P2MF76
      00000094H   SFRSYM    DATA     BYTE      P6MF54
      000000BDH   SFRSYM    DATA     BYTE      P5M1
      000000BAH   SFRSYM    DATA     BYTE      P4M2
      000000D8H   SFRSYM    DATA     BYTE      P4
      0000009BH   SFRSYM    DATA     BYTE      EIE0
      0000008FH   SFRSYM    DATA     BYTE      WKCON
      00000084H   SFRSYM    DATA     BYTE      RCTRIM0
      000000EAH   SFRSYM    DATA     BYTE      P3MF76
      00000084H   SFRSYM    DATA     BYTE      P6M1
      000000BEH   SFRSYM    DATA     BYTE      P5M2
      000000B1H   SFRSYM    DATA     BYTE      P5
      0000009CH   SFRSYM    DATA     BYTE      EIE1
      00000085H   SFRSYM    DATA     BYTE      RCTRIM1
      000000A8H.7 SFRSYM    DATA     BIT       EA
      000000EEH   SFRSYM    DATA     BYTE      P4MF76
      000000A7H   SFRSYM    DATA     BYTE      P6
      00000085H   SFRSYM    DATA     BYTE      P6M2
      000000E3H   SFRSYM    DATA     BYTE      P5MF76
      000000FBH   SFRSYM    DATA     BYTE      PWM0MEN
      00000095H   SFRSYM    DATA     BYTE      P6MF76
      0000008DH   SFRSYM    DATA     BYTE      PWM1MEN
      000000A0H.5 SFRSYM    DATA     BIT       AIN0
      000000BDH   SFRSYM    DATA     BYTE      PWM2MEN
      000000A0H.4 SFRSYM    DATA     BIT       AIN1
      000000CDH   SFRSYM    DATA     BYTE      PWM3MEN
      000000A0H.3 SFRSYM    DATA     BIT       AIN2
      00000098H.7 SFRSYM    DATA     BIT       FE
      000000A0H.2 SFRSYM    DATA     BIT       AIN3
      000000A0H.1 SFRSYM    DATA     BIT       AIN4
      000000D6H   SFRSYM    DATA     BYTE      SC0CR0
      000000A0H.0 SFRSYM    DATA     BIT       AIN5
      000000A8H.6 SFRSYM    DATA     BIT       EADC
      000000E6H   SFRSYM    DATA     BYTE      SC1CR0
      000000D7H   SFRSYM    DATA     BYTE      SC0CR1
      000000A8H   SFRSYM    DATA     BYTE      IE
      00000096H   SFRSYM    DATA     BYTE      CKSWT
      000000B0H.1 SFRSYM    DATA     BIT       AIN6
      000000E7H   SFRSYM    DATA     BYTE      SC1CR1
      000000EFH   SFRSYM    DATA     BYTE      EIP0
      000000B0H.2 SFRSYM    DATA     BIT       AIN7
      000000FEH   SFRSYM    DATA     BYTE      EIP1
      000000ACH   SFRSYM    DATA     BYTE      EIP2
      000000E4H   SFRSYM    DATA     BYTE      ADCBAH
      000000C7H   SFRSYM    DATA     BYTE      TA
LX51 LINKER/LOCATER V4.66.97.0                                                        04/28/2025  14:43:25  PAGE 45


      000000E4H   SFRSYM    DATA     BYTE      BRCTRIM
      000000BDH   SFRSYM    DATA     BYTE      RTCTICK
      000000C0H.0 SFRSYM    DATA     BIT       I2C0PX
      000000A8H.4 SFRSYM    DATA     BIT       ES
      000000E8H.0 SFRSYM    DATA     BIT       I2CPX1
      000000C0H.5 SFRSYM    DATA     BIT       STA0
      000000B8H.6 SFRSYM    DATA     BIT       PADC
      000000CBH   SFRSYM    DATA     BYTE      ADCBAL
      000000B8H   SFRSYM    DATA     BYTE      IP
      000000E8H.5 SFRSYM    DATA     BIT       STA1
      000000E5H   SFRSYM    DATA     BYTE      ADCCAL
      000000A8H.5 SFRSYM    DATA     BIT       EBOD
      00000098H.0 SFRSYM    DATA     BIT       RI
      000000ADH   SFRSYM    DATA     BYTE      RTCCALDAY
      000000A4H   SFRSYM    DATA     BYTE      RTCFREQADJ0
      000000F8H.7 SFRSYM    DATA     BIT       FE_1
      000000D0H.7 SFRSYM    DATA     BIT       CY
      000000A5H   SFRSYM    DATA     BYTE      RTCFREQADJ1
      0000008AH   SFRSYM    DATA     BYTE      P0DW
      00000098H.1 SFRSYM    DATA     BIT       TI
      0000008BH   SFRSYM    DATA     BYTE      P1DW
      000000EFH   SFRSYM    DATA     BYTE      LDOTRIM
      0000008CH   SFRSYM    DATA     BYTE      P2DW
      000000BAH   SFRSYM    DATA     BYTE      SADEN1
      0000008DH   SFRSYM    DATA     BYTE      P3DW
      000000A1H   SFRSYM    DATA     BYTE      RTCINIT
      0000008EH   SFRSYM    DATA     BYTE      P4DW
      0000008FH   SFRSYM    DATA     BYTE      P5DW
      000000BBH   SFRSYM    DATA     BYTE      SADDR1
      0000008FH   SFRSYM    DATA     BYTE      P6DW
      00000097H   SFRSYM    DATA     BYTE      CKEN
      000000B8H.4 SFRSYM    DATA     BIT       PS
      00000081H   SFRSYM    DATA     BYTE      SP
      000000D0H.2 SFRSYM    DATA     BIT       OV
      000000FAH   SFRSYM    DATA     BYTE      PWM0DTCNT
      000000B8H.5 SFRSYM    DATA     BIT       PBOD
      0000009AH   SFRSYM    DATA     BYTE      DMA0SEED
      0000009AH   SFRSYM    DATA     BYTE      P0SR
      00000092H   SFRSYM    DATA     BYTE      P0UP
      000000C0H.4 SFRSYM    DATA     BIT       STO0
      000000AEH   SFRSYM    DATA     BYTE      RTCCALMON
      0000009BH   SFRSYM    DATA     BYTE      DMA1SEED
      0000009CH   SFRSYM    DATA     BYTE      P1SR
      00000093H   SFRSYM    DATA     BYTE      P1UP
      000000E8H.4 SFRSYM    DATA     BIT       STO1
      000000A2H   SFRSYM    DATA     BYTE      RTCRWEN
      0000009CH   SFRSYM    DATA     BYTE      DMA2SEED
      0000009EH   SFRSYM    DATA     BYTE      P2SR
      00000094H   SFRSYM    DATA     BYTE      P2UP
      000000DAH   SFRSYM    DATA     BYTE      SC0EGT
      0000009DH   SFRSYM    DATA     BYTE      DMA3SEED
      000000DAH   SFRSYM    DATA     BYTE      SC1EGT
      000000ADH   SFRSYM    DATA     BYTE      P3SR
      00000095H   SFRSYM    DATA     BYTE      P3UP
      000000BCH   SFRSYM    DATA     BYTE      P4SR
      00000096H   SFRSYM    DATA     BYTE      P4UP
      000000A3H   SFRSYM    DATA     BYTE      RTCCLKSEL
      000000AEH   SFRSYM    DATA     BYTE      P5SR
      00000097H   SFRSYM    DATA     BYTE      P5UP
      000000F8H.0 SFRSYM    DATA     BIT       RI_1
      00000097H   SFRSYM    DATA     BYTE      P6UP
      0000008EH   SFRSYM    DATA     BYTE      P6SR
      000000AAH   SFRSYM    DATA     BYTE      VRFTRIM
      000000BDH   SFRSYM    DATA     BYTE      I2C0STAT
      00000095H   SFRSYM    DATA     BYTE      DMA0CCNT
LX51 LINKER/LOCATER V4.66.97.0                                                        04/28/2025  14:43:25  PAGE 46


      000000F8H.1 SFRSYM    DATA     BIT       TI_1
      000000FCH   SFRSYM    DATA     BYTE      LCDDAT
      000000B9H   SFRSYM    DATA     BYTE      RTCCLKFMT
      000000BEH   SFRSYM    DATA     BYTE      CWKH
      000000CBH   SFRSYM    DATA     BYTE      RCMP2H
      000000EEH   SFRSYM    DATA     BYTE      DMA1CCNT
      000000B4H   SFRSYM    DATA     BYTE      I2C1STAT
      000000FAH   SFRSYM    DATA     BYTE      LCDCLK
      000000B6H   SFRSYM    DATA     BYTE      DMA2CCNT
      000000CEH   SFRSYM    DATA     BYTE      AINDIDS0
      000000CFH   SFRSYM    DATA     BYTE      ADCMPH
      00000080H.0 SFRSYM    DATA     BIT       P00
      000000F6H   SFRSYM    DATA     BYTE      LCDCPCT0
      000000CEH   SFRSYM    DATA     BYTE      AINDIDS1
      000000AEH   SFRSYM    DATA     BYTE      DMA3CCNT
      00000090H.0 SFRSYM    DATA     BIT       P10
      00000080H.1 SFRSYM    DATA     BIT       P01
      000000EAH   SFRSYM    DATA     BYTE      LCDCPCT1
      00000099H   SFRSYM    DATA     BYTE      SBUF
      00000087H   SFRSYM    DATA     BYTE      PCON
      000000C0H.2 SFRSYM    DATA     BIT       AA0
      000000A0H.0 SFRSYM    DATA     BIT       P20
      00000090H.1 SFRSYM    DATA     BIT       P11
      00000080H.2 SFRSYM    DATA     BIT       P02
      000000CAH   SFRSYM    DATA     BYTE      RCMP2L
      00000086H   SFRSYM    DATA     BYTE      CWKL
      000000E8H.2 SFRSYM    DATA     BIT       AA1
      000000B0H.0 SFRSYM    DATA     BIT       P30
      000000A0H.1 SFRSYM    DATA     BIT       P21
      00000090H.2 SFRSYM    DATA     BIT       P12
      00000080H.3 SFRSYM    DATA     BIT       P03
      000000E3H   SFRSYM    DATA     BYTE      ADCDLY
      000000CEH   SFRSYM    DATA     BYTE      ADCMPL
      000000D8H.0 SFRSYM    DATA     BIT       P40
      000000B0H.1 SFRSYM    DATA     BIT       P31
      000000A0H.2 SFRSYM    DATA     BIT       P22
      00000090H.3 SFRSYM    DATA     BIT       P13
      00000080H.4 SFRSYM    DATA     BIT       P04
      000000F5H   SFRSYM    DATA     BYTE      SPI0DR
      00000098H   SFRSYM    DATA     BYTE      SCON
      000000D8H.1 SFRSYM    DATA     BIT       P41
      000000B0H.2 SFRSYM    DATA     BIT       P32
      000000A0H.3 SFRSYM    DATA     BIT       P23
      00000090H.4 SFRSYM    DATA     BIT       P14
      00000080H.5 SFRSYM    DATA     BIT       P05
      000000B3H   SFRSYM    DATA     BYTE      RTCTALMHR
      000000FCH   SFRSYM    DATA     BYTE      SPI1DR
      00000089H   SFRSYM    DATA     BYTE      TMOD
      00000088H   SFRSYM    DATA     BYTE      TCON
      000000D8H.2 SFRSYM    DATA     BIT       P42
      000000B0H.3 SFRSYM    DATA     BIT       P33
      000000A0H.4 SFRSYM    DATA     BIT       P24
      00000090H.5 SFRSYM    DATA     BIT       P15
      00000080H.6 SFRSYM    DATA     BIT       P06
      000000ABH   SFRSYM    DATA     BYTE      RTCTIMEHR
      000000D8H.3 SFRSYM    DATA     BIT       P43
      000000B0H.4 SFRSYM    DATA     BIT       P34
      000000A0H.5 SFRSYM    DATA     BIT       P25
      00000090H.6 SFRSYM    DATA     BIT       P16
      00000080H.7 SFRSYM    DATA     BIT       P07
      000000FCH   SFRSYM    DATA     BYTE      PWM0MD
      000000D1H   SFRSYM    DATA     BYTE      PWM0CON0
      000000D8H.4 SFRSYM    DATA     BIT       P44
      000000B0H.5 SFRSYM    DATA     BIT       P35
      000000A0H.6 SFRSYM    DATA     BIT       P26
LX51 LINKER/LOCATER V4.66.97.0                                                        04/28/2025  14:43:25  PAGE 47


      00000090H.7 SFRSYM    DATA     BIT       P17
      0000009CH   SFRSYM    DATA     BYTE      PWM1CON0
      0000008CH   SFRSYM    DATA     BYTE      PWM1MD
      000000DFH   SFRSYM    DATA     BYTE      PWM0CON1
      000000D8H.5 SFRSYM    DATA     BIT       P45
      000000B0H.6 SFRSYM    DATA     BIT       P36
      000000A0H.7 SFRSYM    DATA     BIT       P27
      000000C4H   SFRSYM    DATA     BYTE      PWM2CON0
      000000BCH   SFRSYM    DATA     BYTE      PWM2MD
      0000009DH   SFRSYM    DATA     BYTE      PWM1CON1
      000000D8H.6 SFRSYM    DATA     BIT       P46
      000000B0H.7 SFRSYM    DATA     BIT       P37
      000000D4H   SFRSYM    DATA     BYTE      PWM3CON0
      000000CCH   SFRSYM    DATA     BYTE      PWM3MD
      000000C5H   SFRSYM    DATA     BYTE      PWM2CON1
      000000D8H.7 SFRSYM    DATA     BIT       P47
      000000D5H   SFRSYM    DATA     BYTE      PWM3CON1
      000000E5H   SFRSYM    DATA     BYTE      C0H
      000000B7H   SFRSYM    DATA     BYTE      RTCCALMYEAR
      000000E7H   SFRSYM    DATA     BYTE      C1H
      000000C1H   SFRSYM    DATA     BYTE      I2C0ADDR0
      000000B4H   SFRSYM    DATA     BYTE      RTCTALMHZ
      000000BFH   SFRSYM    DATA     BYTE      RWKH
      000000A1H   SFRSYM    DATA     BYTE      I2C0ADDR1
      000000EEH   SFRSYM    DATA     BYTE      C2H
      000000B2H   SFRSYM    DATA     BYTE      I2C1ADDR0
      0000009FH   SFRSYM    DATA     BYTE      CHPCON
      00000088H.1 SFRSYM    DATA     BIT       IE0
      000000F5H   SFRSYM    DATA     BYTE      LCDCPALCT0
      000000A4H   SFRSYM    DATA     BYTE      I2C1ADDR1
      000000A2H   SFRSYM    DATA     BYTE      I2C0ADDR2
      000000D1H   SFRSYM    DATA     BYTE      PWM0PH
      00000088H.3 SFRSYM    DATA     BIT       IE1
      000000E9H   SFRSYM    DATA     BYTE      LCDCPALCT1
      000000A5H   SFRSYM    DATA     BYTE      I2C1ADDR2
      000000A3H   SFRSYM    DATA     BYTE      I2C0ADDR3
      00000086H   SFRSYM    DATA     BYTE      PWM1PH
      000000E4H   SFRSYM    DATA     BYTE      C0L
      00000091H   SFRSYM    DATA     BYTE      SFRS
      000000B9H   SFRSYM    DATA     BYTE      PWM2PH
      000000A6H   SFRSYM    DATA     BYTE      I2C1ADDR3
      000000E6H   SFRSYM    DATA     BYTE      C1L
      000000C8H.0 SFRSYM    DATA     BIT       CM_RL2
      000000BCH   SFRSYM    DATA     BYTE      RTCLEAPYEAR
      000000C9H   SFRSYM    DATA     BYTE      PWM3PH
      000000EDH   SFRSYM    DATA     BYTE      C2L
      000000F0H   SFRSYM    DATA     BYTE      B
      000000DFH   SFRSYM    DATA     BYTE      SC0TSR
      00000086H   SFRSYM    DATA     BYTE      RWKL
      000000DFH   SFRSYM    DATA     BYTE      SC1TSR
      000000D9H   SFRSYM    DATA     BYTE      PWM0PL
      00000099H   SFRSYM    DATA     BYTE      PWM1PL
      000000F4H   SFRSYM    DATA     BYTE      SPI0SR
      000000C1H   SFRSYM    DATA     BYTE      PWM2PL
      000000D6H   SFRSYM    DATA     BYTE      PWM0NP
      000000FBH   SFRSYM    DATA     BYTE      SPI1SR
      000000A5H   SFRSYM    DATA     BYTE      IAPUEN
      00000099H   SFRSYM    DATA     BYTE      WDCONH
      000000D1H   SFRSYM    DATA     BYTE      PWM3PL
      000000E0H   SFRSYM    DATA     BYTE      ACC
      000000D4H   SFRSYM    DATA     BYTE      ACMPSR
      000000A8H.1 SFRSYM    DATA     BIT       ET0
      000000BCH   SFRSYM    DATA     BYTE      I2C0DAT
      000000A4H   SFRSYM    DATA     BYTE      IAPTRG
      00000092H   SFRSYM    DATA     BYTE      DMA0CR0
LX51 LINKER/LOCATER V4.66.97.0                                                        04/28/2025  14:43:25  PAGE 48


      000000A8H.3 SFRSYM    DATA     BIT       ET1
      00000088H.5 SFRSYM    DATA     BIT       TF0
      0000008AH   SFRSYM    DATA     BYTE      DMA0CR1
      000000EBH   SFRSYM    DATA     BYTE      DMA1CR0
      000000BEH   SFRSYM    DATA     BYTE      I2C0CLK
      000000B3H   SFRSYM    DATA     BYTE      I2C1DAT
      00000088H.7 SFRSYM    DATA     BIT       TF1
      000000FBH   SFRSYM    DATA     BYTE      LCDPTR
      0000008BH   SFRSYM    DATA     BYTE      DMA1CR1
      000000B3H   SFRSYM    DATA     BYTE      DMA2CR0
      000000B5H   SFRSYM    DATA     BYTE      I2C1CLK
      000000C8H.7 SFRSYM    DATA     BIT       TF2
      000000C0H.3 SFRSYM    DATA     BIT       SI0
      00000098H.2 SFRSYM    DATA     BIT       RB8
      0000008CH   SFRSYM    DATA     BYTE      DMA2CR1
      000000ABH   SFRSYM    DATA     BYTE      DMA3CR0
      0000008CH   SFRSYM    DATA     BYTE      TH0
      000000E8H.3 SFRSYM    DATA     BIT       SI1
      000000A8H.0 SFRSYM    DATA     BIT       EX0
      00000088H.0 SFRSYM    DATA     BIT       IT0
      0000008DH   SFRSYM    DATA     BYTE      DMA3CR1
      000000C6H   SFRSYM    DATA     BYTE      RH3
      0000008DH   SFRSYM    DATA     BYTE      TH1
      000000A8H.2 SFRSYM    DATA     BIT       EX1
      00000098H.3 SFRSYM    DATA     BIT       TB8
      00000088H.2 SFRSYM    DATA     BIT       IT1
      000000FDH   SFRSYM    DATA     BYTE      LCDPWR
      000000CDH   SFRSYM    DATA     BYTE      TH2
      000000D0H.0 SFRSYM    DATA     BIT       P
      000000F6H   SFRSYM    DATA     BYTE      DMA0BAH
      00000098H.7 SFRSYM    DATA     BIT       SM0
      000000A9H   SFRSYM    DATA     BYTE      VRFCON
      000000FDH   SFRSYM    DATA     BYTE      DMA1BAH
      000000C0H   SFRSYM    DATA     BYTE      I2C0CON
      0000008AH   SFRSYM    DATA     BYTE      TL0
      00000098H.6 SFRSYM    DATA     BIT       SM1
      000000B2H   SFRSYM    DATA     BYTE      DMA2BAH
      000000E8H   SFRSYM    DATA     BYTE      I2C1CON
      000000C5H   SFRSYM    DATA     BYTE      RL3
      0000008BH   SFRSYM    DATA     BYTE      TL1
      00000098H.5 SFRSYM    DATA     BIT       SM2
      000000A7H   SFRSYM    DATA     BYTE      RTCINTSTS
      000000AAH   SFRSYM    DATA     BYTE      DMA3BAH
      000000F9H   SFRSYM    DATA     BYTE      PWM0DTEN
      000000CCH   SFRSYM    DATA     BYTE      TL2
      000000C6H   SFRSYM    DATA     BYTE      PORDIS
      00000099H   SFRSYM    DATA     BYTE      P0S
      000000B8H.1 SFRSYM    DATA     BIT       PT0
      0000009BH   SFRSYM    DATA     BYTE      P1S
      000000D0H.3 SFRSYM    DATA     BIT       RS0
      000000B8H.3 SFRSYM    DATA     BIT       PT1
      000000B7H   SFRSYM    DATA     BYTE      PWM0INTC
      0000009DH   SFRSYM    DATA     BYTE      P2S
      000000DDH   SFRSYM    DATA     BYTE      SC0IE
      000000D0H.4 SFRSYM    DATA     BIT       RS1
      00000088H.4 SFRSYM    DATA     BIT       TR0
      000000DDH   SFRSYM    DATA     BYTE      SC1IE
      0000009EH   SFRSYM    DATA     BYTE      PWM1INTC
      000000FFH   SFRSYM    DATA     BYTE      LVRDIS
      000000ACH   SFRSYM    DATA     BYTE      P3S
      000000BFH   SFRSYM    DATA     BYTE      I2C0TOC
      00000088H.6 SFRSYM    DATA     BIT       TR1
      000000C6H   SFRSYM    DATA     BYTE      PWM2INTC
      000000BBH   SFRSYM    DATA     BYTE      P4S
      000000F7H   SFRSYM    DATA     BYTE      EIPH0
LX51 LINKER/LOCATER V4.66.97.0                                                        04/28/2025  14:43:25  PAGE 49


      000000D5H   SFRSYM    DATA     BYTE      ACMPVREF
      000000B6H   SFRSYM    DATA     BYTE      I2C1TOC
      000000C8H.2 SFRSYM    DATA     BIT       TR2
      000000B8H.0 SFRSYM    DATA     BIT       PX0
      000000D6H   SFRSYM    DATA     BYTE      PWM3INTC
      000000BFH   SFRSYM    DATA     BYTE      P5S
      000000FFH   SFRSYM    DATA     BYTE      EIPH1
      000000B8H.2 SFRSYM    DATA     BIT       PX1
      000000CFH   SFRSYM    DATA     BYTE      I2C0ADDRM
      00000096H   SFRSYM    DATA     BYTE      P6S
      000000ADH   SFRSYM    DATA     BYTE      EIPH2
      000000D7H   SFRSYM    DATA     BYTE      I2C1ADDRM
      00000085H   SFRSYM    DATA     BYTE      XLTCON
      000000E6H   SFRSYM    DATA     BYTE      ADCCN
      000000A1H   SFRSYM    DATA     BYTE      ADCCON0
      000000F1H   SFRSYM    DATA     BYTE      LCDCPUMP
      000000BFH   SFRSYM    DATA     BYTE      RTCCAMSK
      000000E1H   SFRSYM    DATA     BYTE      ADCCON1
      00000092H   SFRSYM    DATA     BYTE      DMA0CRC
      000000E2H   SFRSYM    DATA     BYTE      ADCCON2
      00000083H   SFRSYM    DATA     BYTE      DPH
      000000F8H.2 SFRSYM    DATA     BIT       RB8_1
      00000093H   SFRSYM    DATA     BYTE      DMA1CRC
      000000D9H   SFRSYM    DATA     BYTE      SC0DR
      00000094H   SFRSYM    DATA     BYTE      DMA2CRC
      000000D9H   SFRSYM    DATA     BYTE      SC1DR
      00000093H   SFRSYM    DATA     BYTE      DMA0MAL
      000000F8H.3 SFRSYM    DATA     BIT       TB8_1
      00000095H   SFRSYM    DATA     BYTE      DMA3CRC
      000000ECH   SFRSYM    DATA     BYTE      DMA1MAL
      000000CAH   SFRSYM    DATA     BYTE      PIF
      000000B4H   SFRSYM    DATA     BYTE      DMA2MAL
      00000082H   SFRSYM    DATA     BYTE      DPL
      000000F8H.7 SFRSYM    DATA     BIT       SM0_1
      000000ACH   SFRSYM    DATA     BYTE      DMA3MAL
      000000D2H   SFRSYM    DATA     BYTE      PWM0C0H
      000000B7H   SFRSYM    DATA     BYTE      IPH
      000000F8H.6 SFRSYM    DATA     BIT       SM1_1
      000000FEH   SFRSYM    DATA     BYTE      LCDBL
      0000008AH   SFRSYM    DATA     BYTE      PWM1C0H
      000000D3H   SFRSYM    DATA     BYTE      PWM0C1H
      0000009AH   SFRSYM    DATA     BYTE      SBUF1
      000000F8H.5 SFRSYM    DATA     BIT       SM2_1
      000000BAH   SFRSYM    DATA     BYTE      PWM2C0H
      0000008BH   SFRSYM    DATA     BYTE      PWM1C1H
      000000D4H   SFRSYM    DATA     BYTE      PWM0C2H
      000000F3H   SFRSYM    DATA     BYTE      SPI0CR0
      000000DEH   SFRSYM    DATA     BYTE      SC0IS
      000000C3H   SFRSYM    DATA     BYTE      ADCRH
      000000DEH   SFRSYM    DATA     BYTE      SC1IS
      000000CAH   SFRSYM    DATA     BYTE      PWM3C0H
      000000BBH   SFRSYM    DATA     BYTE      PWM2C1H
      000000F3H   SFRSYM    DATA     BYTE      SPI0CR1
      000000D5H   SFRSYM    DATA     BYTE      PWM0C3H
      000000F9H   SFRSYM    DATA     BYTE      SPI1CR0
      000000A7H   SFRSYM    DATA     BYTE      IAPAH
      00000098H.4 SFRSYM    DATA     BIT       REN
      000000F9H   SFRSYM    DATA     BYTE      LCDCON0
      000000CBH   SFRSYM    DATA     BYTE      PWM3C1H
      000000DAH   SFRSYM    DATA     BYTE      PWM0C0L
      000000C4H   SFRSYM    DATA     BYTE      PWM0C4H
      000000FAH   SFRSYM    DATA     BYTE      SPI1CR1
      000000F8H   SFRSYM    DATA     BYTE      S1CON
      000000AEH   SFRSYM    DATA     BYTE      IAPFD
      000000F4H   SFRSYM    DATA     BYTE      LCDCON1
LX51 LINKER/LOCATER V4.66.97.0                                                        04/28/2025  14:43:25  PAGE 50


      0000009AH   SFRSYM    DATA     BYTE      PWM1C0L
      000000E1H   SFRSYM    DATA     BYTE      CAPCON0
      000000DBH   SFRSYM    DATA     BYTE      PWM0C1L
      000000C5H   SFRSYM    DATA     BYTE      PWM0C5H
      000000C2H   SFRSYM    DATA     BYTE      PWM2C0L
      0000009BH   SFRSYM    DATA     BYTE      PWM1C1L
      000000E2H   SFRSYM    DATA     BYTE      CAPCON1
      000000DCH   SFRSYM    DATA     BYTE      PWM0C2L
      000000C9H   SFRSYM    DATA     BYTE      T2MOD
      000000C8H   SFRSYM    DATA     BYTE      T2CON
      000000C2H   SFRSYM    DATA     BYTE      ADCRL
      000000A3H   SFRSYM    DATA     BYTE      BODCON0
      000000B5H   SFRSYM    DATA     BYTE      RTCCALMDAY
      000000D2H   SFRSYM    DATA     BYTE      PWM3C0L
      000000C3H   SFRSYM    DATA     BYTE      PWM2C1L
      000000E3H   SFRSYM    DATA     BYTE      CAPCON2
      000000DDH   SFRSYM    DATA     BYTE      PWM0C3L
      000000D2H   SFRSYM    DATA     BYTE      ACMPCR0
      000000C4H   SFRSYM    DATA     BYTE      T3CON
      000000ABH   SFRSYM    DATA     BYTE      BODCON1
      000000A6H   SFRSYM    DATA     BYTE      IAPAL
      000000D3H   SFRSYM    DATA     BYTE      PWM3C1L
      000000CCH   SFRSYM    DATA     BYTE      PWM0C4L
      00000084H   SFRSYM    DATA     BYTE      LIRCTRIM
      000000D3H   SFRSYM    DATA     BYTE      ACMPCR1
      00000094H   SFRSYM    DATA     BYTE      DMA0CNT
      000000A6H   SFRSYM    DATA     BYTE      RTCINTEN
      000000CDH   SFRSYM    DATA     BYTE      PWM0C5L
      000000ABH   SFRSYM    DATA     BYTE      ACMPCR2
      000000EDH   SFRSYM    DATA     BYTE      DMA1CNT
      000000E5H   SFRSYM    DATA     BYTE      ADCSN
      000000B5H   SFRSYM    DATA     BYTE      DMA2CNT
      000000BEH   SFRSYM    DATA     BYTE      RTCTAMSK
      000000ADH   SFRSYM    DATA     BYTE      DMA3CNT
      000000B9H   SFRSYM    DATA     BYTE      SADEN
      000000AFH   SFRSYM    DATA     BYTE      IAPCN
      000000A1H   SFRSYM    DATA     BYTE      PIPS0
      000000AFH   SFRSYM    DATA     BYTE      RTCCALYEAR
      000000A2H   SFRSYM    DATA     BYTE      PIPS1
      000000E7H   SFRSYM    DATA     BYTE      ADCSR
      000000A3H   SFRSYM    DATA     BYTE      PIPS2
      000000A9H   SFRSYM    DATA     BYTE      SADDR
      0000008EH   SFRSYM    DATA     BYTE      CKCON
      000000FDH   SFRSYM    DATA     BYTE      LVRFLTEN
      000000A4H   SFRSYM    DATA     BYTE      PIPS3
      000000A5H   SFRSYM    DATA     BYTE      PIPS4
      000000EAH   SFRSYM    DATA     BYTE      MTM0DAL
      000000A2H   SFRSYM    DATA     BYTE      AUXR0
      000000D7H   SFRSYM    DATA     BYTE      PWM0FBD
      000000C9H   SFRSYM    DATA     BYTE      AUXR1
      000000C1H   SFRSYM    DATA     BYTE      CKDIV
      000000A6H   SFRSYM    DATA     BYTE      PIPS5
      000000F2H   SFRSYM    DATA     BYTE      MTM1DAL
      000000B7H   SFRSYM    DATA     BYTE      MTM2DAL
      000000A7H   SFRSYM    DATA     BYTE      PIPS6
      000000CFH   SFRSYM    DATA     BYTE      AUXR3
      000000B6H   SFRSYM    DATA     BYTE      RTCCALMMON
      000000AFH   SFRSYM    DATA     BYTE      MTM3DAL
      000000AFH   SFRSYM    DATA     BYTE      PIPS7
      000000D0H.5 SFRSYM    DATA     BIT       F0
      000000F9H   SFRSYM    DATA     BYTE      P0MF10
      000000F8H.4 SFRSYM    DATA     BIT       REN_1
      000000B1H   SFRSYM    DATA     BYTE      RTCTALMSEC
      000000FDH   SFRSYM    DATA     BYTE      P1MF10
      000000BBH   SFRSYM    DATA     BYTE      RTCWEEKDAY
LX51 LINKER/LOCATER V4.66.97.0                                                        04/28/2025  14:43:25  PAGE 51


      000000A9H   SFRSYM    DATA     BYTE      RTCTIMESEC
      000000F2H   SFRSYM    DATA     BYTE      P2MF10
      0000009DH   SFRSYM    DATA     BYTE      RSR
      000000F6H   SFRSYM    DATA     BYTE      P3MF10
      000000FAH   SFRSYM    DATA     BYTE      P0MF32
      000000EBH   SFRSYM    DATA     BYTE      P4MF10
      000000FFH   SFRSYM    DATA     BYTE      LCDMODE
      000000FEH   SFRSYM    DATA     BYTE      P1MF32
      000000EFH   SFRSYM    DATA     BYTE      P5MF10
      000000E9H   SFRSYM    DATA     BYTE      PICON
      000000D0H   SFRSYM    DATA     BYTE      PSW
      000000F3H   SFRSYM    DATA     BYTE      P2MF32
      00000092H   SFRSYM    DATA     BYTE      P6MF10
      000000EAH   SFRSYM    DATA     BYTE      PINEN
      000000F7H   SFRSYM    DATA     BYTE      P3MF32
      000000AAH   SFRSYM    DATA     BYTE      WDCON
      000000FBH   SFRSYM    DATA     BYTE      P0MF54
      000000ECH   SFRSYM    DATA     BYTE      P4MF32
      000000EBH   SFRSYM    DATA     BYTE      PIPEN
      000000E9H   SFRSYM    DATA     BYTE      DMA0TSR
      000000DBH   SFRSYM    DATA     BYTE      SC0ETURD0

      01004F3FH   BLOCK     CODE     ---       LVL=0
      00000020H.1 SYMBOL    BIT      BIT       onOff
      02000082H   SYMBOL    XDATA    INT       chanN
      01004F3FH   BLOCK     CODE     NEAR LAB  LVL=1
      02000084H   SYMBOL    XDATA    BYTE      temp
      ---         BLOCKEND  ---      ---       LVL=1
      01004F3FH   LINE      CODE     ---       #40
      01004F3FH   LINE      CODE     ---       #41
      01004F3FH   LINE      CODE     ---       #44
      01004F43H   LINE      CODE     ---       #45
      01004F4BH   LINE      CODE     ---       #47
      ---         BLOCKEND  ---      ---       LVL=0

      01004F73H   BLOCK     CODE     ---       LVL=0
      01004F73H   LINE      CODE     ---       #56
      01004F73H   LINE      CODE     ---       #57
      01004F73H   LINE      CODE     ---       #60
      01004F7CH   LINE      CODE     ---       #61
      01004F7EH   LINE      CODE     ---       #63
      ---         BLOCKEND  ---      ---       LVL=0

      ---         MODULE    ---      ---       TK_MASSPRODUCTION
      02000156H   PUBLIC    XDATA    BYTE      gFineTuneDoneTimeOut
      02000155H   PUBLIC    XDATA    BYTE      gbIsFineTuneDone
      02000154H   PUBLIC    XDATA    CHAR      i8MpTickEventID
      000000FFH   SFRSYM    DATA     BYTE      P1MF54
      000000E1H   SFRSYM    DATA     BYTE      P5MF32
      000000DBH   SFRSYM    DATA     BYTE      SC1ETURD0
      000000B1H   SFRSYM    DATA     BYTE      P0M1
      000000F1H   SFRSYM    DATA     BYTE      DMA1TSR
      000000DCH   SFRSYM    DATA     BYTE      SC0ETURD1
      000000B2H   SFRSYM    DATA     BYTE      RTCTALMMIN
      000000F4H   SFRSYM    DATA     BYTE      P2MF54
      000000DCH   SFRSYM    DATA     BYTE      SC1ETURD1
      000000B1H   SFRSYM    DATA     BYTE      DMA2TSR
      00000093H   SFRSYM    DATA     BYTE      P6MF32
      000000B3H   SFRSYM    DATA     BYTE      P1M1
      000000B2H   SFRSYM    DATA     BYTE      P0M2
      00000080H   SFRSYM    DATA     BYTE      P0
      000000AAH   SFRSYM    DATA     BYTE      RTCTIMEMIN
      000000E9H   SFRSYM    DATA     BYTE      P3MF54
      000000A9H   SFRSYM    DATA     BYTE      DMA3TSR
      000000B5H   SFRSYM    DATA     BYTE      P2M1
LX51 LINKER/LOCATER V4.66.97.0                                                        04/28/2025  14:43:25  PAGE 52


      000000B4H   SFRSYM    DATA     BYTE      P1M2
      00000090H   SFRSYM    DATA     BYTE      P1
      000000CEH   SFRSYM    DATA     BYTE      PWM0FBS
      000000FCH   SFRSYM    DATA     BYTE      P0MF76
      000000EDH   SFRSYM    DATA     BYTE      P4MF54
      000000C2H   SFRSYM    DATA     BYTE      P3M1
      000000B6H   SFRSYM    DATA     BYTE      P2M2
      000000A0H   SFRSYM    DATA     BYTE      P2
      000000C0H.6 SFRSYM    DATA     BIT       I2CEN0
      000000F1H   SFRSYM    DATA     BYTE      P1MF76
      000000E2H   SFRSYM    DATA     BYTE      P5MF54
      000000C3H   SFRSYM    DATA     BYTE      P3M2
      000000B9H   SFRSYM    DATA     BYTE      P4M1
      000000B0H   SFRSYM    DATA     BYTE      P3
      000000D0H.6 SFRSYM    DATA     BIT       AC
      000000E8H.6 SFRSYM    DATA     BIT       I2CEN1
      000000F5H   SFRSYM    DATA     BYTE      P2MF76
      00000094H   SFRSYM    DATA     BYTE      P6MF54
      000000BDH   SFRSYM    DATA     BYTE      P5M1
      000000BAH   SFRSYM    DATA     BYTE      P4M2
      000000D8H   SFRSYM    DATA     BYTE      P4
      0000009BH   SFRSYM    DATA     BYTE      EIE0
      0000008FH   SFRSYM    DATA     BYTE      WKCON
      00000084H   SFRSYM    DATA     BYTE      RCTRIM0
      000000EAH   SFRSYM    DATA     BYTE      P3MF76
      00000084H   SFRSYM    DATA     BYTE      P6M1
      000000BEH   SFRSYM    DATA     BYTE      P5M2
      000000B1H   SFRSYM    DATA     BYTE      P5
      0000009CH   SFRSYM    DATA     BYTE      EIE1
      00000085H   SFRSYM    DATA     BYTE      RCTRIM1
      000000A8H.7 SFRSYM    DATA     BIT       EA
      000000EEH   SFRSYM    DATA     BYTE      P4MF76
      000000A7H   SFRSYM    DATA     BYTE      P6
      00000085H   SFRSYM    DATA     BYTE      P6M2
      000000E3H   SFRSYM    DATA     BYTE      P5MF76
      000000FBH   SFRSYM    DATA     BYTE      PWM0MEN
      00000095H   SFRSYM    DATA     BYTE      P6MF76
      0000008DH   SFRSYM    DATA     BYTE      PWM1MEN
      000000A0H.5 SFRSYM    DATA     BIT       AIN0
      000000BDH   SFRSYM    DATA     BYTE      PWM2MEN
      000000A0H.4 SFRSYM    DATA     BIT       AIN1
      000000CDH   SFRSYM    DATA     BYTE      PWM3MEN
      000000A0H.3 SFRSYM    DATA     BIT       AIN2
      00000098H.7 SFRSYM    DATA     BIT       FE
      000000A0H.2 SFRSYM    DATA     BIT       AIN3
      000000A0H.1 SFRSYM    DATA     BIT       AIN4
      000000D6H   SFRSYM    DATA     BYTE      SC0CR0
      000000A0H.0 SFRSYM    DATA     BIT       AIN5
      000000A8H.6 SFRSYM    DATA     BIT       EADC
      000000E6H   SFRSYM    DATA     BYTE      SC1CR0
      000000D7H   SFRSYM    DATA     BYTE      SC0CR1
      000000A8H   SFRSYM    DATA     BYTE      IE
      00000096H   SFRSYM    DATA     BYTE      CKSWT
      000000B0H.1 SFRSYM    DATA     BIT       AIN6
      000000E7H   SFRSYM    DATA     BYTE      SC1CR1
      000000EFH   SFRSYM    DATA     BYTE      EIP0
      000000B0H.2 SFRSYM    DATA     BIT       AIN7
      000000FEH   SFRSYM    DATA     BYTE      EIP1
      000000ACH   SFRSYM    DATA     BYTE      EIP2
      000000E4H   SFRSYM    DATA     BYTE      ADCBAH
      000000C7H   SFRSYM    DATA     BYTE      TA
      000000E4H   SFRSYM    DATA     BYTE      BRCTRIM
      000000BDH   SFRSYM    DATA     BYTE      RTCTICK
      000000C0H.0 SFRSYM    DATA     BIT       I2C0PX
      000000A8H.4 SFRSYM    DATA     BIT       ES
LX51 LINKER/LOCATER V4.66.97.0                                                        04/28/2025  14:43:25  PAGE 53


      000000E8H.0 SFRSYM    DATA     BIT       I2CPX1
      000000C0H.5 SFRSYM    DATA     BIT       STA0
      000000B8H.6 SFRSYM    DATA     BIT       PADC
      000000CBH   SFRSYM    DATA     BYTE      ADCBAL
      000000B8H   SFRSYM    DATA     BYTE      IP
      000000E8H.5 SFRSYM    DATA     BIT       STA1
      000000E5H   SFRSYM    DATA     BYTE      ADCCAL
      000000A8H.5 SFRSYM    DATA     BIT       EBOD
      00000098H.0 SFRSYM    DATA     BIT       RI
      000000ADH   SFRSYM    DATA     BYTE      RTCCALDAY
      000000A4H   SFRSYM    DATA     BYTE      RTCFREQADJ0
      000000F8H.7 SFRSYM    DATA     BIT       FE_1
      000000D0H.7 SFRSYM    DATA     BIT       CY
      000000A5H   SFRSYM    DATA     BYTE      RTCFREQADJ1
      0000008AH   SFRSYM    DATA     BYTE      P0DW
      00000098H.1 SFRSYM    DATA     BIT       TI
      0000008BH   SFRSYM    DATA     BYTE      P1DW
      000000EFH   SFRSYM    DATA     BYTE      LDOTRIM
      0000008CH   SFRSYM    DATA     BYTE      P2DW
      000000BAH   SFRSYM    DATA     BYTE      SADEN1
      0000008DH   SFRSYM    DATA     BYTE      P3DW
      000000A1H   SFRSYM    DATA     BYTE      RTCINIT
      0000008EH   SFRSYM    DATA     BYTE      P4DW
      0000008FH   SFRSYM    DATA     BYTE      P5DW
      000000BBH   SFRSYM    DATA     BYTE      SADDR1
      0000008FH   SFRSYM    DATA     BYTE      P6DW
      00000097H   SFRSYM    DATA     BYTE      CKEN
      000000B8H.4 SFRSYM    DATA     BIT       PS
      00000081H   SFRSYM    DATA     BYTE      SP
      000000D0H.2 SFRSYM    DATA     BIT       OV
      000000FAH   SFRSYM    DATA     BYTE      PWM0DTCNT
      000000B8H.5 SFRSYM    DATA     BIT       PBOD
      0000009AH   SFRSYM    DATA     BYTE      DMA0SEED
      0000009AH   SFRSYM    DATA     BYTE      P0SR
      00000092H   SFRSYM    DATA     BYTE      P0UP
      000000C0H.4 SFRSYM    DATA     BIT       STO0
      000000AEH   SFRSYM    DATA     BYTE      RTCCALMON
      0000009BH   SFRSYM    DATA     BYTE      DMA1SEED
      0000009CH   SFRSYM    DATA     BYTE      P1SR
      00000093H   SFRSYM    DATA     BYTE      P1UP
      000000E8H.4 SFRSYM    DATA     BIT       STO1
      000000A2H   SFRSYM    DATA     BYTE      RTCRWEN
      0000009CH   SFRSYM    DATA     BYTE      DMA2SEED
      0000009EH   SFRSYM    DATA     BYTE      P2SR
      00000094H   SFRSYM    DATA     BYTE      P2UP
      000000DAH   SFRSYM    DATA     BYTE      SC0EGT
      0000009DH   SFRSYM    DATA     BYTE      DMA3SEED
      000000DAH   SFRSYM    DATA     BYTE      SC1EGT
      000000ADH   SFRSYM    DATA     BYTE      P3SR
      00000095H   SFRSYM    DATA     BYTE      P3UP
      000000BCH   SFRSYM    DATA     BYTE      P4SR
      00000096H   SFRSYM    DATA     BYTE      P4UP
      000000A3H   SFRSYM    DATA     BYTE      RTCCLKSEL
      000000AEH   SFRSYM    DATA     BYTE      P5SR
      00000097H   SFRSYM    DATA     BYTE      P5UP
      000000F8H.0 SFRSYM    DATA     BIT       RI_1
      00000097H   SFRSYM    DATA     BYTE      P6UP
      0000008EH   SFRSYM    DATA     BYTE      P6SR
      000000AAH   SFRSYM    DATA     BYTE      VRFTRIM
      000000BDH   SFRSYM    DATA     BYTE      I2C0STAT
      00000095H   SFRSYM    DATA     BYTE      DMA0CCNT
      000000F8H.1 SFRSYM    DATA     BIT       TI_1
      000000FCH   SFRSYM    DATA     BYTE      LCDDAT
      000000B9H   SFRSYM    DATA     BYTE      RTCCLKFMT
      000000BEH   SFRSYM    DATA     BYTE      CWKH
LX51 LINKER/LOCATER V4.66.97.0                                                        04/28/2025  14:43:25  PAGE 54


      000000CBH   SFRSYM    DATA     BYTE      RCMP2H
      000000EEH   SFRSYM    DATA     BYTE      DMA1CCNT
      000000B4H   SFRSYM    DATA     BYTE      I2C1STAT
      000000FAH   SFRSYM    DATA     BYTE      LCDCLK
      000000B6H   SFRSYM    DATA     BYTE      DMA2CCNT
      000000CEH   SFRSYM    DATA     BYTE      AINDIDS0
      000000CFH   SFRSYM    DATA     BYTE      ADCMPH
      00000080H.0 SFRSYM    DATA     BIT       P00
      000000F6H   SFRSYM    DATA     BYTE      LCDCPCT0
      000000CEH   SFRSYM    DATA     BYTE      AINDIDS1
      000000AEH   SFRSYM    DATA     BYTE      DMA3CCNT
      00000090H.0 SFRSYM    DATA     BIT       P10
      00000080H.1 SFRSYM    DATA     BIT       P01
      000000EAH   SFRSYM    DATA     BYTE      LCDCPCT1
      00000099H   SFRSYM    DATA     BYTE      SBUF
      00000087H   SFRSYM    DATA     BYTE      PCON
      000000C0H.2 SFRSYM    DATA     BIT       AA0
      000000A0H.0 SFRSYM    DATA     BIT       P20
      00000090H.1 SFRSYM    DATA     BIT       P11
      00000080H.2 SFRSYM    DATA     BIT       P02
      000000CAH   SFRSYM    DATA     BYTE      RCMP2L
      00000086H   SFRSYM    DATA     BYTE      CWKL
      000000E8H.2 SFRSYM    DATA     BIT       AA1
      000000B0H.0 SFRSYM    DATA     BIT       P30
      000000A0H.1 SFRSYM    DATA     BIT       P21
      00000090H.2 SFRSYM    DATA     BIT       P12
      00000080H.3 SFRSYM    DATA     BIT       P03
      000000E3H   SFRSYM    DATA     BYTE      ADCDLY
      000000CEH   SFRSYM    DATA     BYTE      ADCMPL
      000000D8H.0 SFRSYM    DATA     BIT       P40
      000000B0H.1 SFRSYM    DATA     BIT       P31
      000000A0H.2 SFRSYM    DATA     BIT       P22
      00000090H.3 SFRSYM    DATA     BIT       P13
      00000080H.4 SFRSYM    DATA     BIT       P04
      000000F5H   SFRSYM    DATA     BYTE      SPI0DR
      00000098H   SFRSYM    DATA     BYTE      SCON
      000000D8H.1 SFRSYM    DATA     BIT       P41
      000000B0H.2 SFRSYM    DATA     BIT       P32
      000000A0H.3 SFRSYM    DATA     BIT       P23
      00000090H.4 SFRSYM    DATA     BIT       P14
      00000080H.5 SFRSYM    DATA     BIT       P05
      000000B3H   SFRSYM    DATA     BYTE      RTCTALMHR
      000000FCH   SFRSYM    DATA     BYTE      SPI1DR
      00000089H   SFRSYM    DATA     BYTE      TMOD
      00000088H   SFRSYM    DATA     BYTE      TCON
      000000D8H.2 SFRSYM    DATA     BIT       P42
      000000B0H.3 SFRSYM    DATA     BIT       P33
      000000A0H.4 SFRSYM    DATA     BIT       P24
      00000090H.5 SFRSYM    DATA     BIT       P15
      00000080H.6 SFRSYM    DATA     BIT       P06
      000000ABH   SFRSYM    DATA     BYTE      RTCTIMEHR
      000000D8H.3 SFRSYM    DATA     BIT       P43
      000000B0H.4 SFRSYM    DATA     BIT       P34
      000000A0H.5 SFRSYM    DATA     BIT       P25
      00000090H.6 SFRSYM    DATA     BIT       P16
      00000080H.7 SFRSYM    DATA     BIT       P07
      000000FCH   SFRSYM    DATA     BYTE      PWM0MD
      000000D1H   SFRSYM    DATA     BYTE      PWM0CON0
      000000D8H.4 SFRSYM    DATA     BIT       P44
      000000B0H.5 SFRSYM    DATA     BIT       P35
      000000A0H.6 SFRSYM    DATA     BIT       P26
      00000090H.7 SFRSYM    DATA     BIT       P17
      0000009CH   SFRSYM    DATA     BYTE      PWM1CON0
      0000008CH   SFRSYM    DATA     BYTE      PWM1MD
      000000DFH   SFRSYM    DATA     BYTE      PWM0CON1
LX51 LINKER/LOCATER V4.66.97.0                                                        04/28/2025  14:43:25  PAGE 55


      000000D8H.5 SFRSYM    DATA     BIT       P45
      000000B0H.6 SFRSYM    DATA     BIT       P36
      000000A0H.7 SFRSYM    DATA     BIT       P27
      000000C4H   SFRSYM    DATA     BYTE      PWM2CON0
      000000BCH   SFRSYM    DATA     BYTE      PWM2MD
      0000009DH   SFRSYM    DATA     BYTE      PWM1CON1
      000000D8H.6 SFRSYM    DATA     BIT       P46
      000000B0H.7 SFRSYM    DATA     BIT       P37
      000000D4H   SFRSYM    DATA     BYTE      PWM3CON0
      000000CCH   SFRSYM    DATA     BYTE      PWM3MD
      000000C5H   SFRSYM    DATA     BYTE      PWM2CON1
      000000D8H.7 SFRSYM    DATA     BIT       P47
      000000D5H   SFRSYM    DATA     BYTE      PWM3CON1
      000000E5H   SFRSYM    DATA     BYTE      C0H
      000000B7H   SFRSYM    DATA     BYTE      RTCCALMYEAR
      000000E7H   SFRSYM    DATA     BYTE      C1H
      000000C1H   SFRSYM    DATA     BYTE      I2C0ADDR0
      000000B4H   SFRSYM    DATA     BYTE      RTCTALMHZ
      000000BFH   SFRSYM    DATA     BYTE      RWKH
      000000A1H   SFRSYM    DATA     BYTE      I2C0ADDR1
      000000EEH   SFRSYM    DATA     BYTE      C2H
      000000B2H   SFRSYM    DATA     BYTE      I2C1ADDR0
      0000009FH   SFRSYM    DATA     BYTE      CHPCON
      00000088H.1 SFRSYM    DATA     BIT       IE0
      000000F5H   SFRSYM    DATA     BYTE      LCDCPALCT0
      000000A4H   SFRSYM    DATA     BYTE      I2C1ADDR1
      000000A2H   SFRSYM    DATA     BYTE      I2C0ADDR2
      000000D1H   SFRSYM    DATA     BYTE      PWM0PH
      00000088H.3 SFRSYM    DATA     BIT       IE1
      000000E9H   SFRSYM    DATA     BYTE      LCDCPALCT1
      000000A5H   SFRSYM    DATA     BYTE      I2C1ADDR2
      000000A3H   SFRSYM    DATA     BYTE      I2C0ADDR3
      00000086H   SFRSYM    DATA     BYTE      PWM1PH
      000000E4H   SFRSYM    DATA     BYTE      C0L
      00000091H   SFRSYM    DATA     BYTE      SFRS
      000000B9H   SFRSYM    DATA     BYTE      PWM2PH
      000000A6H   SFRSYM    DATA     BYTE      I2C1ADDR3
      000000E6H   SFRSYM    DATA     BYTE      C1L
      000000C8H.0 SFRSYM    DATA     BIT       CM_RL2
      000000BCH   SFRSYM    DATA     BYTE      RTCLEAPYEAR
      000000C9H   SFRSYM    DATA     BYTE      PWM3PH
      000000EDH   SFRSYM    DATA     BYTE      C2L
      000000F0H   SFRSYM    DATA     BYTE      B
      000000DFH   SFRSYM    DATA     BYTE      SC0TSR
      00000086H   SFRSYM    DATA     BYTE      RWKL
      000000DFH   SFRSYM    DATA     BYTE      SC1TSR
      000000D9H   SFRSYM    DATA     BYTE      PWM0PL
      00000099H   SFRSYM    DATA     BYTE      PWM1PL
      000000F4H   SFRSYM    DATA     BYTE      SPI0SR
      000000C1H   SFRSYM    DATA     BYTE      PWM2PL
      000000D6H   SFRSYM    DATA     BYTE      PWM0NP
      000000FBH   SFRSYM    DATA     BYTE      SPI1SR
      000000A5H   SFRSYM    DATA     BYTE      IAPUEN
      00000099H   SFRSYM    DATA     BYTE      WDCONH
      000000D1H   SFRSYM    DATA     BYTE      PWM3PL
      000000E0H   SFRSYM    DATA     BYTE      ACC
      000000D4H   SFRSYM    DATA     BYTE      ACMPSR
      000000A8H.1 SFRSYM    DATA     BIT       ET0
      000000BCH   SFRSYM    DATA     BYTE      I2C0DAT
      000000A4H   SFRSYM    DATA     BYTE      IAPTRG
      00000092H   SFRSYM    DATA     BYTE      DMA0CR0
      000000A8H.3 SFRSYM    DATA     BIT       ET1
      00000088H.5 SFRSYM    DATA     BIT       TF0
      0000008AH   SFRSYM    DATA     BYTE      DMA0CR1
      000000EBH   SFRSYM    DATA     BYTE      DMA1CR0
LX51 LINKER/LOCATER V4.66.97.0                                                        04/28/2025  14:43:25  PAGE 56


      000000BEH   SFRSYM    DATA     BYTE      I2C0CLK
      000000B3H   SFRSYM    DATA     BYTE      I2C1DAT
      00000088H.7 SFRSYM    DATA     BIT       TF1
      000000FBH   SFRSYM    DATA     BYTE      LCDPTR
      0000008BH   SFRSYM    DATA     BYTE      DMA1CR1
      000000B3H   SFRSYM    DATA     BYTE      DMA2CR0
      000000B5H   SFRSYM    DATA     BYTE      I2C1CLK
      000000C8H.7 SFRSYM    DATA     BIT       TF2
      000000C0H.3 SFRSYM    DATA     BIT       SI0
      00000098H.2 SFRSYM    DATA     BIT       RB8
      0000008CH   SFRSYM    DATA     BYTE      DMA2CR1
      000000ABH   SFRSYM    DATA     BYTE      DMA3CR0
      0000008CH   SFRSYM    DATA     BYTE      TH0
      000000E8H.3 SFRSYM    DATA     BIT       SI1
      000000A8H.0 SFRSYM    DATA     BIT       EX0
      00000088H.0 SFRSYM    DATA     BIT       IT0
      0000008DH   SFRSYM    DATA     BYTE      DMA3CR1
      000000C6H   SFRSYM    DATA     BYTE      RH3
      0000008DH   SFRSYM    DATA     BYTE      TH1
      000000A8H.2 SFRSYM    DATA     BIT       EX1
      00000098H.3 SFRSYM    DATA     BIT       TB8
      00000088H.2 SFRSYM    DATA     BIT       IT1
      000000FDH   SFRSYM    DATA     BYTE      LCDPWR
      000000CDH   SFRSYM    DATA     BYTE      TH2
      000000D0H.0 SFRSYM    DATA     BIT       P
      000000F6H   SFRSYM    DATA     BYTE      DMA0BAH
      00000098H.7 SFRSYM    DATA     BIT       SM0
      000000A9H   SFRSYM    DATA     BYTE      VRFCON
      000000FDH   SFRSYM    DATA     BYTE      DMA1BAH
      000000C0H   SFRSYM    DATA     BYTE      I2C0CON
      0000008AH   SFRSYM    DATA     BYTE      TL0
      00000098H.6 SFRSYM    DATA     BIT       SM1
      000000B2H   SFRSYM    DATA     BYTE      DMA2BAH
      000000E8H   SFRSYM    DATA     BYTE      I2C1CON
      000000C5H   SFRSYM    DATA     BYTE      RL3
      0000008BH   SFRSYM    DATA     BYTE      TL1
      00000098H.5 SFRSYM    DATA     BIT       SM2
      000000A7H   SFRSYM    DATA     BYTE      RTCINTSTS
      000000AAH   SFRSYM    DATA     BYTE      DMA3BAH
      000000F9H   SFRSYM    DATA     BYTE      PWM0DTEN
      000000CCH   SFRSYM    DATA     BYTE      TL2
      000000C6H   SFRSYM    DATA     BYTE      PORDIS
      00000099H   SFRSYM    DATA     BYTE      P0S
      000000B8H.1 SFRSYM    DATA     BIT       PT0
      0000009BH   SFRSYM    DATA     BYTE      P1S
      000000D0H.3 SFRSYM    DATA     BIT       RS0
      000000B8H.3 SFRSYM    DATA     BIT       PT1
      000000B7H   SFRSYM    DATA     BYTE      PWM0INTC
      0000009DH   SFRSYM    DATA     BYTE      P2S
      000000DDH   SFRSYM    DATA     BYTE      SC0IE
      000000D0H.4 SFRSYM    DATA     BIT       RS1
      00000088H.4 SFRSYM    DATA     BIT       TR0
      000000DDH   SFRSYM    DATA     BYTE      SC1IE
      0000009EH   SFRSYM    DATA     BYTE      PWM1INTC
      000000FFH   SFRSYM    DATA     BYTE      LVRDIS
      000000ACH   SFRSYM    DATA     BYTE      P3S
      000000BFH   SFRSYM    DATA     BYTE      I2C0TOC
      00000088H.6 SFRSYM    DATA     BIT       TR1
      000000C6H   SFRSYM    DATA     BYTE      PWM2INTC
      000000BBH   SFRSYM    DATA     BYTE      P4S
      000000F7H   SFRSYM    DATA     BYTE      EIPH0
      000000D5H   SFRSYM    DATA     BYTE      ACMPVREF
      000000B6H   SFRSYM    DATA     BYTE      I2C1TOC
      000000C8H.2 SFRSYM    DATA     BIT       TR2
      000000B8H.0 SFRSYM    DATA     BIT       PX0
LX51 LINKER/LOCATER V4.66.97.0                                                        04/28/2025  14:43:25  PAGE 57


      000000D6H   SFRSYM    DATA     BYTE      PWM3INTC
      000000BFH   SFRSYM    DATA     BYTE      P5S
      000000FFH   SFRSYM    DATA     BYTE      EIPH1
      000000B8H.2 SFRSYM    DATA     BIT       PX1
      000000CFH   SFRSYM    DATA     BYTE      I2C0ADDRM
      00000096H   SFRSYM    DATA     BYTE      P6S
      000000ADH   SFRSYM    DATA     BYTE      EIPH2
      000000D7H   SFRSYM    DATA     BYTE      I2C1ADDRM
      00000085H   SFRSYM    DATA     BYTE      XLTCON
      000000E6H   SFRSYM    DATA     BYTE      ADCCN
      000000A1H   SFRSYM    DATA     BYTE      ADCCON0
      000000F1H   SFRSYM    DATA     BYTE      LCDCPUMP
      000000BFH   SFRSYM    DATA     BYTE      RTCCAMSK
      000000E1H   SFRSYM    DATA     BYTE      ADCCON1
      00000092H   SFRSYM    DATA     BYTE      DMA0CRC
      000000E2H   SFRSYM    DATA     BYTE      ADCCON2
      00000083H   SFRSYM    DATA     BYTE      DPH
      000000F8H.2 SFRSYM    DATA     BIT       RB8_1
      00000093H   SFRSYM    DATA     BYTE      DMA1CRC
      000000D9H   SFRSYM    DATA     BYTE      SC0DR
      00000094H   SFRSYM    DATA     BYTE      DMA2CRC
      000000D9H   SFRSYM    DATA     BYTE      SC1DR
      00000093H   SFRSYM    DATA     BYTE      DMA0MAL
      000000F8H.3 SFRSYM    DATA     BIT       TB8_1
      00000095H   SFRSYM    DATA     BYTE      DMA3CRC
      000000ECH   SFRSYM    DATA     BYTE      DMA1MAL
      000000CAH   SFRSYM    DATA     BYTE      PIF
      000000B4H   SFRSYM    DATA     BYTE      DMA2MAL
      00000082H   SFRSYM    DATA     BYTE      DPL
      000000F8H.7 SFRSYM    DATA     BIT       SM0_1
      000000ACH   SFRSYM    DATA     BYTE      DMA3MAL
      000000D2H   SFRSYM    DATA     BYTE      PWM0C0H
      000000B7H   SFRSYM    DATA     BYTE      IPH
      000000F8H.6 SFRSYM    DATA     BIT       SM1_1
      000000FEH   SFRSYM    DATA     BYTE      LCDBL
      0000008AH   SFRSYM    DATA     BYTE      PWM1C0H
      000000D3H   SFRSYM    DATA     BYTE      PWM0C1H
      0000009AH   SFRSYM    DATA     BYTE      SBUF1
      000000F8H.5 SFRSYM    DATA     BIT       SM2_1
      000000BAH   SFRSYM    DATA     BYTE      PWM2C0H
      0000008BH   SFRSYM    DATA     BYTE      PWM1C1H
      000000D4H   SFRSYM    DATA     BYTE      PWM0C2H
      000000F3H   SFRSYM    DATA     BYTE      SPI0CR0
      000000DEH   SFRSYM    DATA     BYTE      SC0IS
      000000C3H   SFRSYM    DATA     BYTE      ADCRH
      000000DEH   SFRSYM    DATA     BYTE      SC1IS
      000000CAH   SFRSYM    DATA     BYTE      PWM3C0H
      000000BBH   SFRSYM    DATA     BYTE      PWM2C1H
      000000F3H   SFRSYM    DATA     BYTE      SPI0CR1
      000000D5H   SFRSYM    DATA     BYTE      PWM0C3H
      000000F9H   SFRSYM    DATA     BYTE      SPI1CR0
      000000A7H   SFRSYM    DATA     BYTE      IAPAH
      00000098H.4 SFRSYM    DATA     BIT       REN
      000000F9H   SFRSYM    DATA     BYTE      LCDCON0
      000000CBH   SFRSYM    DATA     BYTE      PWM3C1H
      000000DAH   SFRSYM    DATA     BYTE      PWM0C0L
      000000C4H   SFRSYM    DATA     BYTE      PWM0C4H
      000000FAH   SFRSYM    DATA     BYTE      SPI1CR1
      000000F8H   SFRSYM    DATA     BYTE      S1CON
      000000AEH   SFRSYM    DATA     BYTE      IAPFD
      000000F4H   SFRSYM    DATA     BYTE      LCDCON1
      0000009AH   SFRSYM    DATA     BYTE      PWM1C0L
      000000E1H   SFRSYM    DATA     BYTE      CAPCON0
      000000DBH   SFRSYM    DATA     BYTE      PWM0C1L
      000000C5H   SFRSYM    DATA     BYTE      PWM0C5H
LX51 LINKER/LOCATER V4.66.97.0                                                        04/28/2025  14:43:25  PAGE 58


      000000C2H   SFRSYM    DATA     BYTE      PWM2C0L
      0000009BH   SFRSYM    DATA     BYTE      PWM1C1L
      000000E2H   SFRSYM    DATA     BYTE      CAPCON1
